{"backend/src/contracts/campaignFactory.sol":{"CampaignFactory":{"abi":[{"inputs":[],"stateMutability":"nonpayable","type":"constructor"},{"inputs":[],"name":"activeCampaign","outputs":[{"internalType":"address","name":"","type":"address"}],"stateMutability":"view","type":"function"},{"inputs":[{"internalType":"string","name":"_name","type":"string"},{"internalType":"string","name":"_ipfsLink","type":"string"},{"internalType":"address payable","name":"_donationReceiver","type":"address"},{"internalType":"string","name":"_color","type":"string"},{"internalType":"uint256","name":"_expirationDate","type":"uint256"}],"name":"createCampaign","outputs":[],"stateMutability":"nonpayable","type":"function"},{"inputs":[],"name":"getCampaigns","outputs":[{"components":[{"internalType":"string","name":"name","type":"string"},{"internalType":"address","name":"endereco","type":"address"}],"internalType":"struct CampaignFactory.Campaigns[]","name":"","type":"tuple[]"}],"stateMutability":"view","type":"function"}],"evm":{"bytecode":{"linkReferences":{},"object":"608060405234801561001057600080fd5b50336000806101000a81548173ffffffffffffffffffffffffffffffffffffffff021916908373ffffffffffffffffffffffffffffffffffffffff160217905550614b50806100606000396000f3fe60806040523480156200001157600080fd5b5060043610620000465760003560e01c8063283a1235146200004b57806363b4a361146200006d578063a6b03633146200008d575b600080fd5b62000055620000af565b60405162000064919062000529565b60405180910390f35b6200008b60048036038101906200008591906200073c565b620000d5565b005b62000097620002d5565b604051620000a69190620009d6565b60405180910390f35b600160009054906101000a900473ffffffffffffffffffffffffffffffffffffffff1681565b3373ffffffffffffffffffffffffffffffffffffffff1660008054906101000a900473ffffffffffffffffffffffffffffffffffffffff1673ffffffffffffffffffffffffffffffffffffffff161462000166576040517f08c379a00000000000000000000000000000000000000000000000000000000081526004016200015d9062000a5b565b60405180910390fd5b60008060009054906101000a900473ffffffffffffffffffffffffffffffffffffffff1686868686866040516200019d9062000426565b620001ae9695949392919062000ae0565b604051809103906000f080158015620001cb573d6000803e3d6000fd5b509050600260405180604001604052808881526020018373ffffffffffffffffffffffffffffffffffffffff16815250908060018154018082558091505060019003906000526020600020906002020160009091909190915060008201518160000190805190602001906200024292919062000434565b5060208201518160010160006101000a81548173ffffffffffffffffffffffffffffffffffffffff021916908373ffffffffffffffffffffffffffffffffffffffff160217905550505080600160006101000a81548173ffffffffffffffffffffffffffffffffffffffff021916908373ffffffffffffffffffffffffffffffffffffffff160217905550505050505050565b60606002805480602002602001604051908101604052809291908181526020016000905b828210156200041d57838290600052602060002090600202016040518060400160405290816000820180546200032f9062000b91565b80601f01602080910402602001604051908101604052809291908181526020018280546200035d9062000b91565b8015620003ae5780601f106200038257610100808354040283529160200191620003ae565b820191906000526020600020905b8154815290600101906020018083116200039057829003601f168201915b505050505081526020016001820160009054906101000a900473ffffffffffffffffffffffffffffffffffffffff1673ffffffffffffffffffffffffffffffffffffffff1673ffffffffffffffffffffffffffffffffffffffff168152505081526020019060010190620002f9565b50505050905090565b613f538062000bc883390190565b828054620004429062000b91565b90600052602060002090601f016020900481019282620004665760008555620004b2565b82601f106200048157805160ff1916838001178555620004b2565b82800160010185558215620004b2579182015b82811115620004b157825182559160200191906001019062000494565b5b509050620004c19190620004c5565b5090565b5b80821115620004e0576000816000905550600101620004c6565b5090565b600073ffffffffffffffffffffffffffffffffffffffff82169050919050565b60006200051182620004e4565b9050919050565b620005238162000504565b82525050565b600060208201905062000540600083018462000518565b92915050565b6000604051905090565b600080fd5b600080fd5b600080fd5b600080fd5b6000601f19601f8301169050919050565b7f4e487b7100000000000000000000000000000000000000000000000000000000600052604160045260246000fd5b620005af8262000564565b810181811067ffffffffffffffff82111715620005d157620005d062000575565b5b80604052505050565b6000620005e662000546565b9050620005f48282620005a4565b919050565b600067ffffffffffffffff82111562000617576200061662000575565b5b620006228262000564565b9050602081019050919050565b82818337600083830152505050565b6000620006556200064f84620005f9565b620005da565b9050828152602081018484840111156200067457620006736200055f565b5b620006818482856200062f565b509392505050565b600082601f830112620006a157620006a06200055a565b5b8135620006b38482602086016200063e565b91505092915050565b6000620006c982620004e4565b9050919050565b620006db81620006bc565b8114620006e757600080fd5b50565b600081359050620006fb81620006d0565b92915050565b6000819050919050565b620007168162000701565b81146200072257600080fd5b50565b60008135905062000736816200070b565b92915050565b600080600080600060a086880312156200075b576200075a62000550565b5b600086013567ffffffffffffffff8111156200077c576200077b62000555565b5b6200078a8882890162000689565b955050602086013567ffffffffffffffff811115620007ae57620007ad62000555565b5b620007bc8882890162000689565b9450506040620007cf88828901620006ea565b935050606086013567ffffffffffffffff811115620007f357620007f262000555565b5b620008018882890162000689565b9250506080620008148882890162000725565b9150509295509295909350565b600081519050919050565b600082825260208201905092915050565b6000819050602082019050919050565b600081519050919050565b600082825260208201905092915050565b60005b83811015620008895780820151818401526020810190506200086c565b8381111562000899576000848401525b50505050565b6000620008ac826200084d565b620008b8818562000858565b9350620008ca81856020860162000869565b620008d58162000564565b840191505092915050565b620008eb8162000504565b82525050565b600060408301600083015184820360008601526200091082826200089f565b9150506020830151620009276020860182620008e0565b508091505092915050565b6000620009408383620008f1565b905092915050565b6000602082019050919050565b6000620009628262000821565b6200096e81856200082c565b93508360208202850162000982856200083d565b8060005b85811015620009c45784840389528151620009a2858262000932565b9450620009af8362000948565b925060208a0199505060018101905062000986565b50829750879550505050505092915050565b60006020820190508181036000830152620009f2818462000955565b905092915050565b600082825260208201905092915050565b7f4e6f74206f776e65720000000000000000000000000000000000000000000000600082015250565b600062000a43600983620009fa565b915062000a508262000a0b565b602082019050919050565b6000602082019050818103600083015262000a768162000a34565b9050919050565b600062000a8a826200084d565b62000a968185620009fa565b935062000aa881856020860162000869565b62000ab38162000564565b840191505092915050565b62000ac981620006bc565b82525050565b62000ada8162000701565b82525050565b600060c08201905062000af7600083018962000518565b818103602083015262000b0b818862000a7d565b9050818103604083015262000b21818762000a7d565b905062000b32606083018662000abe565b818103608083015262000b46818562000a7d565b905062000b5760a083018462000acf565b979650505050505050565b7f4e487b7100000000000000000000000000000000000000000000000000000000600052602260045260246000fd5b6000600282049050600182168062000baa57607f821691505b6020821081141562000bc15762000bc062000b62565b5b5091905056fe60806040523480156200001157600080fd5b5060405162003f5338038062003f5383398181016040528101906200003791906200047a565b8362000049816200012c60201b60201c565b5085600360006101000a81548173ffffffffffffffffffffffffffffffffffffffff021916908373ffffffffffffffffffffffffffffffffffffffff1602179055508460049080519060200190620000a392919062000148565b506001600560006101000a81548160ff02191690831515021790555082600560016101000a81548173ffffffffffffffffffffffffffffffffffffffff021916908373ffffffffffffffffffffffffffffffffffffffff16021790555081600790805190602001906200011892919062000148565b5080600681905550505050505050620005d8565b80600290805190602001906200014492919062000148565b5050565b8280546200015690620005a2565b90600052602060002090601f0160209004810192826200017a5760008555620001c6565b82601f106200019557805160ff1916838001178555620001c6565b82800160010185558215620001c6579182015b82811115620001c5578251825591602001919060010190620001a8565b5b509050620001d59190620001d9565b5090565b5b80821115620001f4576000816000905550600101620001da565b5090565b6000604051905090565b600080fd5b600080fd5b600073ffffffffffffffffffffffffffffffffffffffff82169050919050565b600062000239826200020c565b9050919050565b6200024b816200022c565b81146200025757600080fd5b50565b6000815190506200026b8162000240565b92915050565b600080fd5b600080fd5b6000601f19601f8301169050919050565b7f4e487b7100000000000000000000000000000000000000000000000000000000600052604160045260246000fd5b620002c6826200027b565b810181811067ffffffffffffffff82111715620002e857620002e76200028c565b5b80604052505050565b6000620002fd620001f8565b90506200030b8282620002bb565b919050565b600067ffffffffffffffff8211156200032e576200032d6200028c565b5b62000339826200027b565b9050602081019050919050565b60005b838110156200036657808201518184015260208101905062000349565b8381111562000376576000848401525b50505050565b6000620003936200038d8462000310565b620002f1565b905082815260208101848484011115620003b257620003b162000276565b5b620003bf84828562000346565b509392505050565b600082601f830112620003df57620003de62000271565b5b8151620003f18482602086016200037c565b91505092915050565b600062000407826200020c565b9050919050565b6200041981620003fa565b81146200042557600080fd5b50565b60008151905062000439816200040e565b92915050565b6000819050919050565b62000454816200043f565b81146200046057600080fd5b50565b600081519050620004748162000449565b92915050565b60008060008060008060c087890312156200049a576200049962000202565b5b6000620004aa89828a016200025a565b965050602087015167ffffffffffffffff811115620004ce57620004cd62000207565b5b620004dc89828a01620003c7565b955050604087015167ffffffffffffffff8111156200050057620004ff62000207565b5b6200050e89828a01620003c7565b94505060606200052189828a0162000428565b935050608087015167ffffffffffffffff81111562000545576200054462000207565b5b6200055389828a01620003c7565b92505060a06200056689828a0162000463565b9150509295509295509295565b7f4e487b7100000000000000000000000000000000000000000000000000000000600052602260045260246000fd5b60006002820490506001821680620005bb57607f821691505b60208210811415620005d257620005d162000573565b5b50919050565b61396b80620005e86000396000f3fe6080604052600436106101225760003560e01c806388097500116100a0578063cf08fed511610064578063cf08fed5146104fb578063d850149214610526578063e985e9c514610552578063f242432a1461058f578063f7260d3e146105b85761023c565b806388097500146104285780638da5cb5b146104515780638f6204871461047c57806396f300d4146104a7578063a22cb465146104d25761023c565b8063200d2ed2116100e7578063200d2ed21461034e5780632eb2c2d6146103795780634abfa163146103a25780634e1273f4146103e157806371aac7f91461041e5761023c565b8062fdd58e1461024157806301ffc9a71461027e5780630724fda9146102bb5780630e89341c146102e657806312065fe0146103235761023c565b3661023c5760011515600560009054906101000a900460ff16151514801561014a5750600034115b610189576040517f08c379a000000000000000000000000000000000000000000000000000000000815260040161018090612225565b60405180910390fd5b6101a533600180604051806020016040528060008152506105e3565b6008600101543411156102015733600860000160006101000a81548173ffffffffffffffffffffffffffffffffffffffff021916908373ffffffffffffffffffffffffffffffffffffffff160217905550346008600101819055505b7f88a5966d370b9919b20f3e2c13ff65706f196a4e32cc2c12bf57088f88525874333460405161023292919061229f565b60405180910390a1005b600080fd5b34801561024d57600080fd5b5061026860048036038101906102639190612334565b610794565b6040516102759190612374565b60405180910390f35b34801561028a57600080fd5b506102a560048036038101906102a091906123e7565b61085d565b6040516102b2919061242f565b60405180910390f35b3480156102c757600080fd5b506102d061093f565b6040516102dd91906124d2565b60405180910390f35b3480156102f257600080fd5b5061030d600480360381019061030891906124f4565b6109cd565b60405161031a91906124d2565b60405180910390f35b34801561032f57600080fd5b50610338610a61565b6040516103459190612374565b60405180910390f35b34801561035a57600080fd5b50610363610a69565b604051610370919061242f565b60405180910390f35b34801561038557600080fd5b506103a0600480360381019061039b919061271e565b610a7c565b005b3480156103ae57600080fd5b506103c960048036038101906103c491906124f4565b610b1d565b6040516103d8939291906127ed565b60405180910390f35b3480156103ed57600080fd5b50610408600480360381019061040391906128f5565b610c87565b6040516104159190612a2b565b60405180910390f35b610426610da0565b005b34801561043457600080fd5b5061044f600480360381019061044a9190612aee565b610f63565b005b34801561045d57600080fd5b506104666110d7565b6040516104739190612b79565b60405180910390f35b34801561048857600080fd5b506104916110fd565b60405161049e9190612374565b60405180910390f35b3480156104b357600080fd5b506104bc611103565b6040516104c99190612d06565b60405180910390f35b3480156104de57600080fd5b506104f960048036038101906104f49190612d54565b6112dc565b005b34801561050757600080fd5b506105106112f2565b60405161051d91906124d2565b60405180910390f35b34801561053257600080fd5b5061053b611380565b60405161054992919061229f565b60405180910390f35b34801561055e57600080fd5b5061057960048036038101906105749190612d94565b6113b2565b604051610586919061242f565b60405180910390f35b34801561059b57600080fd5b506105b660048036038101906105b19190612dd4565b611446565b005b3480156105c457600080fd5b506105cd6114e7565b6040516105da9190612e8c565b60405180910390f35b600073ffffffffffffffffffffffffffffffffffffffff168473ffffffffffffffffffffffffffffffffffffffff161415610653576040517f08c379a000000000000000000000000000000000000000000000000000000000815260040161064a90612f19565b60405180910390fd5b600061065d61150d565b9050600061066a85611515565b9050600061067785611515565b90506106888360008985858961158f565b8460008088815260200190815260200160002060008973ffffffffffffffffffffffffffffffffffffffff1673ffffffffffffffffffffffffffffffffffffffff16815260200190815260200160002060008282546106e79190612f68565b925050819055508673ffffffffffffffffffffffffffffffffffffffff16600073ffffffffffffffffffffffffffffffffffffffff168473ffffffffffffffffffffffffffffffffffffffff167fc3d58168c5ae7397731d063d5bbf3d657854427343f4c083240f7aacaa2d0f628989604051610765929190612fbe565b60405180910390a461077c83600089858589611597565b61078b8360008989898961159f565b50505050505050565b60008073ffffffffffffffffffffffffffffffffffffffff168373ffffffffffffffffffffffffffffffffffffffff161415610805576040517f08c379a00000000000000000000000000000000000000000000000000000000081526004016107fc90613059565b60405180910390fd5b60008083815260200190815260200160002060008473ffffffffffffffffffffffffffffffffffffffff1673ffffffffffffffffffffffffffffffffffffffff16815260200190815260200160002054905092915050565b60007fd9b67a26000000000000000000000000000000000000000000000000000000007bffffffffffffffffffffffffffffffffffffffffffffffffffffffff1916827bffffffffffffffffffffffffffffffffffffffffffffffffffffffff1916148061092857507f0e89341c000000000000000000000000000000000000000000000000000000007bffffffffffffffffffffffffffffffffffffffffffffffffffffffff1916827bffffffffffffffffffffffffffffffffffffffffffffffffffffffff1916145b80610938575061093782611786565b5b9050919050565b6004805461094c906130a8565b80601f0160208091040260200160405190810160405280929190818152602001828054610978906130a8565b80156109c55780601f1061099a576101008083540402835291602001916109c5565b820191906000526020600020905b8154815290600101906020018083116109a857829003601f168201915b505050505081565b6060600280546109dc906130a8565b80601f0160208091040260200160405190810160405280929190818152602001828054610a08906130a8565b8015610a555780601f10610a2a57610100808354040283529160200191610a55565b820191906000526020600020905b815481529060010190602001808311610a3857829003601f168201915b50505050509050919050565b600047905090565b600560009054906101000a900460ff1681565b610a8461150d565b73ffffffffffffffffffffffffffffffffffffffff168573ffffffffffffffffffffffffffffffffffffffff161480610aca5750610ac985610ac461150d565b6113b2565b5b610b09576040517f08c379a0000000000000000000000000000000000000000000000000000000008152600401610b009061314c565b60405180910390fd5b610b1685858585856117f0565b5050505050565b600a8181548110610b2d57600080fd5b9060005260206000209060030201600091509050806000018054610b50906130a8565b80601f0160208091040260200160405190810160405280929190818152602001828054610b7c906130a8565b8015610bc95780601f10610b9e57610100808354040283529160200191610bc9565b820191906000526020600020905b815481529060010190602001808311610bac57829003601f168201915b505050505090806001018054610bde906130a8565b80601f0160208091040260200160405190810160405280929190818152602001828054610c0a906130a8565b8015610c575780601f10610c2c57610100808354040283529160200191610c57565b820191906000526020600020905b815481529060010190602001808311610c3a57829003601f168201915b5050505050908060020160009054906101000a900473ffffffffffffffffffffffffffffffffffffffff16905083565b60608151835114610ccd576040517f08c379a0000000000000000000000000000000000000000000000000000000008152600401610cc4906131de565b60405180910390fd5b6000835167ffffffffffffffff811115610cea57610ce9612526565b5b604051908082528060200260200182016040528015610d185781602001602082028036833780820191505090505b50905060005b8451811015610d9557610d65858281518110610d3d57610d3c6131fe565b5b6020026020010151858381518110610d5857610d576131fe565b5b6020026020010151610794565b828281518110610d7857610d776131fe565b5b60200260200101818152505080610d8e9061322d565b9050610d1e565b508091505092915050565b3373ffffffffffffffffffffffffffffffffffffffff16600360009054906101000a900473ffffffffffffffffffffffffffffffffffffffff1673ffffffffffffffffffffffffffffffffffffffff1614610e30576040517f08c379a0000000000000000000000000000000000000000000000000000000008152600401610e27906132c2565b60405180910390fd5b6006544210158015610e55575060011515600560009054906101000a900460ff161515145b610e94576040517f08c379a0000000000000000000000000000000000000000000000000000000008152600401610e8b90613354565b60405180910390fd5b600560019054906101000a900473ffffffffffffffffffffffffffffffffffffffff1673ffffffffffffffffffffffffffffffffffffffff166108fc610ed8610a61565b9081150290604051600060405180830381858888f19350505050158015610f03573d6000803e3d6000fd5b50610f46600860000160009054906101000a900473ffffffffffffffffffffffffffffffffffffffff1660026001604051806020016040528060008152506105e3565b6000600560006101000a81548160ff021916908315150217905550565b3373ffffffffffffffffffffffffffffffffffffffff16600360009054906101000a900473ffffffffffffffffffffffffffffffffffffffff1673ffffffffffffffffffffffffffffffffffffffff1614610ff3576040517f08c379a0000000000000000000000000000000000000000000000000000000008152600401610fea906132c2565b60405180910390fd5b600a60405180606001604052808581526020018481526020018373ffffffffffffffffffffffffffffffffffffffff168152509080600181540180825580915050600190039060005260206000209060030201600090919091909150600082015181600001908051906020019061106b929190612125565b506020820151816001019080519060200190611088929190612125565b5060408201518160020160006101000a81548173ffffffffffffffffffffffffffffffffffffffff021916908373ffffffffffffffffffffffffffffffffffffffff1602179055505050505050565b600360009054906101000a900473ffffffffffffffffffffffffffffffffffffffff1681565b60065481565b6060600a805480602002602001604051908101604052809291908181526020016000905b828210156112d3578382906000526020600020906003020160405180606001604052908160008201805461115a906130a8565b80601f0160208091040260200160405190810160405280929190818152602001828054611186906130a8565b80156111d35780601f106111a8576101008083540402835291602001916111d3565b820191906000526020600020905b8154815290600101906020018083116111b657829003601f168201915b505050505081526020016001820180546111ec906130a8565b80601f0160208091040260200160405190810160405280929190818152602001828054611218906130a8565b80156112655780601f1061123a57610100808354040283529160200191611265565b820191906000526020600020905b81548152906001019060200180831161124857829003601f168201915b505050505081526020016002820160009054906101000a900473ffffffffffffffffffffffffffffffffffffffff1673ffffffffffffffffffffffffffffffffffffffff1673ffffffffffffffffffffffffffffffffffffffff168152505081526020019060010190611127565b50505050905090565b6112ee6112e761150d565b8383611b12565b5050565b600780546112ff906130a8565b80601f016020809104026020016040519081016040528092919081815260200182805461132b906130a8565b80156113785780601f1061134d57610100808354040283529160200191611378565b820191906000526020600020905b81548152906001019060200180831161135b57829003601f168201915b505050505081565b60088060000160009054906101000a900473ffffffffffffffffffffffffffffffffffffffff16908060010154905082565b6000600160008473ffffffffffffffffffffffffffffffffffffffff1673ffffffffffffffffffffffffffffffffffffffff16815260200190815260200160002060008373ffffffffffffffffffffffffffffffffffffffff1673ffffffffffffffffffffffffffffffffffffffff16815260200190815260200160002060009054906101000a900460ff16905092915050565b61144e61150d565b73ffffffffffffffffffffffffffffffffffffffff168573ffffffffffffffffffffffffffffffffffffffff16148061149457506114938561148e61150d565b6113b2565b5b6114d3576040517f08c379a00000000000000000000000000000000000000000000000000000000081526004016114ca9061314c565b60405180910390fd5b6114e08585858585611c7f565b5050505050565b600560019054906101000a900473ffffffffffffffffffffffffffffffffffffffff1681565b600033905090565b60606000600167ffffffffffffffff81111561153457611533612526565b5b6040519080825280602002602001820160405280156115625781602001602082028036833780820191505090505b509050828160008151811061157a576115796131fe565b5b60200260200101818152505080915050919050565b505050505050565b505050505050565b6115be8473ffffffffffffffffffffffffffffffffffffffff16611f1b565b1561177e578373ffffffffffffffffffffffffffffffffffffffff1663f23a6e6187878686866040518663ffffffff1660e01b81526004016116049594939291906133c9565b602060405180830381600087803b15801561161e57600080fd5b505af192505050801561164f57506040513d601f19601f8201168201806040525081019061164c9190613438565b60015b6116f55761165b613472565b806308c379a014156116b85750611670613494565b8061167b57506116ba565b806040517f08c379a00000000000000000000000000000000000000000000000000000000081526004016116af91906124d2565b60405180910390fd5b505b6040517f08c379a00000000000000000000000000000000000000000000000000000000081526004016116ec9061359c565b60405180910390fd5b63f23a6e6160e01b7bffffffffffffffffffffffffffffffffffffffffffffffffffffffff1916817bffffffffffffffffffffffffffffffffffffffffffffffffffffffff19161461177c576040517f08c379a00000000000000000000000000000000000000000000000000000000081526004016117739061362e565b60405180910390fd5b505b505050505050565b60007f01ffc9a7000000000000000000000000000000000000000000000000000000007bffffffffffffffffffffffffffffffffffffffffffffffffffffffff1916827bffffffffffffffffffffffffffffffffffffffffffffffffffffffff1916149050919050565b8151835114611834576040517f08c379a000000000000000000000000000000000000000000000000000000000815260040161182b906136c0565b60405180910390fd5b600073ffffffffffffffffffffffffffffffffffffffff168473ffffffffffffffffffffffffffffffffffffffff1614156118a4576040517f08c379a000000000000000000000000000000000000000000000000000000000815260040161189b90613752565b60405180910390fd5b60006118ae61150d565b90506118be81878787878761158f565b60005b8451811015611a6f5760008582815181106118df576118de6131fe565b5b6020026020010151905060008583815181106118fe576118fd6131fe565b5b60200260200101519050600080600084815260200190815260200160002060008b73ffffffffffffffffffffffffffffffffffffffff1673ffffffffffffffffffffffffffffffffffffffff1681526020019081526020016000205490508181101561199f576040517f08c379a0000000000000000000000000000000000000000000000000000000008152600401611996906137e4565b60405180910390fd5b81810360008085815260200190815260200160002060008c73ffffffffffffffffffffffffffffffffffffffff1673ffffffffffffffffffffffffffffffffffffffff168152602001908152602001600020819055508160008085815260200190815260200160002060008b73ffffffffffffffffffffffffffffffffffffffff1673ffffffffffffffffffffffffffffffffffffffff1681526020019081526020016000206000828254611a549190612f68565b9250508190555050505080611a689061322d565b90506118c1565b508473ffffffffffffffffffffffffffffffffffffffff168673ffffffffffffffffffffffffffffffffffffffff168273ffffffffffffffffffffffffffffffffffffffff167f4a39dc06d4c0dbc64b70af90fd698a233a518aa5d07e595d983b8c0526c8f7fb8787604051611ae6929190613804565b60405180910390a4611afc818787878787611597565b611b0a818787878787611f3e565b505050505050565b8173ffffffffffffffffffffffffffffffffffffffff168373ffffffffffffffffffffffffffffffffffffffff161415611b81576040517f08c379a0000000000000000000000000000000000000000000000000000000008152600401611b78906138ad565b60405180910390fd5b80600160008573ffffffffffffffffffffffffffffffffffffffff1673ffffffffffffffffffffffffffffffffffffffff16815260200190815260200160002060008473ffffffffffffffffffffffffffffffffffffffff1673ffffffffffffffffffffffffffffffffffffffff16815260200190815260200160002060006101000a81548160ff0219169083151502179055508173ffffffffffffffffffffffffffffffffffffffff168373ffffffffffffffffffffffffffffffffffffffff167f17307eab39ab6107e8899845ad3d59bd9653f200f220920489ca2b5937696c3183604051611c72919061242f565b60405180910390a3505050565b600073ffffffffffffffffffffffffffffffffffffffff168473ffffffffffffffffffffffffffffffffffffffff161415611cef576040517f08c379a0000000000000000000000000000000000000000000000000000000008152600401611ce690613752565b60405180910390fd5b6000611cf961150d565b90506000611d0685611515565b90506000611d1385611515565b9050611d2383898985858961158f565b600080600088815260200190815260200160002060008a73ffffffffffffffffffffffffffffffffffffffff1673ffffffffffffffffffffffffffffffffffffffff16815260200190815260200160002054905085811015611dba576040517f08c379a0000000000000000000000000000000000000000000000000000000008152600401611db1906137e4565b60405180910390fd5b85810360008089815260200190815260200160002060008b73ffffffffffffffffffffffffffffffffffffffff1673ffffffffffffffffffffffffffffffffffffffff168152602001908152602001600020819055508560008089815260200190815260200160002060008a73ffffffffffffffffffffffffffffffffffffffff1673ffffffffffffffffffffffffffffffffffffffff1681526020019081526020016000206000828254611e6f9190612f68565b925050819055508773ffffffffffffffffffffffffffffffffffffffff168973ffffffffffffffffffffffffffffffffffffffff168573ffffffffffffffffffffffffffffffffffffffff167fc3d58168c5ae7397731d063d5bbf3d657854427343f4c083240f7aacaa2d0f628a8a604051611eec929190612fbe565b60405180910390a4611f02848a8a86868a611597565b611f10848a8a8a8a8a61159f565b505050505050505050565b6000808273ffffffffffffffffffffffffffffffffffffffff163b119050919050565b611f5d8473ffffffffffffffffffffffffffffffffffffffff16611f1b565b1561211d578373ffffffffffffffffffffffffffffffffffffffff1663bc197c8187878686866040518663ffffffff1660e01b8152600401611fa39594939291906138cd565b602060405180830381600087803b158015611fbd57600080fd5b505af1925050508015611fee57506040513d601f19601f82011682018060405250810190611feb9190613438565b60015b61209457611ffa613472565b806308c379a01415612057575061200f613494565b8061201a5750612059565b806040517f08c379a000000000000000000000000000000000000000000000000000000000815260040161204e91906124d2565b60405180910390fd5b505b6040517f08c379a000000000000000000000000000000000000000000000000000000000815260040161208b9061359c565b60405180910390fd5b63bc197c8160e01b7bffffffffffffffffffffffffffffffffffffffffffffffffffffffff1916817bffffffffffffffffffffffffffffffffffffffffffffffffffffffff19161461211b576040517f08c379a00000000000000000000000000000000000000000000000000000000081526004016121129061362e565b60405180910390fd5b505b505050505050565b828054612131906130a8565b90600052602060002090601f016020900481019282612153576000855561219a565b82601f1061216c57805160ff191683800117855561219a565b8280016001018555821561219a579182015b8281111561219957825182559160200191906001019061217e565b5b5090506121a791906121ab565b5090565b5b808211156121c45760008160009055506001016121ac565b5090565b600082825260208201905092915050565b7f546869732063616d706169676e206973206e6f74206163746976650000000000600082015250565b600061220f601b836121c8565b915061221a826121d9565b602082019050919050565b6000602082019050818103600083015261223e81612202565b9050919050565b600073ffffffffffffffffffffffffffffffffffffffff82169050919050565b600061227082612245565b9050919050565b61228081612265565b82525050565b6000819050919050565b61229981612286565b82525050565b60006040820190506122b46000830185612277565b6122c16020830184612290565b9392505050565b6000604051905090565b600080fd5b600080fd5b6122e581612265565b81146122f057600080fd5b50565b600081359050612302816122dc565b92915050565b61231181612286565b811461231c57600080fd5b50565b60008135905061232e81612308565b92915050565b6000806040838503121561234b5761234a6122d2565b5b6000612359858286016122f3565b925050602061236a8582860161231f565b9150509250929050565b60006020820190506123896000830184612290565b92915050565b60007fffffffff0000000000000000000000000000000000000000000000000000000082169050919050565b6123c48161238f565b81146123cf57600080fd5b50565b6000813590506123e1816123bb565b92915050565b6000602082840312156123fd576123fc6122d2565b5b600061240b848285016123d2565b91505092915050565b60008115159050919050565b61242981612414565b82525050565b60006020820190506124446000830184612420565b92915050565b600081519050919050565b60005b83811015612473578082015181840152602081019050612458565b83811115612482576000848401525b50505050565b6000601f19601f8301169050919050565b60006124a48261244a565b6124ae81856121c8565b93506124be818560208601612455565b6124c781612488565b840191505092915050565b600060208201905081810360008301526124ec8184612499565b905092915050565b60006020828403121561250a576125096122d2565b5b60006125188482850161231f565b91505092915050565b600080fd5b7f4e487b7100000000000000000000000000000000000000000000000000000000600052604160045260246000fd5b61255e82612488565b810181811067ffffffffffffffff8211171561257d5761257c612526565b5b80604052505050565b60006125906122c8565b905061259c8282612555565b919050565b600067ffffffffffffffff8211156125bc576125bb612526565b5b602082029050602081019050919050565b600080fd5b60006125e56125e0846125a1565b612586565b90508083825260208201905060208402830185811115612608576126076125cd565b5b835b81811015612631578061261d888261231f565b84526020840193505060208101905061260a565b5050509392505050565b600082601f8301126126505761264f612521565b5b81356126608482602086016125d2565b91505092915050565b600080fd5b600067ffffffffffffffff82111561268957612688612526565b5b61269282612488565b9050602081019050919050565b82818337600083830152505050565b60006126c16126bc8461266e565b612586565b9050828152602081018484840111156126dd576126dc612669565b5b6126e884828561269f565b509392505050565b600082601f83011261270557612704612521565b5b81356127158482602086016126ae565b91505092915050565b600080600080600060a0868803121561273a576127396122d2565b5b6000612748888289016122f3565b9550506020612759888289016122f3565b945050604086013567ffffffffffffffff81111561277a576127796122d7565b5b6127868882890161263b565b935050606086013567ffffffffffffffff8111156127a7576127a66122d7565b5b6127b38882890161263b565b925050608086013567ffffffffffffffff8111156127d4576127d36122d7565b5b6127e0888289016126f0565b9150509295509295909350565b600060608201905081810360008301526128078186612499565b9050818103602083015261281b8185612499565b905061282a6040830184612277565b949350505050565b600067ffffffffffffffff82111561284d5761284c612526565b5b602082029050602081019050919050565b600061287161286c84612832565b612586565b90508083825260208201905060208402830185811115612894576128936125cd565b5b835b818110156128bd57806128a988826122f3565b845260208401935050602081019050612896565b5050509392505050565b600082601f8301126128dc576128db612521565b5b81356128ec84826020860161285e565b91505092915050565b6000806040838503121561290c5761290b6122d2565b5b600083013567ffffffffffffffff81111561292a576129296122d7565b5b612936858286016128c7565b925050602083013567ffffffffffffffff811115612957576129566122d7565b5b6129638582860161263b565b9150509250929050565b600081519050919050565b600082825260208201905092915050565b6000819050602082019050919050565b6129a281612286565b82525050565b60006129b48383612999565b60208301905092915050565b6000602082019050919050565b60006129d88261296d565b6129e28185612978565b93506129ed83612989565b8060005b83811015612a1e578151612a0588826129a8565b9750612a10836129c0565b9250506001810190506129f1565b5085935050505092915050565b60006020820190508181036000830152612a4581846129cd565b905092915050565b600067ffffffffffffffff821115612a6857612a67612526565b5b612a7182612488565b9050602081019050919050565b6000612a91612a8c84612a4d565b612586565b905082815260208101848484011115612aad57612aac612669565b5b612ab884828561269f565b509392505050565b600082601f830112612ad557612ad4612521565b5b8135612ae5848260208601612a7e565b91505092915050565b600080600060608486031215612b0757612b066122d2565b5b600084013567ffffffffffffffff811115612b2557612b246122d7565b5b612b3186828701612ac0565b935050602084013567ffffffffffffffff811115612b5257612b516122d7565b5b612b5e86828701612ac0565b9250506040612b6f868287016122f3565b9150509250925092565b6000602082019050612b8e6000830184612277565b92915050565b600081519050919050565b600082825260208201905092915050565b6000819050602082019050919050565b600082825260208201905092915050565b6000612bdc8261244a565b612be68185612bc0565b9350612bf6818560208601612455565b612bff81612488565b840191505092915050565b612c1381612265565b82525050565b60006060830160008301518482036000860152612c368282612bd1565b91505060208301518482036020860152612c508282612bd1565b9150506040830151612c656040860182612c0a565b508091505092915050565b6000612c7c8383612c19565b905092915050565b6000602082019050919050565b6000612c9c82612b94565b612ca68185612b9f565b935083602082028501612cb885612bb0565b8060005b85811015612cf45784840389528151612cd58582612c70565b9450612ce083612c84565b925060208a01995050600181019050612cbc565b50829750879550505050505092915050565b60006020820190508181036000830152612d208184612c91565b905092915050565b612d3181612414565b8114612d3c57600080fd5b50565b600081359050612d4e81612d28565b92915050565b60008060408385031215612d6b57612d6a6122d2565b5b6000612d79858286016122f3565b9250506020612d8a85828601612d3f565b9150509250929050565b60008060408385031215612dab57612daa6122d2565b5b6000612db9858286016122f3565b9250506020612dca858286016122f3565b9150509250929050565b600080600080600060a08688031215612df057612def6122d2565b5b6000612dfe888289016122f3565b9550506020612e0f888289016122f3565b9450506040612e208882890161231f565b9350506060612e318882890161231f565b925050608086013567ffffffffffffffff811115612e5257612e516122d7565b5b612e5e888289016126f0565b9150509295509295909350565b6000612e7682612245565b9050919050565b612e8681612e6b565b82525050565b6000602082019050612ea16000830184612e7d565b92915050565b7f455243313135353a206d696e7420746f20746865207a65726f2061646472657360008201527f7300000000000000000000000000000000000000000000000000000000000000602082015250565b6000612f036021836121c8565b9150612f0e82612ea7565b604082019050919050565b60006020820190508181036000830152612f3281612ef6565b9050919050565b7f4e487b7100000000000000000000000000000000000000000000000000000000600052601160045260246000fd5b6000612f7382612286565b9150612f7e83612286565b9250827fffffffffffffffffffffffffffffffffffffffffffffffffffffffffffffffff03821115612fb357612fb2612f39565b5b828201905092915050565b6000604082019050612fd36000830185612290565b612fe06020830184612290565b9392505050565b7f455243313135353a2061646472657373207a65726f206973206e6f742061207660008201527f616c6964206f776e657200000000000000000000000000000000000000000000602082015250565b6000613043602a836121c8565b915061304e82612fe7565b604082019050919050565b6000602082019050818103600083015261307281613036565b9050919050565b7f4e487b7100000000000000000000000000000000000000000000000000000000600052602260045260246000fd5b600060028204905060018216806130c057607f821691505b602082108114156130d4576130d3613079565b5b50919050565b7f455243313135353a2063616c6c6572206973206e6f7420746f6b656e206f776e60008201527f6572206e6f7220617070726f7665640000000000000000000000000000000000602082015250565b6000613136602f836121c8565b9150613141826130da565b604082019050919050565b6000602082019050818103600083015261316581613129565b9050919050565b7f455243313135353a206163636f756e747320616e6420696473206c656e67746860008201527f206d69736d617463680000000000000000000000000000000000000000000000602082015250565b60006131c86029836121c8565b91506131d38261316c565b604082019050919050565b600060208201905081810360008301526131f7816131bb565b9050919050565b7f4e487b7100000000000000000000000000000000000000000000000000000000600052603260045260246000fd5b600061323882612286565b91507fffffffffffffffffffffffffffffffffffffffffffffffffffffffffffffffff82141561326b5761326a612f39565b5b600182019050919050565b7f4e6f74206f776e65720000000000000000000000000000000000000000000000600082015250565b60006132ac6009836121c8565b91506132b782613276565b602082019050919050565b600060208201905081810360008301526132db8161329f565b9050919050565b7f596f752063616e6e6f742066696e697368207468652063616d706169676e207960008201527f6574000000000000000000000000000000000000000000000000000000000000602082015250565b600061333e6022836121c8565b9150613349826132e2565b604082019050919050565b6000602082019050818103600083015261336d81613331565b9050919050565b600081519050919050565b600082825260208201905092915050565b600061339b82613374565b6133a5818561337f565b93506133b5818560208601612455565b6133be81612488565b840191505092915050565b600060a0820190506133de6000830188612277565b6133eb6020830187612277565b6133f86040830186612290565b6134056060830185612290565b81810360808301526134178184613390565b90509695505050505050565b600081519050613432816123bb565b92915050565b60006020828403121561344e5761344d6122d2565b5b600061345c84828501613423565b91505092915050565b60008160e01c9050919050565b600060033d11156134915760046000803e61348e600051613465565b90505b90565b600060443d10156134a457613527565b6134ac6122c8565b60043d036004823e80513d602482011167ffffffffffffffff821117156134d4575050613527565b808201805167ffffffffffffffff8111156134f25750505050613527565b80602083010160043d03850181111561350f575050505050613527565b61351e82602001850186612555565b82955050505050505b90565b7f455243313135353a207472616e7366657220746f206e6f6e204552433131353560008201527f526563656976657220696d706c656d656e746572000000000000000000000000602082015250565b60006135866034836121c8565b91506135918261352a565b604082019050919050565b600060208201905081810360008301526135b581613579565b9050919050565b7f455243313135353a204552433131353552656365697665722072656a6563746560008201527f6420746f6b656e73000000000000000000000000000000000000000000000000602082015250565b60006136186028836121c8565b9150613623826135bc565b604082019050919050565b600060208201905081810360008301526136478161360b565b9050919050565b7f455243313135353a2069647320616e6420616d6f756e7473206c656e6774682060008201527f6d69736d61746368000000000000000000000000000000000000000000000000602082015250565b60006136aa6028836121c8565b91506136b58261364e565b604082019050919050565b600060208201905081810360008301526136d98161369d565b9050919050565b7f455243313135353a207472616e7366657220746f20746865207a65726f20616460008201527f6472657373000000000000000000000000000000000000000000000000000000602082015250565b600061373c6025836121c8565b9150613747826136e0565b604082019050919050565b6000602082019050818103600083015261376b8161372f565b9050919050565b7f455243313135353a20696e73756666696369656e742062616c616e636520666f60008201527f72207472616e7366657200000000000000000000000000000000000000000000602082015250565b60006137ce602a836121c8565b91506137d982613772565b604082019050919050565b600060208201905081810360008301526137fd816137c1565b9050919050565b6000604082019050818103600083015261381e81856129cd565b9050818103602083015261383281846129cd565b90509392505050565b7f455243313135353a2073657474696e6720617070726f76616c2073746174757360008201527f20666f722073656c660000000000000000000000000000000000000000000000602082015250565b60006138976029836121c8565b91506138a28261383b565b604082019050919050565b600060208201905081810360008301526138c68161388a565b9050919050565b600060a0820190506138e26000830188612277565b6138ef6020830187612277565b818103604083015261390181866129cd565b9050818103606083015261391581856129cd565b905081810360808301526139298184613390565b9050969550505050505056fea2646970667358221220ecc24ca3b68d72c0e37d0ed49bd1eb5d2161a17a41a9e8ddf116496cec17190d64736f6c63430008090033a26469706673582212200e6d58f90195c62478292483bf705f782ecd3f389959fba4fa02e7a70e01184a64736f6c63430008090033","opcodes":"PUSH1 0x80 PUSH1 0x40 MSTORE CALLVALUE DUP1 ISZERO PUSH2 0x10 JUMPI PUSH1 0x0 DUP1 REVERT JUMPDEST POP CALLER PUSH1 0x0 DUP1 PUSH2 0x100 EXP DUP2 SLOAD DUP2 PUSH20 0xFFFFFFFFFFFFFFFFFFFFFFFFFFFFFFFFFFFFFFFF MUL NOT AND SWAP1 DUP4 PUSH20 0xFFFFFFFFFFFFFFFFFFFFFFFFFFFFFFFFFFFFFFFF AND MUL OR SWAP1 SSTORE POP PUSH2 0x4B50 DUP1 PUSH2 0x60 PUSH1 0x0 CODECOPY PUSH1 0x0 RETURN INVALID PUSH1 0x80 PUSH1 0x40 MSTORE CALLVALUE DUP1 ISZERO PUSH3 0x11 JUMPI PUSH1 0x0 DUP1 REVERT JUMPDEST POP PUSH1 0x4 CALLDATASIZE LT PUSH3 0x46 JUMPI PUSH1 0x0 CALLDATALOAD PUSH1 0xE0 SHR DUP1 PUSH4 0x283A1235 EQ PUSH3 0x4B JUMPI DUP1 PUSH4 0x63B4A361 EQ PUSH3 0x6D JUMPI DUP1 PUSH4 0xA6B03633 EQ PUSH3 0x8D JUMPI JUMPDEST PUSH1 0x0 DUP1 REVERT JUMPDEST PUSH3 0x55 PUSH3 0xAF JUMP JUMPDEST PUSH1 0x40 MLOAD PUSH3 0x64 SWAP2 SWAP1 PUSH3 0x529 JUMP JUMPDEST PUSH1 0x40 MLOAD DUP1 SWAP2 SUB SWAP1 RETURN JUMPDEST PUSH3 0x8B PUSH1 0x4 DUP1 CALLDATASIZE SUB DUP2 ADD SWAP1 PUSH3 0x85 SWAP2 SWAP1 PUSH3 0x73C JUMP JUMPDEST PUSH3 0xD5 JUMP JUMPDEST STOP JUMPDEST PUSH3 0x97 PUSH3 0x2D5 JUMP JUMPDEST PUSH1 0x40 MLOAD PUSH3 0xA6 SWAP2 SWAP1 PUSH3 0x9D6 JUMP JUMPDEST PUSH1 0x40 MLOAD DUP1 SWAP2 SUB SWAP1 RETURN JUMPDEST PUSH1 0x1 PUSH1 0x0 SWAP1 SLOAD SWAP1 PUSH2 0x100 EXP SWAP1 DIV PUSH20 0xFFFFFFFFFFFFFFFFFFFFFFFFFFFFFFFFFFFFFFFF AND DUP2 JUMP JUMPDEST CALLER PUSH20 0xFFFFFFFFFFFFFFFFFFFFFFFFFFFFFFFFFFFFFFFF AND PUSH1 0x0 DUP1 SLOAD SWAP1 PUSH2 0x100 EXP SWAP1 DIV PUSH20 0xFFFFFFFFFFFFFFFFFFFFFFFFFFFFFFFFFFFFFFFF AND PUSH20 0xFFFFFFFFFFFFFFFFFFFFFFFFFFFFFFFFFFFFFFFF AND EQ PUSH3 0x166 JUMPI PUSH1 0x40 MLOAD PUSH32 0x8C379A000000000000000000000000000000000000000000000000000000000 DUP2 MSTORE PUSH1 0x4 ADD PUSH3 0x15D SWAP1 PUSH3 0xA5B JUMP JUMPDEST PUSH1 0x40 MLOAD DUP1 SWAP2 SUB SWAP1 REVERT JUMPDEST PUSH1 0x0 DUP1 PUSH1 0x0 SWAP1 SLOAD SWAP1 PUSH2 0x100 EXP SWAP1 DIV PUSH20 0xFFFFFFFFFFFFFFFFFFFFFFFFFFFFFFFFFFFFFFFF AND DUP7 DUP7 DUP7 DUP7 DUP7 PUSH1 0x40 MLOAD PUSH3 0x19D SWAP1 PUSH3 0x426 JUMP JUMPDEST PUSH3 0x1AE SWAP7 SWAP6 SWAP5 SWAP4 SWAP3 SWAP2 SWAP1 PUSH3 0xAE0 JUMP JUMPDEST PUSH1 0x40 MLOAD DUP1 SWAP2 SUB SWAP1 PUSH1 0x0 CREATE DUP1 ISZERO DUP1 ISZERO PUSH3 0x1CB JUMPI RETURNDATASIZE PUSH1 0x0 DUP1 RETURNDATACOPY RETURNDATASIZE PUSH1 0x0 REVERT JUMPDEST POP SWAP1 POP PUSH1 0x2 PUSH1 0x40 MLOAD DUP1 PUSH1 0x40 ADD PUSH1 0x40 MSTORE DUP1 DUP9 DUP2 MSTORE PUSH1 0x20 ADD DUP4 PUSH20 0xFFFFFFFFFFFFFFFFFFFFFFFFFFFFFFFFFFFFFFFF AND DUP2 MSTORE POP SWAP1 DUP1 PUSH1 0x1 DUP2 SLOAD ADD DUP1 DUP3 SSTORE DUP1 SWAP2 POP POP PUSH1 0x1 SWAP1 SUB SWAP1 PUSH1 0x0 MSTORE PUSH1 0x20 PUSH1 0x0 KECCAK256 SWAP1 PUSH1 0x2 MUL ADD PUSH1 0x0 SWAP1 SWAP2 SWAP1 SWAP2 SWAP1 SWAP2 POP PUSH1 0x0 DUP3 ADD MLOAD DUP2 PUSH1 0x0 ADD SWAP1 DUP1 MLOAD SWAP1 PUSH1 0x20 ADD SWAP1 PUSH3 0x242 SWAP3 SWAP2 SWAP1 PUSH3 0x434 JUMP JUMPDEST POP PUSH1 0x20 DUP3 ADD MLOAD DUP2 PUSH1 0x1 ADD PUSH1 0x0 PUSH2 0x100 EXP DUP2 SLOAD DUP2 PUSH20 0xFFFFFFFFFFFFFFFFFFFFFFFFFFFFFFFFFFFFFFFF MUL NOT AND SWAP1 DUP4 PUSH20 0xFFFFFFFFFFFFFFFFFFFFFFFFFFFFFFFFFFFFFFFF AND MUL OR SWAP1 SSTORE POP POP POP DUP1 PUSH1 0x1 PUSH1 0x0 PUSH2 0x100 EXP DUP2 SLOAD DUP2 PUSH20 0xFFFFFFFFFFFFFFFFFFFFFFFFFFFFFFFFFFFFFFFF MUL NOT AND SWAP1 DUP4 PUSH20 0xFFFFFFFFFFFFFFFFFFFFFFFFFFFFFFFFFFFFFFFF AND MUL OR SWAP1 SSTORE POP POP POP POP POP POP POP JUMP JUMPDEST PUSH1 0x60 PUSH1 0x2 DUP1 SLOAD DUP1 PUSH1 0x20 MUL PUSH1 0x20 ADD PUSH1 0x40 MLOAD SWAP1 DUP2 ADD PUSH1 0x40 MSTORE DUP1 SWAP3 SWAP2 SWAP1 DUP2 DUP2 MSTORE PUSH1 0x20 ADD PUSH1 0x0 SWAP1 JUMPDEST DUP3 DUP3 LT ISZERO PUSH3 0x41D JUMPI DUP4 DUP3 SWAP1 PUSH1 0x0 MSTORE PUSH1 0x20 PUSH1 0x0 KECCAK256 SWAP1 PUSH1 0x2 MUL ADD PUSH1 0x40 MLOAD DUP1 PUSH1 0x40 ADD PUSH1 0x40 MSTORE SWAP1 DUP2 PUSH1 0x0 DUP3 ADD DUP1 SLOAD PUSH3 0x32F SWAP1 PUSH3 0xB91 JUMP JUMPDEST DUP1 PUSH1 0x1F ADD PUSH1 0x20 DUP1 SWAP2 DIV MUL PUSH1 0x20 ADD PUSH1 0x40 MLOAD SWAP1 DUP2 ADD PUSH1 0x40 MSTORE DUP1 SWAP3 SWAP2 SWAP1 DUP2 DUP2 MSTORE PUSH1 0x20 ADD DUP3 DUP1 SLOAD PUSH3 0x35D SWAP1 PUSH3 0xB91 JUMP JUMPDEST DUP1 ISZERO PUSH3 0x3AE JUMPI DUP1 PUSH1 0x1F LT PUSH3 0x382 JUMPI PUSH2 0x100 DUP1 DUP4 SLOAD DIV MUL DUP4 MSTORE SWAP2 PUSH1 0x20 ADD SWAP2 PUSH3 0x3AE JUMP JUMPDEST DUP3 ADD SWAP2 SWAP1 PUSH1 0x0 MSTORE PUSH1 0x20 PUSH1 0x0 KECCAK256 SWAP1 JUMPDEST DUP2 SLOAD DUP2 MSTORE SWAP1 PUSH1 0x1 ADD SWAP1 PUSH1 0x20 ADD DUP1 DUP4 GT PUSH3 0x390 JUMPI DUP3 SWAP1 SUB PUSH1 0x1F AND DUP3 ADD SWAP2 JUMPDEST POP POP POP POP POP DUP2 MSTORE PUSH1 0x20 ADD PUSH1 0x1 DUP3 ADD PUSH1 0x0 SWAP1 SLOAD SWAP1 PUSH2 0x100 EXP SWAP1 DIV PUSH20 0xFFFFFFFFFFFFFFFFFFFFFFFFFFFFFFFFFFFFFFFF AND PUSH20 0xFFFFFFFFFFFFFFFFFFFFFFFFFFFFFFFFFFFFFFFF AND PUSH20 0xFFFFFFFFFFFFFFFFFFFFFFFFFFFFFFFFFFFFFFFF AND DUP2 MSTORE POP POP DUP2 MSTORE PUSH1 0x20 ADD SWAP1 PUSH1 0x1 ADD SWAP1 PUSH3 0x2F9 JUMP JUMPDEST POP POP POP POP SWAP1 POP SWAP1 JUMP JUMPDEST PUSH2 0x3F53 DUP1 PUSH3 0xBC8 DUP4 CODECOPY ADD SWAP1 JUMP JUMPDEST DUP3 DUP1 SLOAD PUSH3 0x442 SWAP1 PUSH3 0xB91 JUMP JUMPDEST SWAP1 PUSH1 0x0 MSTORE PUSH1 0x20 PUSH1 0x0 KECCAK256 SWAP1 PUSH1 0x1F ADD PUSH1 0x20 SWAP1 DIV DUP2 ADD SWAP3 DUP3 PUSH3 0x466 JUMPI PUSH1 0x0 DUP6 SSTORE PUSH3 0x4B2 JUMP JUMPDEST DUP3 PUSH1 0x1F LT PUSH3 0x481 JUMPI DUP1 MLOAD PUSH1 0xFF NOT AND DUP4 DUP1 ADD OR DUP6 SSTORE PUSH3 0x4B2 JUMP JUMPDEST DUP3 DUP1 ADD PUSH1 0x1 ADD DUP6 SSTORE DUP3 ISZERO PUSH3 0x4B2 JUMPI SWAP2 DUP3 ADD JUMPDEST DUP3 DUP2 GT ISZERO PUSH3 0x4B1 JUMPI DUP3 MLOAD DUP3 SSTORE SWAP2 PUSH1 0x20 ADD SWAP2 SWAP1 PUSH1 0x1 ADD SWAP1 PUSH3 0x494 JUMP JUMPDEST JUMPDEST POP SWAP1 POP PUSH3 0x4C1 SWAP2 SWAP1 PUSH3 0x4C5 JUMP JUMPDEST POP SWAP1 JUMP JUMPDEST JUMPDEST DUP1 DUP3 GT ISZERO PUSH3 0x4E0 JUMPI PUSH1 0x0 DUP2 PUSH1 0x0 SWAP1 SSTORE POP PUSH1 0x1 ADD PUSH3 0x4C6 JUMP JUMPDEST POP SWAP1 JUMP JUMPDEST PUSH1 0x0 PUSH20 0xFFFFFFFFFFFFFFFFFFFFFFFFFFFFFFFFFFFFFFFF DUP3 AND SWAP1 POP SWAP2 SWAP1 POP JUMP JUMPDEST PUSH1 0x0 PUSH3 0x511 DUP3 PUSH3 0x4E4 JUMP JUMPDEST SWAP1 POP SWAP2 SWAP1 POP JUMP JUMPDEST PUSH3 0x523 DUP2 PUSH3 0x504 JUMP JUMPDEST DUP3 MSTORE POP POP JUMP JUMPDEST PUSH1 0x0 PUSH1 0x20 DUP3 ADD SWAP1 POP PUSH3 0x540 PUSH1 0x0 DUP4 ADD DUP5 PUSH3 0x518 JUMP JUMPDEST SWAP3 SWAP2 POP POP JUMP JUMPDEST PUSH1 0x0 PUSH1 0x40 MLOAD SWAP1 POP SWAP1 JUMP JUMPDEST PUSH1 0x0 DUP1 REVERT JUMPDEST PUSH1 0x0 DUP1 REVERT JUMPDEST PUSH1 0x0 DUP1 REVERT JUMPDEST PUSH1 0x0 DUP1 REVERT JUMPDEST PUSH1 0x0 PUSH1 0x1F NOT PUSH1 0x1F DUP4 ADD AND SWAP1 POP SWAP2 SWAP1 POP JUMP JUMPDEST PUSH32 0x4E487B7100000000000000000000000000000000000000000000000000000000 PUSH1 0x0 MSTORE PUSH1 0x41 PUSH1 0x4 MSTORE PUSH1 0x24 PUSH1 0x0 REVERT JUMPDEST PUSH3 0x5AF DUP3 PUSH3 0x564 JUMP JUMPDEST DUP2 ADD DUP2 DUP2 LT PUSH8 0xFFFFFFFFFFFFFFFF DUP3 GT OR ISZERO PUSH3 0x5D1 JUMPI PUSH3 0x5D0 PUSH3 0x575 JUMP JUMPDEST JUMPDEST DUP1 PUSH1 0x40 MSTORE POP POP POP JUMP JUMPDEST PUSH1 0x0 PUSH3 0x5E6 PUSH3 0x546 JUMP JUMPDEST SWAP1 POP PUSH3 0x5F4 DUP3 DUP3 PUSH3 0x5A4 JUMP JUMPDEST SWAP2 SWAP1 POP JUMP JUMPDEST PUSH1 0x0 PUSH8 0xFFFFFFFFFFFFFFFF DUP3 GT ISZERO PUSH3 0x617 JUMPI PUSH3 0x616 PUSH3 0x575 JUMP JUMPDEST JUMPDEST PUSH3 0x622 DUP3 PUSH3 0x564 JUMP JUMPDEST SWAP1 POP PUSH1 0x20 DUP2 ADD SWAP1 POP SWAP2 SWAP1 POP JUMP JUMPDEST DUP3 DUP2 DUP4 CALLDATACOPY PUSH1 0x0 DUP4 DUP4 ADD MSTORE POP POP POP JUMP JUMPDEST PUSH1 0x0 PUSH3 0x655 PUSH3 0x64F DUP5 PUSH3 0x5F9 JUMP JUMPDEST PUSH3 0x5DA JUMP JUMPDEST SWAP1 POP DUP3 DUP2 MSTORE PUSH1 0x20 DUP2 ADD DUP5 DUP5 DUP5 ADD GT ISZERO PUSH3 0x674 JUMPI PUSH3 0x673 PUSH3 0x55F JUMP JUMPDEST JUMPDEST PUSH3 0x681 DUP5 DUP3 DUP6 PUSH3 0x62F JUMP JUMPDEST POP SWAP4 SWAP3 POP POP POP JUMP JUMPDEST PUSH1 0x0 DUP3 PUSH1 0x1F DUP4 ADD SLT PUSH3 0x6A1 JUMPI PUSH3 0x6A0 PUSH3 0x55A JUMP JUMPDEST JUMPDEST DUP2 CALLDATALOAD PUSH3 0x6B3 DUP5 DUP3 PUSH1 0x20 DUP7 ADD PUSH3 0x63E JUMP JUMPDEST SWAP2 POP POP SWAP3 SWAP2 POP POP JUMP JUMPDEST PUSH1 0x0 PUSH3 0x6C9 DUP3 PUSH3 0x4E4 JUMP JUMPDEST SWAP1 POP SWAP2 SWAP1 POP JUMP JUMPDEST PUSH3 0x6DB DUP2 PUSH3 0x6BC JUMP JUMPDEST DUP2 EQ PUSH3 0x6E7 JUMPI PUSH1 0x0 DUP1 REVERT JUMPDEST POP JUMP JUMPDEST PUSH1 0x0 DUP2 CALLDATALOAD SWAP1 POP PUSH3 0x6FB DUP2 PUSH3 0x6D0 JUMP JUMPDEST SWAP3 SWAP2 POP POP JUMP JUMPDEST PUSH1 0x0 DUP2 SWAP1 POP SWAP2 SWAP1 POP JUMP JUMPDEST PUSH3 0x716 DUP2 PUSH3 0x701 JUMP JUMPDEST DUP2 EQ PUSH3 0x722 JUMPI PUSH1 0x0 DUP1 REVERT JUMPDEST POP JUMP JUMPDEST PUSH1 0x0 DUP2 CALLDATALOAD SWAP1 POP PUSH3 0x736 DUP2 PUSH3 0x70B JUMP JUMPDEST SWAP3 SWAP2 POP POP JUMP JUMPDEST PUSH1 0x0 DUP1 PUSH1 0x0 DUP1 PUSH1 0x0 PUSH1 0xA0 DUP7 DUP9 SUB SLT ISZERO PUSH3 0x75B JUMPI PUSH3 0x75A PUSH3 0x550 JUMP JUMPDEST JUMPDEST PUSH1 0x0 DUP7 ADD CALLDATALOAD PUSH8 0xFFFFFFFFFFFFFFFF DUP2 GT ISZERO PUSH3 0x77C JUMPI PUSH3 0x77B PUSH3 0x555 JUMP JUMPDEST JUMPDEST PUSH3 0x78A DUP9 DUP3 DUP10 ADD PUSH3 0x689 JUMP JUMPDEST SWAP6 POP POP PUSH1 0x20 DUP7 ADD CALLDATALOAD PUSH8 0xFFFFFFFFFFFFFFFF DUP2 GT ISZERO PUSH3 0x7AE JUMPI PUSH3 0x7AD PUSH3 0x555 JUMP JUMPDEST JUMPDEST PUSH3 0x7BC DUP9 DUP3 DUP10 ADD PUSH3 0x689 JUMP JUMPDEST SWAP5 POP POP PUSH1 0x40 PUSH3 0x7CF DUP9 DUP3 DUP10 ADD PUSH3 0x6EA JUMP JUMPDEST SWAP4 POP POP PUSH1 0x60 DUP7 ADD CALLDATALOAD PUSH8 0xFFFFFFFFFFFFFFFF DUP2 GT ISZERO PUSH3 0x7F3 JUMPI PUSH3 0x7F2 PUSH3 0x555 JUMP JUMPDEST JUMPDEST PUSH3 0x801 DUP9 DUP3 DUP10 ADD PUSH3 0x689 JUMP JUMPDEST SWAP3 POP POP PUSH1 0x80 PUSH3 0x814 DUP9 DUP3 DUP10 ADD PUSH3 0x725 JUMP JUMPDEST SWAP2 POP POP SWAP3 SWAP6 POP SWAP3 SWAP6 SWAP1 SWAP4 POP JUMP JUMPDEST PUSH1 0x0 DUP2 MLOAD SWAP1 POP SWAP2 SWAP1 POP JUMP JUMPDEST PUSH1 0x0 DUP3 DUP3 MSTORE PUSH1 0x20 DUP3 ADD SWAP1 POP SWAP3 SWAP2 POP POP JUMP JUMPDEST PUSH1 0x0 DUP2 SWAP1 POP PUSH1 0x20 DUP3 ADD SWAP1 POP SWAP2 SWAP1 POP JUMP JUMPDEST PUSH1 0x0 DUP2 MLOAD SWAP1 POP SWAP2 SWAP1 POP JUMP JUMPDEST PUSH1 0x0 DUP3 DUP3 MSTORE PUSH1 0x20 DUP3 ADD SWAP1 POP SWAP3 SWAP2 POP POP JUMP JUMPDEST PUSH1 0x0 JUMPDEST DUP4 DUP2 LT ISZERO PUSH3 0x889 JUMPI DUP1 DUP3 ADD MLOAD DUP2 DUP5 ADD MSTORE PUSH1 0x20 DUP2 ADD SWAP1 POP PUSH3 0x86C JUMP JUMPDEST DUP4 DUP2 GT ISZERO PUSH3 0x899 JUMPI PUSH1 0x0 DUP5 DUP5 ADD MSTORE JUMPDEST POP POP POP POP JUMP JUMPDEST PUSH1 0x0 PUSH3 0x8AC DUP3 PUSH3 0x84D JUMP JUMPDEST PUSH3 0x8B8 DUP2 DUP6 PUSH3 0x858 JUMP JUMPDEST SWAP4 POP PUSH3 0x8CA DUP2 DUP6 PUSH1 0x20 DUP7 ADD PUSH3 0x869 JUMP JUMPDEST PUSH3 0x8D5 DUP2 PUSH3 0x564 JUMP JUMPDEST DUP5 ADD SWAP2 POP POP SWAP3 SWAP2 POP POP JUMP JUMPDEST PUSH3 0x8EB DUP2 PUSH3 0x504 JUMP JUMPDEST DUP3 MSTORE POP POP JUMP JUMPDEST PUSH1 0x0 PUSH1 0x40 DUP4 ADD PUSH1 0x0 DUP4 ADD MLOAD DUP5 DUP3 SUB PUSH1 0x0 DUP7 ADD MSTORE PUSH3 0x910 DUP3 DUP3 PUSH3 0x89F JUMP JUMPDEST SWAP2 POP POP PUSH1 0x20 DUP4 ADD MLOAD PUSH3 0x927 PUSH1 0x20 DUP7 ADD DUP3 PUSH3 0x8E0 JUMP JUMPDEST POP DUP1 SWAP2 POP POP SWAP3 SWAP2 POP POP JUMP JUMPDEST PUSH1 0x0 PUSH3 0x940 DUP4 DUP4 PUSH3 0x8F1 JUMP JUMPDEST SWAP1 POP SWAP3 SWAP2 POP POP JUMP JUMPDEST PUSH1 0x0 PUSH1 0x20 DUP3 ADD SWAP1 POP SWAP2 SWAP1 POP JUMP JUMPDEST PUSH1 0x0 PUSH3 0x962 DUP3 PUSH3 0x821 JUMP JUMPDEST PUSH3 0x96E DUP2 DUP6 PUSH3 0x82C JUMP JUMPDEST SWAP4 POP DUP4 PUSH1 0x20 DUP3 MUL DUP6 ADD PUSH3 0x982 DUP6 PUSH3 0x83D JUMP JUMPDEST DUP1 PUSH1 0x0 JUMPDEST DUP6 DUP2 LT ISZERO PUSH3 0x9C4 JUMPI DUP5 DUP5 SUB DUP10 MSTORE DUP2 MLOAD PUSH3 0x9A2 DUP6 DUP3 PUSH3 0x932 JUMP JUMPDEST SWAP5 POP PUSH3 0x9AF DUP4 PUSH3 0x948 JUMP JUMPDEST SWAP3 POP PUSH1 0x20 DUP11 ADD SWAP10 POP POP PUSH1 0x1 DUP2 ADD SWAP1 POP PUSH3 0x986 JUMP JUMPDEST POP DUP3 SWAP8 POP DUP8 SWAP6 POP POP POP POP POP POP SWAP3 SWAP2 POP POP JUMP JUMPDEST PUSH1 0x0 PUSH1 0x20 DUP3 ADD SWAP1 POP DUP2 DUP2 SUB PUSH1 0x0 DUP4 ADD MSTORE PUSH3 0x9F2 DUP2 DUP5 PUSH3 0x955 JUMP JUMPDEST SWAP1 POP SWAP3 SWAP2 POP POP JUMP JUMPDEST PUSH1 0x0 DUP3 DUP3 MSTORE PUSH1 0x20 DUP3 ADD SWAP1 POP SWAP3 SWAP2 POP POP JUMP JUMPDEST PUSH32 0x4E6F74206F776E65720000000000000000000000000000000000000000000000 PUSH1 0x0 DUP3 ADD MSTORE POP JUMP JUMPDEST PUSH1 0x0 PUSH3 0xA43 PUSH1 0x9 DUP4 PUSH3 0x9FA JUMP JUMPDEST SWAP2 POP PUSH3 0xA50 DUP3 PUSH3 0xA0B JUMP JUMPDEST PUSH1 0x20 DUP3 ADD SWAP1 POP SWAP2 SWAP1 POP JUMP JUMPDEST PUSH1 0x0 PUSH1 0x20 DUP3 ADD SWAP1 POP DUP2 DUP2 SUB PUSH1 0x0 DUP4 ADD MSTORE PUSH3 0xA76 DUP2 PUSH3 0xA34 JUMP JUMPDEST SWAP1 POP SWAP2 SWAP1 POP JUMP JUMPDEST PUSH1 0x0 PUSH3 0xA8A DUP3 PUSH3 0x84D JUMP JUMPDEST PUSH3 0xA96 DUP2 DUP6 PUSH3 0x9FA JUMP JUMPDEST SWAP4 POP PUSH3 0xAA8 DUP2 DUP6 PUSH1 0x20 DUP7 ADD PUSH3 0x869 JUMP JUMPDEST PUSH3 0xAB3 DUP2 PUSH3 0x564 JUMP JUMPDEST DUP5 ADD SWAP2 POP POP SWAP3 SWAP2 POP POP JUMP JUMPDEST PUSH3 0xAC9 DUP2 PUSH3 0x6BC JUMP JUMPDEST DUP3 MSTORE POP POP JUMP JUMPDEST PUSH3 0xADA DUP2 PUSH3 0x701 JUMP JUMPDEST DUP3 MSTORE POP POP JUMP JUMPDEST PUSH1 0x0 PUSH1 0xC0 DUP3 ADD SWAP1 POP PUSH3 0xAF7 PUSH1 0x0 DUP4 ADD DUP10 PUSH3 0x518 JUMP JUMPDEST DUP2 DUP2 SUB PUSH1 0x20 DUP4 ADD MSTORE PUSH3 0xB0B DUP2 DUP9 PUSH3 0xA7D JUMP JUMPDEST SWAP1 POP DUP2 DUP2 SUB PUSH1 0x40 DUP4 ADD MSTORE PUSH3 0xB21 DUP2 DUP8 PUSH3 0xA7D JUMP JUMPDEST SWAP1 POP PUSH3 0xB32 PUSH1 0x60 DUP4 ADD DUP7 PUSH3 0xABE JUMP JUMPDEST DUP2 DUP2 SUB PUSH1 0x80 DUP4 ADD MSTORE PUSH3 0xB46 DUP2 DUP6 PUSH3 0xA7D JUMP JUMPDEST SWAP1 POP PUSH3 0xB57 PUSH1 0xA0 DUP4 ADD DUP5 PUSH3 0xACF JUMP JUMPDEST SWAP8 SWAP7 POP POP POP POP POP POP POP JUMP JUMPDEST PUSH32 0x4E487B7100000000000000000000000000000000000000000000000000000000 PUSH1 0x0 MSTORE PUSH1 0x22 PUSH1 0x4 MSTORE PUSH1 0x24 PUSH1 0x0 REVERT JUMPDEST PUSH1 0x0 PUSH1 0x2 DUP3 DIV SWAP1 POP PUSH1 0x1 DUP3 AND DUP1 PUSH3 0xBAA JUMPI PUSH1 0x7F DUP3 AND SWAP2 POP JUMPDEST PUSH1 0x20 DUP3 LT DUP2 EQ ISZERO PUSH3 0xBC1 JUMPI PUSH3 0xBC0 PUSH3 0xB62 JUMP JUMPDEST JUMPDEST POP SWAP2 SWAP1 POP JUMP INVALID PUSH1 0x80 PUSH1 0x40 MSTORE CALLVALUE DUP1 ISZERO PUSH3 0x11 JUMPI PUSH1 0x0 DUP1 REVERT JUMPDEST POP PUSH1 0x40 MLOAD PUSH3 0x3F53 CODESIZE SUB DUP1 PUSH3 0x3F53 DUP4 CODECOPY DUP2 DUP2 ADD PUSH1 0x40 MSTORE DUP2 ADD SWAP1 PUSH3 0x37 SWAP2 SWAP1 PUSH3 0x47A JUMP JUMPDEST DUP4 PUSH3 0x49 DUP2 PUSH3 0x12C PUSH1 0x20 SHL PUSH1 0x20 SHR JUMP JUMPDEST POP DUP6 PUSH1 0x3 PUSH1 0x0 PUSH2 0x100 EXP DUP2 SLOAD DUP2 PUSH20 0xFFFFFFFFFFFFFFFFFFFFFFFFFFFFFFFFFFFFFFFF MUL NOT AND SWAP1 DUP4 PUSH20 0xFFFFFFFFFFFFFFFFFFFFFFFFFFFFFFFFFFFFFFFF AND MUL OR SWAP1 SSTORE POP DUP5 PUSH1 0x4 SWAP1 DUP1 MLOAD SWAP1 PUSH1 0x20 ADD SWAP1 PUSH3 0xA3 SWAP3 SWAP2 SWAP1 PUSH3 0x148 JUMP JUMPDEST POP PUSH1 0x1 PUSH1 0x5 PUSH1 0x0 PUSH2 0x100 EXP DUP2 SLOAD DUP2 PUSH1 0xFF MUL NOT AND SWAP1 DUP4 ISZERO ISZERO MUL OR SWAP1 SSTORE POP DUP3 PUSH1 0x5 PUSH1 0x1 PUSH2 0x100 EXP DUP2 SLOAD DUP2 PUSH20 0xFFFFFFFFFFFFFFFFFFFFFFFFFFFFFFFFFFFFFFFF MUL NOT AND SWAP1 DUP4 PUSH20 0xFFFFFFFFFFFFFFFFFFFFFFFFFFFFFFFFFFFFFFFF AND MUL OR SWAP1 SSTORE POP DUP2 PUSH1 0x7 SWAP1 DUP1 MLOAD SWAP1 PUSH1 0x20 ADD SWAP1 PUSH3 0x118 SWAP3 SWAP2 SWAP1 PUSH3 0x148 JUMP JUMPDEST POP DUP1 PUSH1 0x6 DUP2 SWAP1 SSTORE POP POP POP POP POP POP POP PUSH3 0x5D8 JUMP JUMPDEST DUP1 PUSH1 0x2 SWAP1 DUP1 MLOAD SWAP1 PUSH1 0x20 ADD SWAP1 PUSH3 0x144 SWAP3 SWAP2 SWAP1 PUSH3 0x148 JUMP JUMPDEST POP POP JUMP JUMPDEST DUP3 DUP1 SLOAD PUSH3 0x156 SWAP1 PUSH3 0x5A2 JUMP JUMPDEST SWAP1 PUSH1 0x0 MSTORE PUSH1 0x20 PUSH1 0x0 KECCAK256 SWAP1 PUSH1 0x1F ADD PUSH1 0x20 SWAP1 DIV DUP2 ADD SWAP3 DUP3 PUSH3 0x17A JUMPI PUSH1 0x0 DUP6 SSTORE PUSH3 0x1C6 JUMP JUMPDEST DUP3 PUSH1 0x1F LT PUSH3 0x195 JUMPI DUP1 MLOAD PUSH1 0xFF NOT AND DUP4 DUP1 ADD OR DUP6 SSTORE PUSH3 0x1C6 JUMP JUMPDEST DUP3 DUP1 ADD PUSH1 0x1 ADD DUP6 SSTORE DUP3 ISZERO PUSH3 0x1C6 JUMPI SWAP2 DUP3 ADD JUMPDEST DUP3 DUP2 GT ISZERO PUSH3 0x1C5 JUMPI DUP3 MLOAD DUP3 SSTORE SWAP2 PUSH1 0x20 ADD SWAP2 SWAP1 PUSH1 0x1 ADD SWAP1 PUSH3 0x1A8 JUMP JUMPDEST JUMPDEST POP SWAP1 POP PUSH3 0x1D5 SWAP2 SWAP1 PUSH3 0x1D9 JUMP JUMPDEST POP SWAP1 JUMP JUMPDEST JUMPDEST DUP1 DUP3 GT ISZERO PUSH3 0x1F4 JUMPI PUSH1 0x0 DUP2 PUSH1 0x0 SWAP1 SSTORE POP PUSH1 0x1 ADD PUSH3 0x1DA JUMP JUMPDEST POP SWAP1 JUMP JUMPDEST PUSH1 0x0 PUSH1 0x40 MLOAD SWAP1 POP SWAP1 JUMP JUMPDEST PUSH1 0x0 DUP1 REVERT JUMPDEST PUSH1 0x0 DUP1 REVERT JUMPDEST PUSH1 0x0 PUSH20 0xFFFFFFFFFFFFFFFFFFFFFFFFFFFFFFFFFFFFFFFF DUP3 AND SWAP1 POP SWAP2 SWAP1 POP JUMP JUMPDEST PUSH1 0x0 PUSH3 0x239 DUP3 PUSH3 0x20C JUMP JUMPDEST SWAP1 POP SWAP2 SWAP1 POP JUMP JUMPDEST PUSH3 0x24B DUP2 PUSH3 0x22C JUMP JUMPDEST DUP2 EQ PUSH3 0x257 JUMPI PUSH1 0x0 DUP1 REVERT JUMPDEST POP JUMP JUMPDEST PUSH1 0x0 DUP2 MLOAD SWAP1 POP PUSH3 0x26B DUP2 PUSH3 0x240 JUMP JUMPDEST SWAP3 SWAP2 POP POP JUMP JUMPDEST PUSH1 0x0 DUP1 REVERT JUMPDEST PUSH1 0x0 DUP1 REVERT JUMPDEST PUSH1 0x0 PUSH1 0x1F NOT PUSH1 0x1F DUP4 ADD AND SWAP1 POP SWAP2 SWAP1 POP JUMP JUMPDEST PUSH32 0x4E487B7100000000000000000000000000000000000000000000000000000000 PUSH1 0x0 MSTORE PUSH1 0x41 PUSH1 0x4 MSTORE PUSH1 0x24 PUSH1 0x0 REVERT JUMPDEST PUSH3 0x2C6 DUP3 PUSH3 0x27B JUMP JUMPDEST DUP2 ADD DUP2 DUP2 LT PUSH8 0xFFFFFFFFFFFFFFFF DUP3 GT OR ISZERO PUSH3 0x2E8 JUMPI PUSH3 0x2E7 PUSH3 0x28C JUMP JUMPDEST JUMPDEST DUP1 PUSH1 0x40 MSTORE POP POP POP JUMP JUMPDEST PUSH1 0x0 PUSH3 0x2FD PUSH3 0x1F8 JUMP JUMPDEST SWAP1 POP PUSH3 0x30B DUP3 DUP3 PUSH3 0x2BB JUMP JUMPDEST SWAP2 SWAP1 POP JUMP JUMPDEST PUSH1 0x0 PUSH8 0xFFFFFFFFFFFFFFFF DUP3 GT ISZERO PUSH3 0x32E JUMPI PUSH3 0x32D PUSH3 0x28C JUMP JUMPDEST JUMPDEST PUSH3 0x339 DUP3 PUSH3 0x27B JUMP JUMPDEST SWAP1 POP PUSH1 0x20 DUP2 ADD SWAP1 POP SWAP2 SWAP1 POP JUMP JUMPDEST PUSH1 0x0 JUMPDEST DUP4 DUP2 LT ISZERO PUSH3 0x366 JUMPI DUP1 DUP3 ADD MLOAD DUP2 DUP5 ADD MSTORE PUSH1 0x20 DUP2 ADD SWAP1 POP PUSH3 0x349 JUMP JUMPDEST DUP4 DUP2 GT ISZERO PUSH3 0x376 JUMPI PUSH1 0x0 DUP5 DUP5 ADD MSTORE JUMPDEST POP POP POP POP JUMP JUMPDEST PUSH1 0x0 PUSH3 0x393 PUSH3 0x38D DUP5 PUSH3 0x310 JUMP JUMPDEST PUSH3 0x2F1 JUMP JUMPDEST SWAP1 POP DUP3 DUP2 MSTORE PUSH1 0x20 DUP2 ADD DUP5 DUP5 DUP5 ADD GT ISZERO PUSH3 0x3B2 JUMPI PUSH3 0x3B1 PUSH3 0x276 JUMP JUMPDEST JUMPDEST PUSH3 0x3BF DUP5 DUP3 DUP6 PUSH3 0x346 JUMP JUMPDEST POP SWAP4 SWAP3 POP POP POP JUMP JUMPDEST PUSH1 0x0 DUP3 PUSH1 0x1F DUP4 ADD SLT PUSH3 0x3DF JUMPI PUSH3 0x3DE PUSH3 0x271 JUMP JUMPDEST JUMPDEST DUP2 MLOAD PUSH3 0x3F1 DUP5 DUP3 PUSH1 0x20 DUP7 ADD PUSH3 0x37C JUMP JUMPDEST SWAP2 POP POP SWAP3 SWAP2 POP POP JUMP JUMPDEST PUSH1 0x0 PUSH3 0x407 DUP3 PUSH3 0x20C JUMP JUMPDEST SWAP1 POP SWAP2 SWAP1 POP JUMP JUMPDEST PUSH3 0x419 DUP2 PUSH3 0x3FA JUMP JUMPDEST DUP2 EQ PUSH3 0x425 JUMPI PUSH1 0x0 DUP1 REVERT JUMPDEST POP JUMP JUMPDEST PUSH1 0x0 DUP2 MLOAD SWAP1 POP PUSH3 0x439 DUP2 PUSH3 0x40E JUMP JUMPDEST SWAP3 SWAP2 POP POP JUMP JUMPDEST PUSH1 0x0 DUP2 SWAP1 POP SWAP2 SWAP1 POP JUMP JUMPDEST PUSH3 0x454 DUP2 PUSH3 0x43F JUMP JUMPDEST DUP2 EQ PUSH3 0x460 JUMPI PUSH1 0x0 DUP1 REVERT JUMPDEST POP JUMP JUMPDEST PUSH1 0x0 DUP2 MLOAD SWAP1 POP PUSH3 0x474 DUP2 PUSH3 0x449 JUMP JUMPDEST SWAP3 SWAP2 POP POP JUMP JUMPDEST PUSH1 0x0 DUP1 PUSH1 0x0 DUP1 PUSH1 0x0 DUP1 PUSH1 0xC0 DUP8 DUP10 SUB SLT ISZERO PUSH3 0x49A JUMPI PUSH3 0x499 PUSH3 0x202 JUMP JUMPDEST JUMPDEST PUSH1 0x0 PUSH3 0x4AA DUP10 DUP3 DUP11 ADD PUSH3 0x25A JUMP JUMPDEST SWAP7 POP POP PUSH1 0x20 DUP8 ADD MLOAD PUSH8 0xFFFFFFFFFFFFFFFF DUP2 GT ISZERO PUSH3 0x4CE JUMPI PUSH3 0x4CD PUSH3 0x207 JUMP JUMPDEST JUMPDEST PUSH3 0x4DC DUP10 DUP3 DUP11 ADD PUSH3 0x3C7 JUMP JUMPDEST SWAP6 POP POP PUSH1 0x40 DUP8 ADD MLOAD PUSH8 0xFFFFFFFFFFFFFFFF DUP2 GT ISZERO PUSH3 0x500 JUMPI PUSH3 0x4FF PUSH3 0x207 JUMP JUMPDEST JUMPDEST PUSH3 0x50E DUP10 DUP3 DUP11 ADD PUSH3 0x3C7 JUMP JUMPDEST SWAP5 POP POP PUSH1 0x60 PUSH3 0x521 DUP10 DUP3 DUP11 ADD PUSH3 0x428 JUMP JUMPDEST SWAP4 POP POP PUSH1 0x80 DUP8 ADD MLOAD PUSH8 0xFFFFFFFFFFFFFFFF DUP2 GT ISZERO PUSH3 0x545 JUMPI PUSH3 0x544 PUSH3 0x207 JUMP JUMPDEST JUMPDEST PUSH3 0x553 DUP10 DUP3 DUP11 ADD PUSH3 0x3C7 JUMP JUMPDEST SWAP3 POP POP PUSH1 0xA0 PUSH3 0x566 DUP10 DUP3 DUP11 ADD PUSH3 0x463 JUMP JUMPDEST SWAP2 POP POP SWAP3 SWAP6 POP SWAP3 SWAP6 POP SWAP3 SWAP6 JUMP JUMPDEST PUSH32 0x4E487B7100000000000000000000000000000000000000000000000000000000 PUSH1 0x0 MSTORE PUSH1 0x22 PUSH1 0x4 MSTORE PUSH1 0x24 PUSH1 0x0 REVERT JUMPDEST PUSH1 0x0 PUSH1 0x2 DUP3 DIV SWAP1 POP PUSH1 0x1 DUP3 AND DUP1 PUSH3 0x5BB JUMPI PUSH1 0x7F DUP3 AND SWAP2 POP JUMPDEST PUSH1 0x20 DUP3 LT DUP2 EQ ISZERO PUSH3 0x5D2 JUMPI PUSH3 0x5D1 PUSH3 0x573 JUMP JUMPDEST JUMPDEST POP SWAP2 SWAP1 POP JUMP JUMPDEST PUSH2 0x396B DUP1 PUSH3 0x5E8 PUSH1 0x0 CODECOPY PUSH1 0x0 RETURN INVALID PUSH1 0x80 PUSH1 0x40 MSTORE PUSH1 0x4 CALLDATASIZE LT PUSH2 0x122 JUMPI PUSH1 0x0 CALLDATALOAD PUSH1 0xE0 SHR DUP1 PUSH4 0x88097500 GT PUSH2 0xA0 JUMPI DUP1 PUSH4 0xCF08FED5 GT PUSH2 0x64 JUMPI DUP1 PUSH4 0xCF08FED5 EQ PUSH2 0x4FB JUMPI DUP1 PUSH4 0xD8501492 EQ PUSH2 0x526 JUMPI DUP1 PUSH4 0xE985E9C5 EQ PUSH2 0x552 JUMPI DUP1 PUSH4 0xF242432A EQ PUSH2 0x58F JUMPI DUP1 PUSH4 0xF7260D3E EQ PUSH2 0x5B8 JUMPI PUSH2 0x23C JUMP JUMPDEST DUP1 PUSH4 0x88097500 EQ PUSH2 0x428 JUMPI DUP1 PUSH4 0x8DA5CB5B EQ PUSH2 0x451 JUMPI DUP1 PUSH4 0x8F620487 EQ PUSH2 0x47C JUMPI DUP1 PUSH4 0x96F300D4 EQ PUSH2 0x4A7 JUMPI DUP1 PUSH4 0xA22CB465 EQ PUSH2 0x4D2 JUMPI PUSH2 0x23C JUMP JUMPDEST DUP1 PUSH4 0x200D2ED2 GT PUSH2 0xE7 JUMPI DUP1 PUSH4 0x200D2ED2 EQ PUSH2 0x34E JUMPI DUP1 PUSH4 0x2EB2C2D6 EQ PUSH2 0x379 JUMPI DUP1 PUSH4 0x4ABFA163 EQ PUSH2 0x3A2 JUMPI DUP1 PUSH4 0x4E1273F4 EQ PUSH2 0x3E1 JUMPI DUP1 PUSH4 0x71AAC7F9 EQ PUSH2 0x41E JUMPI PUSH2 0x23C JUMP JUMPDEST DUP1 PUSH3 0xFDD58E EQ PUSH2 0x241 JUMPI DUP1 PUSH4 0x1FFC9A7 EQ PUSH2 0x27E JUMPI DUP1 PUSH4 0x724FDA9 EQ PUSH2 0x2BB JUMPI DUP1 PUSH4 0xE89341C EQ PUSH2 0x2E6 JUMPI DUP1 PUSH4 0x12065FE0 EQ PUSH2 0x323 JUMPI PUSH2 0x23C JUMP JUMPDEST CALLDATASIZE PUSH2 0x23C JUMPI PUSH1 0x1 ISZERO ISZERO PUSH1 0x5 PUSH1 0x0 SWAP1 SLOAD SWAP1 PUSH2 0x100 EXP SWAP1 DIV PUSH1 0xFF AND ISZERO ISZERO EQ DUP1 ISZERO PUSH2 0x14A JUMPI POP PUSH1 0x0 CALLVALUE GT JUMPDEST PUSH2 0x189 JUMPI PUSH1 0x40 MLOAD PUSH32 0x8C379A000000000000000000000000000000000000000000000000000000000 DUP2 MSTORE PUSH1 0x4 ADD PUSH2 0x180 SWAP1 PUSH2 0x2225 JUMP JUMPDEST PUSH1 0x40 MLOAD DUP1 SWAP2 SUB SWAP1 REVERT JUMPDEST PUSH2 0x1A5 CALLER PUSH1 0x1 DUP1 PUSH1 0x40 MLOAD DUP1 PUSH1 0x20 ADD PUSH1 0x40 MSTORE DUP1 PUSH1 0x0 DUP2 MSTORE POP PUSH2 0x5E3 JUMP JUMPDEST PUSH1 0x8 PUSH1 0x1 ADD SLOAD CALLVALUE GT ISZERO PUSH2 0x201 JUMPI CALLER PUSH1 0x8 PUSH1 0x0 ADD PUSH1 0x0 PUSH2 0x100 EXP DUP2 SLOAD DUP2 PUSH20 0xFFFFFFFFFFFFFFFFFFFFFFFFFFFFFFFFFFFFFFFF MUL NOT AND SWAP1 DUP4 PUSH20 0xFFFFFFFFFFFFFFFFFFFFFFFFFFFFFFFFFFFFFFFF AND MUL OR SWAP1 SSTORE POP CALLVALUE PUSH1 0x8 PUSH1 0x1 ADD DUP2 SWAP1 SSTORE POP JUMPDEST PUSH32 0x88A5966D370B9919B20F3E2C13FF65706F196A4E32CC2C12BF57088F88525874 CALLER CALLVALUE PUSH1 0x40 MLOAD PUSH2 0x232 SWAP3 SWAP2 SWAP1 PUSH2 0x229F JUMP JUMPDEST PUSH1 0x40 MLOAD DUP1 SWAP2 SUB SWAP1 LOG1 STOP JUMPDEST PUSH1 0x0 DUP1 REVERT JUMPDEST CALLVALUE DUP1 ISZERO PUSH2 0x24D JUMPI PUSH1 0x0 DUP1 REVERT JUMPDEST POP PUSH2 0x268 PUSH1 0x4 DUP1 CALLDATASIZE SUB DUP2 ADD SWAP1 PUSH2 0x263 SWAP2 SWAP1 PUSH2 0x2334 JUMP JUMPDEST PUSH2 0x794 JUMP JUMPDEST PUSH1 0x40 MLOAD PUSH2 0x275 SWAP2 SWAP1 PUSH2 0x2374 JUMP JUMPDEST PUSH1 0x40 MLOAD DUP1 SWAP2 SUB SWAP1 RETURN JUMPDEST CALLVALUE DUP1 ISZERO PUSH2 0x28A JUMPI PUSH1 0x0 DUP1 REVERT JUMPDEST POP PUSH2 0x2A5 PUSH1 0x4 DUP1 CALLDATASIZE SUB DUP2 ADD SWAP1 PUSH2 0x2A0 SWAP2 SWAP1 PUSH2 0x23E7 JUMP JUMPDEST PUSH2 0x85D JUMP JUMPDEST PUSH1 0x40 MLOAD PUSH2 0x2B2 SWAP2 SWAP1 PUSH2 0x242F JUMP JUMPDEST PUSH1 0x40 MLOAD DUP1 SWAP2 SUB SWAP1 RETURN JUMPDEST CALLVALUE DUP1 ISZERO PUSH2 0x2C7 JUMPI PUSH1 0x0 DUP1 REVERT JUMPDEST POP PUSH2 0x2D0 PUSH2 0x93F JUMP JUMPDEST PUSH1 0x40 MLOAD PUSH2 0x2DD SWAP2 SWAP1 PUSH2 0x24D2 JUMP JUMPDEST PUSH1 0x40 MLOAD DUP1 SWAP2 SUB SWAP1 RETURN JUMPDEST CALLVALUE DUP1 ISZERO PUSH2 0x2F2 JUMPI PUSH1 0x0 DUP1 REVERT JUMPDEST POP PUSH2 0x30D PUSH1 0x4 DUP1 CALLDATASIZE SUB DUP2 ADD SWAP1 PUSH2 0x308 SWAP2 SWAP1 PUSH2 0x24F4 JUMP JUMPDEST PUSH2 0x9CD JUMP JUMPDEST PUSH1 0x40 MLOAD PUSH2 0x31A SWAP2 SWAP1 PUSH2 0x24D2 JUMP JUMPDEST PUSH1 0x40 MLOAD DUP1 SWAP2 SUB SWAP1 RETURN JUMPDEST CALLVALUE DUP1 ISZERO PUSH2 0x32F JUMPI PUSH1 0x0 DUP1 REVERT JUMPDEST POP PUSH2 0x338 PUSH2 0xA61 JUMP JUMPDEST PUSH1 0x40 MLOAD PUSH2 0x345 SWAP2 SWAP1 PUSH2 0x2374 JUMP JUMPDEST PUSH1 0x40 MLOAD DUP1 SWAP2 SUB SWAP1 RETURN JUMPDEST CALLVALUE DUP1 ISZERO PUSH2 0x35A JUMPI PUSH1 0x0 DUP1 REVERT JUMPDEST POP PUSH2 0x363 PUSH2 0xA69 JUMP JUMPDEST PUSH1 0x40 MLOAD PUSH2 0x370 SWAP2 SWAP1 PUSH2 0x242F JUMP JUMPDEST PUSH1 0x40 MLOAD DUP1 SWAP2 SUB SWAP1 RETURN JUMPDEST CALLVALUE DUP1 ISZERO PUSH2 0x385 JUMPI PUSH1 0x0 DUP1 REVERT JUMPDEST POP PUSH2 0x3A0 PUSH1 0x4 DUP1 CALLDATASIZE SUB DUP2 ADD SWAP1 PUSH2 0x39B SWAP2 SWAP1 PUSH2 0x271E JUMP JUMPDEST PUSH2 0xA7C JUMP JUMPDEST STOP JUMPDEST CALLVALUE DUP1 ISZERO PUSH2 0x3AE JUMPI PUSH1 0x0 DUP1 REVERT JUMPDEST POP PUSH2 0x3C9 PUSH1 0x4 DUP1 CALLDATASIZE SUB DUP2 ADD SWAP1 PUSH2 0x3C4 SWAP2 SWAP1 PUSH2 0x24F4 JUMP JUMPDEST PUSH2 0xB1D JUMP JUMPDEST PUSH1 0x40 MLOAD PUSH2 0x3D8 SWAP4 SWAP3 SWAP2 SWAP1 PUSH2 0x27ED JUMP JUMPDEST PUSH1 0x40 MLOAD DUP1 SWAP2 SUB SWAP1 RETURN JUMPDEST CALLVALUE DUP1 ISZERO PUSH2 0x3ED JUMPI PUSH1 0x0 DUP1 REVERT JUMPDEST POP PUSH2 0x408 PUSH1 0x4 DUP1 CALLDATASIZE SUB DUP2 ADD SWAP1 PUSH2 0x403 SWAP2 SWAP1 PUSH2 0x28F5 JUMP JUMPDEST PUSH2 0xC87 JUMP JUMPDEST PUSH1 0x40 MLOAD PUSH2 0x415 SWAP2 SWAP1 PUSH2 0x2A2B JUMP JUMPDEST PUSH1 0x40 MLOAD DUP1 SWAP2 SUB SWAP1 RETURN JUMPDEST PUSH2 0x426 PUSH2 0xDA0 JUMP JUMPDEST STOP JUMPDEST CALLVALUE DUP1 ISZERO PUSH2 0x434 JUMPI PUSH1 0x0 DUP1 REVERT JUMPDEST POP PUSH2 0x44F PUSH1 0x4 DUP1 CALLDATASIZE SUB DUP2 ADD SWAP1 PUSH2 0x44A SWAP2 SWAP1 PUSH2 0x2AEE JUMP JUMPDEST PUSH2 0xF63 JUMP JUMPDEST STOP JUMPDEST CALLVALUE DUP1 ISZERO PUSH2 0x45D JUMPI PUSH1 0x0 DUP1 REVERT JUMPDEST POP PUSH2 0x466 PUSH2 0x10D7 JUMP JUMPDEST PUSH1 0x40 MLOAD PUSH2 0x473 SWAP2 SWAP1 PUSH2 0x2B79 JUMP JUMPDEST PUSH1 0x40 MLOAD DUP1 SWAP2 SUB SWAP1 RETURN JUMPDEST CALLVALUE DUP1 ISZERO PUSH2 0x488 JUMPI PUSH1 0x0 DUP1 REVERT JUMPDEST POP PUSH2 0x491 PUSH2 0x10FD JUMP JUMPDEST PUSH1 0x40 MLOAD PUSH2 0x49E SWAP2 SWAP1 PUSH2 0x2374 JUMP JUMPDEST PUSH1 0x40 MLOAD DUP1 SWAP2 SUB SWAP1 RETURN JUMPDEST CALLVALUE DUP1 ISZERO PUSH2 0x4B3 JUMPI PUSH1 0x0 DUP1 REVERT JUMPDEST POP PUSH2 0x4BC PUSH2 0x1103 JUMP JUMPDEST PUSH1 0x40 MLOAD PUSH2 0x4C9 SWAP2 SWAP1 PUSH2 0x2D06 JUMP JUMPDEST PUSH1 0x40 MLOAD DUP1 SWAP2 SUB SWAP1 RETURN JUMPDEST CALLVALUE DUP1 ISZERO PUSH2 0x4DE JUMPI PUSH1 0x0 DUP1 REVERT JUMPDEST POP PUSH2 0x4F9 PUSH1 0x4 DUP1 CALLDATASIZE SUB DUP2 ADD SWAP1 PUSH2 0x4F4 SWAP2 SWAP1 PUSH2 0x2D54 JUMP JUMPDEST PUSH2 0x12DC JUMP JUMPDEST STOP JUMPDEST CALLVALUE DUP1 ISZERO PUSH2 0x507 JUMPI PUSH1 0x0 DUP1 REVERT JUMPDEST POP PUSH2 0x510 PUSH2 0x12F2 JUMP JUMPDEST PUSH1 0x40 MLOAD PUSH2 0x51D SWAP2 SWAP1 PUSH2 0x24D2 JUMP JUMPDEST PUSH1 0x40 MLOAD DUP1 SWAP2 SUB SWAP1 RETURN JUMPDEST CALLVALUE DUP1 ISZERO PUSH2 0x532 JUMPI PUSH1 0x0 DUP1 REVERT JUMPDEST POP PUSH2 0x53B PUSH2 0x1380 JUMP JUMPDEST PUSH1 0x40 MLOAD PUSH2 0x549 SWAP3 SWAP2 SWAP1 PUSH2 0x229F JUMP JUMPDEST PUSH1 0x40 MLOAD DUP1 SWAP2 SUB SWAP1 RETURN JUMPDEST CALLVALUE DUP1 ISZERO PUSH2 0x55E JUMPI PUSH1 0x0 DUP1 REVERT JUMPDEST POP PUSH2 0x579 PUSH1 0x4 DUP1 CALLDATASIZE SUB DUP2 ADD SWAP1 PUSH2 0x574 SWAP2 SWAP1 PUSH2 0x2D94 JUMP JUMPDEST PUSH2 0x13B2 JUMP JUMPDEST PUSH1 0x40 MLOAD PUSH2 0x586 SWAP2 SWAP1 PUSH2 0x242F JUMP JUMPDEST PUSH1 0x40 MLOAD DUP1 SWAP2 SUB SWAP1 RETURN JUMPDEST CALLVALUE DUP1 ISZERO PUSH2 0x59B JUMPI PUSH1 0x0 DUP1 REVERT JUMPDEST POP PUSH2 0x5B6 PUSH1 0x4 DUP1 CALLDATASIZE SUB DUP2 ADD SWAP1 PUSH2 0x5B1 SWAP2 SWAP1 PUSH2 0x2DD4 JUMP JUMPDEST PUSH2 0x1446 JUMP JUMPDEST STOP JUMPDEST CALLVALUE DUP1 ISZERO PUSH2 0x5C4 JUMPI PUSH1 0x0 DUP1 REVERT JUMPDEST POP PUSH2 0x5CD PUSH2 0x14E7 JUMP JUMPDEST PUSH1 0x40 MLOAD PUSH2 0x5DA SWAP2 SWAP1 PUSH2 0x2E8C JUMP JUMPDEST PUSH1 0x40 MLOAD DUP1 SWAP2 SUB SWAP1 RETURN JUMPDEST PUSH1 0x0 PUSH20 0xFFFFFFFFFFFFFFFFFFFFFFFFFFFFFFFFFFFFFFFF AND DUP5 PUSH20 0xFFFFFFFFFFFFFFFFFFFFFFFFFFFFFFFFFFFFFFFF AND EQ ISZERO PUSH2 0x653 JUMPI PUSH1 0x40 MLOAD PUSH32 0x8C379A000000000000000000000000000000000000000000000000000000000 DUP2 MSTORE PUSH1 0x4 ADD PUSH2 0x64A SWAP1 PUSH2 0x2F19 JUMP JUMPDEST PUSH1 0x40 MLOAD DUP1 SWAP2 SUB SWAP1 REVERT JUMPDEST PUSH1 0x0 PUSH2 0x65D PUSH2 0x150D JUMP JUMPDEST SWAP1 POP PUSH1 0x0 PUSH2 0x66A DUP6 PUSH2 0x1515 JUMP JUMPDEST SWAP1 POP PUSH1 0x0 PUSH2 0x677 DUP6 PUSH2 0x1515 JUMP JUMPDEST SWAP1 POP PUSH2 0x688 DUP4 PUSH1 0x0 DUP10 DUP6 DUP6 DUP10 PUSH2 0x158F JUMP JUMPDEST DUP5 PUSH1 0x0 DUP1 DUP9 DUP2 MSTORE PUSH1 0x20 ADD SWAP1 DUP2 MSTORE PUSH1 0x20 ADD PUSH1 0x0 KECCAK256 PUSH1 0x0 DUP10 PUSH20 0xFFFFFFFFFFFFFFFFFFFFFFFFFFFFFFFFFFFFFFFF AND PUSH20 0xFFFFFFFFFFFFFFFFFFFFFFFFFFFFFFFFFFFFFFFF AND DUP2 MSTORE PUSH1 0x20 ADD SWAP1 DUP2 MSTORE PUSH1 0x20 ADD PUSH1 0x0 KECCAK256 PUSH1 0x0 DUP3 DUP3 SLOAD PUSH2 0x6E7 SWAP2 SWAP1 PUSH2 0x2F68 JUMP JUMPDEST SWAP3 POP POP DUP2 SWAP1 SSTORE POP DUP7 PUSH20 0xFFFFFFFFFFFFFFFFFFFFFFFFFFFFFFFFFFFFFFFF AND PUSH1 0x0 PUSH20 0xFFFFFFFFFFFFFFFFFFFFFFFFFFFFFFFFFFFFFFFF AND DUP5 PUSH20 0xFFFFFFFFFFFFFFFFFFFFFFFFFFFFFFFFFFFFFFFF AND PUSH32 0xC3D58168C5AE7397731D063D5BBF3D657854427343F4C083240F7AACAA2D0F62 DUP10 DUP10 PUSH1 0x40 MLOAD PUSH2 0x765 SWAP3 SWAP2 SWAP1 PUSH2 0x2FBE JUMP JUMPDEST PUSH1 0x40 MLOAD DUP1 SWAP2 SUB SWAP1 LOG4 PUSH2 0x77C DUP4 PUSH1 0x0 DUP10 DUP6 DUP6 DUP10 PUSH2 0x1597 JUMP JUMPDEST PUSH2 0x78B DUP4 PUSH1 0x0 DUP10 DUP10 DUP10 DUP10 PUSH2 0x159F JUMP JUMPDEST POP POP POP POP POP POP POP JUMP JUMPDEST PUSH1 0x0 DUP1 PUSH20 0xFFFFFFFFFFFFFFFFFFFFFFFFFFFFFFFFFFFFFFFF AND DUP4 PUSH20 0xFFFFFFFFFFFFFFFFFFFFFFFFFFFFFFFFFFFFFFFF AND EQ ISZERO PUSH2 0x805 JUMPI PUSH1 0x40 MLOAD PUSH32 0x8C379A000000000000000000000000000000000000000000000000000000000 DUP2 MSTORE PUSH1 0x4 ADD PUSH2 0x7FC SWAP1 PUSH2 0x3059 JUMP JUMPDEST PUSH1 0x40 MLOAD DUP1 SWAP2 SUB SWAP1 REVERT JUMPDEST PUSH1 0x0 DUP1 DUP4 DUP2 MSTORE PUSH1 0x20 ADD SWAP1 DUP2 MSTORE PUSH1 0x20 ADD PUSH1 0x0 KECCAK256 PUSH1 0x0 DUP5 PUSH20 0xFFFFFFFFFFFFFFFFFFFFFFFFFFFFFFFFFFFFFFFF AND PUSH20 0xFFFFFFFFFFFFFFFFFFFFFFFFFFFFFFFFFFFFFFFF AND DUP2 MSTORE PUSH1 0x20 ADD SWAP1 DUP2 MSTORE PUSH1 0x20 ADD PUSH1 0x0 KECCAK256 SLOAD SWAP1 POP SWAP3 SWAP2 POP POP JUMP JUMPDEST PUSH1 0x0 PUSH32 0xD9B67A2600000000000000000000000000000000000000000000000000000000 PUSH28 0xFFFFFFFFFFFFFFFFFFFFFFFFFFFFFFFFFFFFFFFFFFFFFFFFFFFFFFFF NOT AND DUP3 PUSH28 0xFFFFFFFFFFFFFFFFFFFFFFFFFFFFFFFFFFFFFFFFFFFFFFFFFFFFFFFF NOT AND EQ DUP1 PUSH2 0x928 JUMPI POP PUSH32 0xE89341C00000000000000000000000000000000000000000000000000000000 PUSH28 0xFFFFFFFFFFFFFFFFFFFFFFFFFFFFFFFFFFFFFFFFFFFFFFFFFFFFFFFF NOT AND DUP3 PUSH28 0xFFFFFFFFFFFFFFFFFFFFFFFFFFFFFFFFFFFFFFFFFFFFFFFFFFFFFFFF NOT AND EQ JUMPDEST DUP1 PUSH2 0x938 JUMPI POP PUSH2 0x937 DUP3 PUSH2 0x1786 JUMP JUMPDEST JUMPDEST SWAP1 POP SWAP2 SWAP1 POP JUMP JUMPDEST PUSH1 0x4 DUP1 SLOAD PUSH2 0x94C SWAP1 PUSH2 0x30A8 JUMP JUMPDEST DUP1 PUSH1 0x1F ADD PUSH1 0x20 DUP1 SWAP2 DIV MUL PUSH1 0x20 ADD PUSH1 0x40 MLOAD SWAP1 DUP2 ADD PUSH1 0x40 MSTORE DUP1 SWAP3 SWAP2 SWAP1 DUP2 DUP2 MSTORE PUSH1 0x20 ADD DUP3 DUP1 SLOAD PUSH2 0x978 SWAP1 PUSH2 0x30A8 JUMP JUMPDEST DUP1 ISZERO PUSH2 0x9C5 JUMPI DUP1 PUSH1 0x1F LT PUSH2 0x99A JUMPI PUSH2 0x100 DUP1 DUP4 SLOAD DIV MUL DUP4 MSTORE SWAP2 PUSH1 0x20 ADD SWAP2 PUSH2 0x9C5 JUMP JUMPDEST DUP3 ADD SWAP2 SWAP1 PUSH1 0x0 MSTORE PUSH1 0x20 PUSH1 0x0 KECCAK256 SWAP1 JUMPDEST DUP2 SLOAD DUP2 MSTORE SWAP1 PUSH1 0x1 ADD SWAP1 PUSH1 0x20 ADD DUP1 DUP4 GT PUSH2 0x9A8 JUMPI DUP3 SWAP1 SUB PUSH1 0x1F AND DUP3 ADD SWAP2 JUMPDEST POP POP POP POP POP DUP2 JUMP JUMPDEST PUSH1 0x60 PUSH1 0x2 DUP1 SLOAD PUSH2 0x9DC SWAP1 PUSH2 0x30A8 JUMP JUMPDEST DUP1 PUSH1 0x1F ADD PUSH1 0x20 DUP1 SWAP2 DIV MUL PUSH1 0x20 ADD PUSH1 0x40 MLOAD SWAP1 DUP2 ADD PUSH1 0x40 MSTORE DUP1 SWAP3 SWAP2 SWAP1 DUP2 DUP2 MSTORE PUSH1 0x20 ADD DUP3 DUP1 SLOAD PUSH2 0xA08 SWAP1 PUSH2 0x30A8 JUMP JUMPDEST DUP1 ISZERO PUSH2 0xA55 JUMPI DUP1 PUSH1 0x1F LT PUSH2 0xA2A JUMPI PUSH2 0x100 DUP1 DUP4 SLOAD DIV MUL DUP4 MSTORE SWAP2 PUSH1 0x20 ADD SWAP2 PUSH2 0xA55 JUMP JUMPDEST DUP3 ADD SWAP2 SWAP1 PUSH1 0x0 MSTORE PUSH1 0x20 PUSH1 0x0 KECCAK256 SWAP1 JUMPDEST DUP2 SLOAD DUP2 MSTORE SWAP1 PUSH1 0x1 ADD SWAP1 PUSH1 0x20 ADD DUP1 DUP4 GT PUSH2 0xA38 JUMPI DUP3 SWAP1 SUB PUSH1 0x1F AND DUP3 ADD SWAP2 JUMPDEST POP POP POP POP POP SWAP1 POP SWAP2 SWAP1 POP JUMP JUMPDEST PUSH1 0x0 SELFBALANCE SWAP1 POP SWAP1 JUMP JUMPDEST PUSH1 0x5 PUSH1 0x0 SWAP1 SLOAD SWAP1 PUSH2 0x100 EXP SWAP1 DIV PUSH1 0xFF AND DUP2 JUMP JUMPDEST PUSH2 0xA84 PUSH2 0x150D JUMP JUMPDEST PUSH20 0xFFFFFFFFFFFFFFFFFFFFFFFFFFFFFFFFFFFFFFFF AND DUP6 PUSH20 0xFFFFFFFFFFFFFFFFFFFFFFFFFFFFFFFFFFFFFFFF AND EQ DUP1 PUSH2 0xACA JUMPI POP PUSH2 0xAC9 DUP6 PUSH2 0xAC4 PUSH2 0x150D JUMP JUMPDEST PUSH2 0x13B2 JUMP JUMPDEST JUMPDEST PUSH2 0xB09 JUMPI PUSH1 0x40 MLOAD PUSH32 0x8C379A000000000000000000000000000000000000000000000000000000000 DUP2 MSTORE PUSH1 0x4 ADD PUSH2 0xB00 SWAP1 PUSH2 0x314C JUMP JUMPDEST PUSH1 0x40 MLOAD DUP1 SWAP2 SUB SWAP1 REVERT JUMPDEST PUSH2 0xB16 DUP6 DUP6 DUP6 DUP6 DUP6 PUSH2 0x17F0 JUMP JUMPDEST POP POP POP POP POP JUMP JUMPDEST PUSH1 0xA DUP2 DUP2 SLOAD DUP2 LT PUSH2 0xB2D JUMPI PUSH1 0x0 DUP1 REVERT JUMPDEST SWAP1 PUSH1 0x0 MSTORE PUSH1 0x20 PUSH1 0x0 KECCAK256 SWAP1 PUSH1 0x3 MUL ADD PUSH1 0x0 SWAP2 POP SWAP1 POP DUP1 PUSH1 0x0 ADD DUP1 SLOAD PUSH2 0xB50 SWAP1 PUSH2 0x30A8 JUMP JUMPDEST DUP1 PUSH1 0x1F ADD PUSH1 0x20 DUP1 SWAP2 DIV MUL PUSH1 0x20 ADD PUSH1 0x40 MLOAD SWAP1 DUP2 ADD PUSH1 0x40 MSTORE DUP1 SWAP3 SWAP2 SWAP1 DUP2 DUP2 MSTORE PUSH1 0x20 ADD DUP3 DUP1 SLOAD PUSH2 0xB7C SWAP1 PUSH2 0x30A8 JUMP JUMPDEST DUP1 ISZERO PUSH2 0xBC9 JUMPI DUP1 PUSH1 0x1F LT PUSH2 0xB9E JUMPI PUSH2 0x100 DUP1 DUP4 SLOAD DIV MUL DUP4 MSTORE SWAP2 PUSH1 0x20 ADD SWAP2 PUSH2 0xBC9 JUMP JUMPDEST DUP3 ADD SWAP2 SWAP1 PUSH1 0x0 MSTORE PUSH1 0x20 PUSH1 0x0 KECCAK256 SWAP1 JUMPDEST DUP2 SLOAD DUP2 MSTORE SWAP1 PUSH1 0x1 ADD SWAP1 PUSH1 0x20 ADD DUP1 DUP4 GT PUSH2 0xBAC JUMPI DUP3 SWAP1 SUB PUSH1 0x1F AND DUP3 ADD SWAP2 JUMPDEST POP POP POP POP POP SWAP1 DUP1 PUSH1 0x1 ADD DUP1 SLOAD PUSH2 0xBDE SWAP1 PUSH2 0x30A8 JUMP JUMPDEST DUP1 PUSH1 0x1F ADD PUSH1 0x20 DUP1 SWAP2 DIV MUL PUSH1 0x20 ADD PUSH1 0x40 MLOAD SWAP1 DUP2 ADD PUSH1 0x40 MSTORE DUP1 SWAP3 SWAP2 SWAP1 DUP2 DUP2 MSTORE PUSH1 0x20 ADD DUP3 DUP1 SLOAD PUSH2 0xC0A SWAP1 PUSH2 0x30A8 JUMP JUMPDEST DUP1 ISZERO PUSH2 0xC57 JUMPI DUP1 PUSH1 0x1F LT PUSH2 0xC2C JUMPI PUSH2 0x100 DUP1 DUP4 SLOAD DIV MUL DUP4 MSTORE SWAP2 PUSH1 0x20 ADD SWAP2 PUSH2 0xC57 JUMP JUMPDEST DUP3 ADD SWAP2 SWAP1 PUSH1 0x0 MSTORE PUSH1 0x20 PUSH1 0x0 KECCAK256 SWAP1 JUMPDEST DUP2 SLOAD DUP2 MSTORE SWAP1 PUSH1 0x1 ADD SWAP1 PUSH1 0x20 ADD DUP1 DUP4 GT PUSH2 0xC3A JUMPI DUP3 SWAP1 SUB PUSH1 0x1F AND DUP3 ADD SWAP2 JUMPDEST POP POP POP POP POP SWAP1 DUP1 PUSH1 0x2 ADD PUSH1 0x0 SWAP1 SLOAD SWAP1 PUSH2 0x100 EXP SWAP1 DIV PUSH20 0xFFFFFFFFFFFFFFFFFFFFFFFFFFFFFFFFFFFFFFFF AND SWAP1 POP DUP4 JUMP JUMPDEST PUSH1 0x60 DUP2 MLOAD DUP4 MLOAD EQ PUSH2 0xCCD JUMPI PUSH1 0x40 MLOAD PUSH32 0x8C379A000000000000000000000000000000000000000000000000000000000 DUP2 MSTORE PUSH1 0x4 ADD PUSH2 0xCC4 SWAP1 PUSH2 0x31DE JUMP JUMPDEST PUSH1 0x40 MLOAD DUP1 SWAP2 SUB SWAP1 REVERT JUMPDEST PUSH1 0x0 DUP4 MLOAD PUSH8 0xFFFFFFFFFFFFFFFF DUP2 GT ISZERO PUSH2 0xCEA JUMPI PUSH2 0xCE9 PUSH2 0x2526 JUMP JUMPDEST JUMPDEST PUSH1 0x40 MLOAD SWAP1 DUP1 DUP3 MSTORE DUP1 PUSH1 0x20 MUL PUSH1 0x20 ADD DUP3 ADD PUSH1 0x40 MSTORE DUP1 ISZERO PUSH2 0xD18 JUMPI DUP2 PUSH1 0x20 ADD PUSH1 0x20 DUP3 MUL DUP1 CALLDATASIZE DUP4 CALLDATACOPY DUP1 DUP3 ADD SWAP2 POP POP SWAP1 POP JUMPDEST POP SWAP1 POP PUSH1 0x0 JUMPDEST DUP5 MLOAD DUP2 LT ISZERO PUSH2 0xD95 JUMPI PUSH2 0xD65 DUP6 DUP3 DUP2 MLOAD DUP2 LT PUSH2 0xD3D JUMPI PUSH2 0xD3C PUSH2 0x31FE JUMP JUMPDEST JUMPDEST PUSH1 0x20 MUL PUSH1 0x20 ADD ADD MLOAD DUP6 DUP4 DUP2 MLOAD DUP2 LT PUSH2 0xD58 JUMPI PUSH2 0xD57 PUSH2 0x31FE JUMP JUMPDEST JUMPDEST PUSH1 0x20 MUL PUSH1 0x20 ADD ADD MLOAD PUSH2 0x794 JUMP JUMPDEST DUP3 DUP3 DUP2 MLOAD DUP2 LT PUSH2 0xD78 JUMPI PUSH2 0xD77 PUSH2 0x31FE JUMP JUMPDEST JUMPDEST PUSH1 0x20 MUL PUSH1 0x20 ADD ADD DUP2 DUP2 MSTORE POP POP DUP1 PUSH2 0xD8E SWAP1 PUSH2 0x322D JUMP JUMPDEST SWAP1 POP PUSH2 0xD1E JUMP JUMPDEST POP DUP1 SWAP2 POP POP SWAP3 SWAP2 POP POP JUMP JUMPDEST CALLER PUSH20 0xFFFFFFFFFFFFFFFFFFFFFFFFFFFFFFFFFFFFFFFF AND PUSH1 0x3 PUSH1 0x0 SWAP1 SLOAD SWAP1 PUSH2 0x100 EXP SWAP1 DIV PUSH20 0xFFFFFFFFFFFFFFFFFFFFFFFFFFFFFFFFFFFFFFFF AND PUSH20 0xFFFFFFFFFFFFFFFFFFFFFFFFFFFFFFFFFFFFFFFF AND EQ PUSH2 0xE30 JUMPI PUSH1 0x40 MLOAD PUSH32 0x8C379A000000000000000000000000000000000000000000000000000000000 DUP2 MSTORE PUSH1 0x4 ADD PUSH2 0xE27 SWAP1 PUSH2 0x32C2 JUMP JUMPDEST PUSH1 0x40 MLOAD DUP1 SWAP2 SUB SWAP1 REVERT JUMPDEST PUSH1 0x6 SLOAD TIMESTAMP LT ISZERO DUP1 ISZERO PUSH2 0xE55 JUMPI POP PUSH1 0x1 ISZERO ISZERO PUSH1 0x5 PUSH1 0x0 SWAP1 SLOAD SWAP1 PUSH2 0x100 EXP SWAP1 DIV PUSH1 0xFF AND ISZERO ISZERO EQ JUMPDEST PUSH2 0xE94 JUMPI PUSH1 0x40 MLOAD PUSH32 0x8C379A000000000000000000000000000000000000000000000000000000000 DUP2 MSTORE PUSH1 0x4 ADD PUSH2 0xE8B SWAP1 PUSH2 0x3354 JUMP JUMPDEST PUSH1 0x40 MLOAD DUP1 SWAP2 SUB SWAP1 REVERT JUMPDEST PUSH1 0x5 PUSH1 0x1 SWAP1 SLOAD SWAP1 PUSH2 0x100 EXP SWAP1 DIV PUSH20 0xFFFFFFFFFFFFFFFFFFFFFFFFFFFFFFFFFFFFFFFF AND PUSH20 0xFFFFFFFFFFFFFFFFFFFFFFFFFFFFFFFFFFFFFFFF AND PUSH2 0x8FC PUSH2 0xED8 PUSH2 0xA61 JUMP JUMPDEST SWAP1 DUP2 ISZERO MUL SWAP1 PUSH1 0x40 MLOAD PUSH1 0x0 PUSH1 0x40 MLOAD DUP1 DUP4 SUB DUP2 DUP6 DUP9 DUP9 CALL SWAP4 POP POP POP POP ISZERO DUP1 ISZERO PUSH2 0xF03 JUMPI RETURNDATASIZE PUSH1 0x0 DUP1 RETURNDATACOPY RETURNDATASIZE PUSH1 0x0 REVERT JUMPDEST POP PUSH2 0xF46 PUSH1 0x8 PUSH1 0x0 ADD PUSH1 0x0 SWAP1 SLOAD SWAP1 PUSH2 0x100 EXP SWAP1 DIV PUSH20 0xFFFFFFFFFFFFFFFFFFFFFFFFFFFFFFFFFFFFFFFF AND PUSH1 0x2 PUSH1 0x1 PUSH1 0x40 MLOAD DUP1 PUSH1 0x20 ADD PUSH1 0x40 MSTORE DUP1 PUSH1 0x0 DUP2 MSTORE POP PUSH2 0x5E3 JUMP JUMPDEST PUSH1 0x0 PUSH1 0x5 PUSH1 0x0 PUSH2 0x100 EXP DUP2 SLOAD DUP2 PUSH1 0xFF MUL NOT AND SWAP1 DUP4 ISZERO ISZERO MUL OR SWAP1 SSTORE POP JUMP JUMPDEST CALLER PUSH20 0xFFFFFFFFFFFFFFFFFFFFFFFFFFFFFFFFFFFFFFFF AND PUSH1 0x3 PUSH1 0x0 SWAP1 SLOAD SWAP1 PUSH2 0x100 EXP SWAP1 DIV PUSH20 0xFFFFFFFFFFFFFFFFFFFFFFFFFFFFFFFFFFFFFFFF AND PUSH20 0xFFFFFFFFFFFFFFFFFFFFFFFFFFFFFFFFFFFFFFFF AND EQ PUSH2 0xFF3 JUMPI PUSH1 0x40 MLOAD PUSH32 0x8C379A000000000000000000000000000000000000000000000000000000000 DUP2 MSTORE PUSH1 0x4 ADD PUSH2 0xFEA SWAP1 PUSH2 0x32C2 JUMP JUMPDEST PUSH1 0x40 MLOAD DUP1 SWAP2 SUB SWAP1 REVERT JUMPDEST PUSH1 0xA PUSH1 0x40 MLOAD DUP1 PUSH1 0x60 ADD PUSH1 0x40 MSTORE DUP1 DUP6 DUP2 MSTORE PUSH1 0x20 ADD DUP5 DUP2 MSTORE PUSH1 0x20 ADD DUP4 PUSH20 0xFFFFFFFFFFFFFFFFFFFFFFFFFFFFFFFFFFFFFFFF AND DUP2 MSTORE POP SWAP1 DUP1 PUSH1 0x1 DUP2 SLOAD ADD DUP1 DUP3 SSTORE DUP1 SWAP2 POP POP PUSH1 0x1 SWAP1 SUB SWAP1 PUSH1 0x0 MSTORE PUSH1 0x20 PUSH1 0x0 KECCAK256 SWAP1 PUSH1 0x3 MUL ADD PUSH1 0x0 SWAP1 SWAP2 SWAP1 SWAP2 SWAP1 SWAP2 POP PUSH1 0x0 DUP3 ADD MLOAD DUP2 PUSH1 0x0 ADD SWAP1 DUP1 MLOAD SWAP1 PUSH1 0x20 ADD SWAP1 PUSH2 0x106B SWAP3 SWAP2 SWAP1 PUSH2 0x2125 JUMP JUMPDEST POP PUSH1 0x20 DUP3 ADD MLOAD DUP2 PUSH1 0x1 ADD SWAP1 DUP1 MLOAD SWAP1 PUSH1 0x20 ADD SWAP1 PUSH2 0x1088 SWAP3 SWAP2 SWAP1 PUSH2 0x2125 JUMP JUMPDEST POP PUSH1 0x40 DUP3 ADD MLOAD DUP2 PUSH1 0x2 ADD PUSH1 0x0 PUSH2 0x100 EXP DUP2 SLOAD DUP2 PUSH20 0xFFFFFFFFFFFFFFFFFFFFFFFFFFFFFFFFFFFFFFFF MUL NOT AND SWAP1 DUP4 PUSH20 0xFFFFFFFFFFFFFFFFFFFFFFFFFFFFFFFFFFFFFFFF AND MUL OR SWAP1 SSTORE POP POP POP POP POP POP JUMP JUMPDEST PUSH1 0x3 PUSH1 0x0 SWAP1 SLOAD SWAP1 PUSH2 0x100 EXP SWAP1 DIV PUSH20 0xFFFFFFFFFFFFFFFFFFFFFFFFFFFFFFFFFFFFFFFF AND DUP2 JUMP JUMPDEST PUSH1 0x6 SLOAD DUP2 JUMP JUMPDEST PUSH1 0x60 PUSH1 0xA DUP1 SLOAD DUP1 PUSH1 0x20 MUL PUSH1 0x20 ADD PUSH1 0x40 MLOAD SWAP1 DUP2 ADD PUSH1 0x40 MSTORE DUP1 SWAP3 SWAP2 SWAP1 DUP2 DUP2 MSTORE PUSH1 0x20 ADD PUSH1 0x0 SWAP1 JUMPDEST DUP3 DUP3 LT ISZERO PUSH2 0x12D3 JUMPI DUP4 DUP3 SWAP1 PUSH1 0x0 MSTORE PUSH1 0x20 PUSH1 0x0 KECCAK256 SWAP1 PUSH1 0x3 MUL ADD PUSH1 0x40 MLOAD DUP1 PUSH1 0x60 ADD PUSH1 0x40 MSTORE SWAP1 DUP2 PUSH1 0x0 DUP3 ADD DUP1 SLOAD PUSH2 0x115A SWAP1 PUSH2 0x30A8 JUMP JUMPDEST DUP1 PUSH1 0x1F ADD PUSH1 0x20 DUP1 SWAP2 DIV MUL PUSH1 0x20 ADD PUSH1 0x40 MLOAD SWAP1 DUP2 ADD PUSH1 0x40 MSTORE DUP1 SWAP3 SWAP2 SWAP1 DUP2 DUP2 MSTORE PUSH1 0x20 ADD DUP3 DUP1 SLOAD PUSH2 0x1186 SWAP1 PUSH2 0x30A8 JUMP JUMPDEST DUP1 ISZERO PUSH2 0x11D3 JUMPI DUP1 PUSH1 0x1F LT PUSH2 0x11A8 JUMPI PUSH2 0x100 DUP1 DUP4 SLOAD DIV MUL DUP4 MSTORE SWAP2 PUSH1 0x20 ADD SWAP2 PUSH2 0x11D3 JUMP JUMPDEST DUP3 ADD SWAP2 SWAP1 PUSH1 0x0 MSTORE PUSH1 0x20 PUSH1 0x0 KECCAK256 SWAP1 JUMPDEST DUP2 SLOAD DUP2 MSTORE SWAP1 PUSH1 0x1 ADD SWAP1 PUSH1 0x20 ADD DUP1 DUP4 GT PUSH2 0x11B6 JUMPI DUP3 SWAP1 SUB PUSH1 0x1F AND DUP3 ADD SWAP2 JUMPDEST POP POP POP POP POP DUP2 MSTORE PUSH1 0x20 ADD PUSH1 0x1 DUP3 ADD DUP1 SLOAD PUSH2 0x11EC SWAP1 PUSH2 0x30A8 JUMP JUMPDEST DUP1 PUSH1 0x1F ADD PUSH1 0x20 DUP1 SWAP2 DIV MUL PUSH1 0x20 ADD PUSH1 0x40 MLOAD SWAP1 DUP2 ADD PUSH1 0x40 MSTORE DUP1 SWAP3 SWAP2 SWAP1 DUP2 DUP2 MSTORE PUSH1 0x20 ADD DUP3 DUP1 SLOAD PUSH2 0x1218 SWAP1 PUSH2 0x30A8 JUMP JUMPDEST DUP1 ISZERO PUSH2 0x1265 JUMPI DUP1 PUSH1 0x1F LT PUSH2 0x123A JUMPI PUSH2 0x100 DUP1 DUP4 SLOAD DIV MUL DUP4 MSTORE SWAP2 PUSH1 0x20 ADD SWAP2 PUSH2 0x1265 JUMP JUMPDEST DUP3 ADD SWAP2 SWAP1 PUSH1 0x0 MSTORE PUSH1 0x20 PUSH1 0x0 KECCAK256 SWAP1 JUMPDEST DUP2 SLOAD DUP2 MSTORE SWAP1 PUSH1 0x1 ADD SWAP1 PUSH1 0x20 ADD DUP1 DUP4 GT PUSH2 0x1248 JUMPI DUP3 SWAP1 SUB PUSH1 0x1F AND DUP3 ADD SWAP2 JUMPDEST POP POP POP POP POP DUP2 MSTORE PUSH1 0x20 ADD PUSH1 0x2 DUP3 ADD PUSH1 0x0 SWAP1 SLOAD SWAP1 PUSH2 0x100 EXP SWAP1 DIV PUSH20 0xFFFFFFFFFFFFFFFFFFFFFFFFFFFFFFFFFFFFFFFF AND PUSH20 0xFFFFFFFFFFFFFFFFFFFFFFFFFFFFFFFFFFFFFFFF AND PUSH20 0xFFFFFFFFFFFFFFFFFFFFFFFFFFFFFFFFFFFFFFFF AND DUP2 MSTORE POP POP DUP2 MSTORE PUSH1 0x20 ADD SWAP1 PUSH1 0x1 ADD SWAP1 PUSH2 0x1127 JUMP JUMPDEST POP POP POP POP SWAP1 POP SWAP1 JUMP JUMPDEST PUSH2 0x12EE PUSH2 0x12E7 PUSH2 0x150D JUMP JUMPDEST DUP4 DUP4 PUSH2 0x1B12 JUMP JUMPDEST POP POP JUMP JUMPDEST PUSH1 0x7 DUP1 SLOAD PUSH2 0x12FF SWAP1 PUSH2 0x30A8 JUMP JUMPDEST DUP1 PUSH1 0x1F ADD PUSH1 0x20 DUP1 SWAP2 DIV MUL PUSH1 0x20 ADD PUSH1 0x40 MLOAD SWAP1 DUP2 ADD PUSH1 0x40 MSTORE DUP1 SWAP3 SWAP2 SWAP1 DUP2 DUP2 MSTORE PUSH1 0x20 ADD DUP3 DUP1 SLOAD PUSH2 0x132B SWAP1 PUSH2 0x30A8 JUMP JUMPDEST DUP1 ISZERO PUSH2 0x1378 JUMPI DUP1 PUSH1 0x1F LT PUSH2 0x134D JUMPI PUSH2 0x100 DUP1 DUP4 SLOAD DIV MUL DUP4 MSTORE SWAP2 PUSH1 0x20 ADD SWAP2 PUSH2 0x1378 JUMP JUMPDEST DUP3 ADD SWAP2 SWAP1 PUSH1 0x0 MSTORE PUSH1 0x20 PUSH1 0x0 KECCAK256 SWAP1 JUMPDEST DUP2 SLOAD DUP2 MSTORE SWAP1 PUSH1 0x1 ADD SWAP1 PUSH1 0x20 ADD DUP1 DUP4 GT PUSH2 0x135B JUMPI DUP3 SWAP1 SUB PUSH1 0x1F AND DUP3 ADD SWAP2 JUMPDEST POP POP POP POP POP DUP2 JUMP JUMPDEST PUSH1 0x8 DUP1 PUSH1 0x0 ADD PUSH1 0x0 SWAP1 SLOAD SWAP1 PUSH2 0x100 EXP SWAP1 DIV PUSH20 0xFFFFFFFFFFFFFFFFFFFFFFFFFFFFFFFFFFFFFFFF AND SWAP1 DUP1 PUSH1 0x1 ADD SLOAD SWAP1 POP DUP3 JUMP JUMPDEST PUSH1 0x0 PUSH1 0x1 PUSH1 0x0 DUP5 PUSH20 0xFFFFFFFFFFFFFFFFFFFFFFFFFFFFFFFFFFFFFFFF AND PUSH20 0xFFFFFFFFFFFFFFFFFFFFFFFFFFFFFFFFFFFFFFFF AND DUP2 MSTORE PUSH1 0x20 ADD SWAP1 DUP2 MSTORE PUSH1 0x20 ADD PUSH1 0x0 KECCAK256 PUSH1 0x0 DUP4 PUSH20 0xFFFFFFFFFFFFFFFFFFFFFFFFFFFFFFFFFFFFFFFF AND PUSH20 0xFFFFFFFFFFFFFFFFFFFFFFFFFFFFFFFFFFFFFFFF AND DUP2 MSTORE PUSH1 0x20 ADD SWAP1 DUP2 MSTORE PUSH1 0x20 ADD PUSH1 0x0 KECCAK256 PUSH1 0x0 SWAP1 SLOAD SWAP1 PUSH2 0x100 EXP SWAP1 DIV PUSH1 0xFF AND SWAP1 POP SWAP3 SWAP2 POP POP JUMP JUMPDEST PUSH2 0x144E PUSH2 0x150D JUMP JUMPDEST PUSH20 0xFFFFFFFFFFFFFFFFFFFFFFFFFFFFFFFFFFFFFFFF AND DUP6 PUSH20 0xFFFFFFFFFFFFFFFFFFFFFFFFFFFFFFFFFFFFFFFF AND EQ DUP1 PUSH2 0x1494 JUMPI POP PUSH2 0x1493 DUP6 PUSH2 0x148E PUSH2 0x150D JUMP JUMPDEST PUSH2 0x13B2 JUMP JUMPDEST JUMPDEST PUSH2 0x14D3 JUMPI PUSH1 0x40 MLOAD PUSH32 0x8C379A000000000000000000000000000000000000000000000000000000000 DUP2 MSTORE PUSH1 0x4 ADD PUSH2 0x14CA SWAP1 PUSH2 0x314C JUMP JUMPDEST PUSH1 0x40 MLOAD DUP1 SWAP2 SUB SWAP1 REVERT JUMPDEST PUSH2 0x14E0 DUP6 DUP6 DUP6 DUP6 DUP6 PUSH2 0x1C7F JUMP JUMPDEST POP POP POP POP POP JUMP JUMPDEST PUSH1 0x5 PUSH1 0x1 SWAP1 SLOAD SWAP1 PUSH2 0x100 EXP SWAP1 DIV PUSH20 0xFFFFFFFFFFFFFFFFFFFFFFFFFFFFFFFFFFFFFFFF AND DUP2 JUMP JUMPDEST PUSH1 0x0 CALLER SWAP1 POP SWAP1 JUMP JUMPDEST PUSH1 0x60 PUSH1 0x0 PUSH1 0x1 PUSH8 0xFFFFFFFFFFFFFFFF DUP2 GT ISZERO PUSH2 0x1534 JUMPI PUSH2 0x1533 PUSH2 0x2526 JUMP JUMPDEST JUMPDEST PUSH1 0x40 MLOAD SWAP1 DUP1 DUP3 MSTORE DUP1 PUSH1 0x20 MUL PUSH1 0x20 ADD DUP3 ADD PUSH1 0x40 MSTORE DUP1 ISZERO PUSH2 0x1562 JUMPI DUP2 PUSH1 0x20 ADD PUSH1 0x20 DUP3 MUL DUP1 CALLDATASIZE DUP4 CALLDATACOPY DUP1 DUP3 ADD SWAP2 POP POP SWAP1 POP JUMPDEST POP SWAP1 POP DUP3 DUP2 PUSH1 0x0 DUP2 MLOAD DUP2 LT PUSH2 0x157A JUMPI PUSH2 0x1579 PUSH2 0x31FE JUMP JUMPDEST JUMPDEST PUSH1 0x20 MUL PUSH1 0x20 ADD ADD DUP2 DUP2 MSTORE POP POP DUP1 SWAP2 POP POP SWAP2 SWAP1 POP JUMP JUMPDEST POP POP POP POP POP POP JUMP JUMPDEST POP POP POP POP POP POP JUMP JUMPDEST PUSH2 0x15BE DUP5 PUSH20 0xFFFFFFFFFFFFFFFFFFFFFFFFFFFFFFFFFFFFFFFF AND PUSH2 0x1F1B JUMP JUMPDEST ISZERO PUSH2 0x177E JUMPI DUP4 PUSH20 0xFFFFFFFFFFFFFFFFFFFFFFFFFFFFFFFFFFFFFFFF AND PUSH4 0xF23A6E61 DUP8 DUP8 DUP7 DUP7 DUP7 PUSH1 0x40 MLOAD DUP7 PUSH4 0xFFFFFFFF AND PUSH1 0xE0 SHL DUP2 MSTORE PUSH1 0x4 ADD PUSH2 0x1604 SWAP6 SWAP5 SWAP4 SWAP3 SWAP2 SWAP1 PUSH2 0x33C9 JUMP JUMPDEST PUSH1 0x20 PUSH1 0x40 MLOAD DUP1 DUP4 SUB DUP2 PUSH1 0x0 DUP8 DUP1 EXTCODESIZE ISZERO DUP1 ISZERO PUSH2 0x161E JUMPI PUSH1 0x0 DUP1 REVERT JUMPDEST POP GAS CALL SWAP3 POP POP POP DUP1 ISZERO PUSH2 0x164F JUMPI POP PUSH1 0x40 MLOAD RETURNDATASIZE PUSH1 0x1F NOT PUSH1 0x1F DUP3 ADD AND DUP3 ADD DUP1 PUSH1 0x40 MSTORE POP DUP2 ADD SWAP1 PUSH2 0x164C SWAP2 SWAP1 PUSH2 0x3438 JUMP JUMPDEST PUSH1 0x1 JUMPDEST PUSH2 0x16F5 JUMPI PUSH2 0x165B PUSH2 0x3472 JUMP JUMPDEST DUP1 PUSH4 0x8C379A0 EQ ISZERO PUSH2 0x16B8 JUMPI POP PUSH2 0x1670 PUSH2 0x3494 JUMP JUMPDEST DUP1 PUSH2 0x167B JUMPI POP PUSH2 0x16BA JUMP JUMPDEST DUP1 PUSH1 0x40 MLOAD PUSH32 0x8C379A000000000000000000000000000000000000000000000000000000000 DUP2 MSTORE PUSH1 0x4 ADD PUSH2 0x16AF SWAP2 SWAP1 PUSH2 0x24D2 JUMP JUMPDEST PUSH1 0x40 MLOAD DUP1 SWAP2 SUB SWAP1 REVERT JUMPDEST POP JUMPDEST PUSH1 0x40 MLOAD PUSH32 0x8C379A000000000000000000000000000000000000000000000000000000000 DUP2 MSTORE PUSH1 0x4 ADD PUSH2 0x16EC SWAP1 PUSH2 0x359C JUMP JUMPDEST PUSH1 0x40 MLOAD DUP1 SWAP2 SUB SWAP1 REVERT JUMPDEST PUSH4 0xF23A6E61 PUSH1 0xE0 SHL PUSH28 0xFFFFFFFFFFFFFFFFFFFFFFFFFFFFFFFFFFFFFFFFFFFFFFFFFFFFFFFF NOT AND DUP2 PUSH28 0xFFFFFFFFFFFFFFFFFFFFFFFFFFFFFFFFFFFFFFFFFFFFFFFFFFFFFFFF NOT AND EQ PUSH2 0x177C JUMPI PUSH1 0x40 MLOAD PUSH32 0x8C379A000000000000000000000000000000000000000000000000000000000 DUP2 MSTORE PUSH1 0x4 ADD PUSH2 0x1773 SWAP1 PUSH2 0x362E JUMP JUMPDEST PUSH1 0x40 MLOAD DUP1 SWAP2 SUB SWAP1 REVERT JUMPDEST POP JUMPDEST POP POP POP POP POP POP JUMP JUMPDEST PUSH1 0x0 PUSH32 0x1FFC9A700000000000000000000000000000000000000000000000000000000 PUSH28 0xFFFFFFFFFFFFFFFFFFFFFFFFFFFFFFFFFFFFFFFFFFFFFFFFFFFFFFFF NOT AND DUP3 PUSH28 0xFFFFFFFFFFFFFFFFFFFFFFFFFFFFFFFFFFFFFFFFFFFFFFFFFFFFFFFF NOT AND EQ SWAP1 POP SWAP2 SWAP1 POP JUMP JUMPDEST DUP2 MLOAD DUP4 MLOAD EQ PUSH2 0x1834 JUMPI PUSH1 0x40 MLOAD PUSH32 0x8C379A000000000000000000000000000000000000000000000000000000000 DUP2 MSTORE PUSH1 0x4 ADD PUSH2 0x182B SWAP1 PUSH2 0x36C0 JUMP JUMPDEST PUSH1 0x40 MLOAD DUP1 SWAP2 SUB SWAP1 REVERT JUMPDEST PUSH1 0x0 PUSH20 0xFFFFFFFFFFFFFFFFFFFFFFFFFFFFFFFFFFFFFFFF AND DUP5 PUSH20 0xFFFFFFFFFFFFFFFFFFFFFFFFFFFFFFFFFFFFFFFF AND EQ ISZERO PUSH2 0x18A4 JUMPI PUSH1 0x40 MLOAD PUSH32 0x8C379A000000000000000000000000000000000000000000000000000000000 DUP2 MSTORE PUSH1 0x4 ADD PUSH2 0x189B SWAP1 PUSH2 0x3752 JUMP JUMPDEST PUSH1 0x40 MLOAD DUP1 SWAP2 SUB SWAP1 REVERT JUMPDEST PUSH1 0x0 PUSH2 0x18AE PUSH2 0x150D JUMP JUMPDEST SWAP1 POP PUSH2 0x18BE DUP2 DUP8 DUP8 DUP8 DUP8 DUP8 PUSH2 0x158F JUMP JUMPDEST PUSH1 0x0 JUMPDEST DUP5 MLOAD DUP2 LT ISZERO PUSH2 0x1A6F JUMPI PUSH1 0x0 DUP6 DUP3 DUP2 MLOAD DUP2 LT PUSH2 0x18DF JUMPI PUSH2 0x18DE PUSH2 0x31FE JUMP JUMPDEST JUMPDEST PUSH1 0x20 MUL PUSH1 0x20 ADD ADD MLOAD SWAP1 POP PUSH1 0x0 DUP6 DUP4 DUP2 MLOAD DUP2 LT PUSH2 0x18FE JUMPI PUSH2 0x18FD PUSH2 0x31FE JUMP JUMPDEST JUMPDEST PUSH1 0x20 MUL PUSH1 0x20 ADD ADD MLOAD SWAP1 POP PUSH1 0x0 DUP1 PUSH1 0x0 DUP5 DUP2 MSTORE PUSH1 0x20 ADD SWAP1 DUP2 MSTORE PUSH1 0x20 ADD PUSH1 0x0 KECCAK256 PUSH1 0x0 DUP12 PUSH20 0xFFFFFFFFFFFFFFFFFFFFFFFFFFFFFFFFFFFFFFFF AND PUSH20 0xFFFFFFFFFFFFFFFFFFFFFFFFFFFFFFFFFFFFFFFF AND DUP2 MSTORE PUSH1 0x20 ADD SWAP1 DUP2 MSTORE PUSH1 0x20 ADD PUSH1 0x0 KECCAK256 SLOAD SWAP1 POP DUP2 DUP2 LT ISZERO PUSH2 0x199F JUMPI PUSH1 0x40 MLOAD PUSH32 0x8C379A000000000000000000000000000000000000000000000000000000000 DUP2 MSTORE PUSH1 0x4 ADD PUSH2 0x1996 SWAP1 PUSH2 0x37E4 JUMP JUMPDEST PUSH1 0x40 MLOAD DUP1 SWAP2 SUB SWAP1 REVERT JUMPDEST DUP2 DUP2 SUB PUSH1 0x0 DUP1 DUP6 DUP2 MSTORE PUSH1 0x20 ADD SWAP1 DUP2 MSTORE PUSH1 0x20 ADD PUSH1 0x0 KECCAK256 PUSH1 0x0 DUP13 PUSH20 0xFFFFFFFFFFFFFFFFFFFFFFFFFFFFFFFFFFFFFFFF AND PUSH20 0xFFFFFFFFFFFFFFFFFFFFFFFFFFFFFFFFFFFFFFFF AND DUP2 MSTORE PUSH1 0x20 ADD SWAP1 DUP2 MSTORE PUSH1 0x20 ADD PUSH1 0x0 KECCAK256 DUP2 SWAP1 SSTORE POP DUP2 PUSH1 0x0 DUP1 DUP6 DUP2 MSTORE PUSH1 0x20 ADD SWAP1 DUP2 MSTORE PUSH1 0x20 ADD PUSH1 0x0 KECCAK256 PUSH1 0x0 DUP12 PUSH20 0xFFFFFFFFFFFFFFFFFFFFFFFFFFFFFFFFFFFFFFFF AND PUSH20 0xFFFFFFFFFFFFFFFFFFFFFFFFFFFFFFFFFFFFFFFF AND DUP2 MSTORE PUSH1 0x20 ADD SWAP1 DUP2 MSTORE PUSH1 0x20 ADD PUSH1 0x0 KECCAK256 PUSH1 0x0 DUP3 DUP3 SLOAD PUSH2 0x1A54 SWAP2 SWAP1 PUSH2 0x2F68 JUMP JUMPDEST SWAP3 POP POP DUP2 SWAP1 SSTORE POP POP POP POP DUP1 PUSH2 0x1A68 SWAP1 PUSH2 0x322D JUMP JUMPDEST SWAP1 POP PUSH2 0x18C1 JUMP JUMPDEST POP DUP5 PUSH20 0xFFFFFFFFFFFFFFFFFFFFFFFFFFFFFFFFFFFFFFFF AND DUP7 PUSH20 0xFFFFFFFFFFFFFFFFFFFFFFFFFFFFFFFFFFFFFFFF AND DUP3 PUSH20 0xFFFFFFFFFFFFFFFFFFFFFFFFFFFFFFFFFFFFFFFF AND PUSH32 0x4A39DC06D4C0DBC64B70AF90FD698A233A518AA5D07E595D983B8C0526C8F7FB DUP8 DUP8 PUSH1 0x40 MLOAD PUSH2 0x1AE6 SWAP3 SWAP2 SWAP1 PUSH2 0x3804 JUMP JUMPDEST PUSH1 0x40 MLOAD DUP1 SWAP2 SUB SWAP1 LOG4 PUSH2 0x1AFC DUP2 DUP8 DUP8 DUP8 DUP8 DUP8 PUSH2 0x1597 JUMP JUMPDEST PUSH2 0x1B0A DUP2 DUP8 DUP8 DUP8 DUP8 DUP8 PUSH2 0x1F3E JUMP JUMPDEST POP POP POP POP POP POP JUMP JUMPDEST DUP2 PUSH20 0xFFFFFFFFFFFFFFFFFFFFFFFFFFFFFFFFFFFFFFFF AND DUP4 PUSH20 0xFFFFFFFFFFFFFFFFFFFFFFFFFFFFFFFFFFFFFFFF AND EQ ISZERO PUSH2 0x1B81 JUMPI PUSH1 0x40 MLOAD PUSH32 0x8C379A000000000000000000000000000000000000000000000000000000000 DUP2 MSTORE PUSH1 0x4 ADD PUSH2 0x1B78 SWAP1 PUSH2 0x38AD JUMP JUMPDEST PUSH1 0x40 MLOAD DUP1 SWAP2 SUB SWAP1 REVERT JUMPDEST DUP1 PUSH1 0x1 PUSH1 0x0 DUP6 PUSH20 0xFFFFFFFFFFFFFFFFFFFFFFFFFFFFFFFFFFFFFFFF AND PUSH20 0xFFFFFFFFFFFFFFFFFFFFFFFFFFFFFFFFFFFFFFFF AND DUP2 MSTORE PUSH1 0x20 ADD SWAP1 DUP2 MSTORE PUSH1 0x20 ADD PUSH1 0x0 KECCAK256 PUSH1 0x0 DUP5 PUSH20 0xFFFFFFFFFFFFFFFFFFFFFFFFFFFFFFFFFFFFFFFF AND PUSH20 0xFFFFFFFFFFFFFFFFFFFFFFFFFFFFFFFFFFFFFFFF AND DUP2 MSTORE PUSH1 0x20 ADD SWAP1 DUP2 MSTORE PUSH1 0x20 ADD PUSH1 0x0 KECCAK256 PUSH1 0x0 PUSH2 0x100 EXP DUP2 SLOAD DUP2 PUSH1 0xFF MUL NOT AND SWAP1 DUP4 ISZERO ISZERO MUL OR SWAP1 SSTORE POP DUP2 PUSH20 0xFFFFFFFFFFFFFFFFFFFFFFFFFFFFFFFFFFFFFFFF AND DUP4 PUSH20 0xFFFFFFFFFFFFFFFFFFFFFFFFFFFFFFFFFFFFFFFF AND PUSH32 0x17307EAB39AB6107E8899845AD3D59BD9653F200F220920489CA2B5937696C31 DUP4 PUSH1 0x40 MLOAD PUSH2 0x1C72 SWAP2 SWAP1 PUSH2 0x242F JUMP JUMPDEST PUSH1 0x40 MLOAD DUP1 SWAP2 SUB SWAP1 LOG3 POP POP POP JUMP JUMPDEST PUSH1 0x0 PUSH20 0xFFFFFFFFFFFFFFFFFFFFFFFFFFFFFFFFFFFFFFFF AND DUP5 PUSH20 0xFFFFFFFFFFFFFFFFFFFFFFFFFFFFFFFFFFFFFFFF AND EQ ISZERO PUSH2 0x1CEF JUMPI PUSH1 0x40 MLOAD PUSH32 0x8C379A000000000000000000000000000000000000000000000000000000000 DUP2 MSTORE PUSH1 0x4 ADD PUSH2 0x1CE6 SWAP1 PUSH2 0x3752 JUMP JUMPDEST PUSH1 0x40 MLOAD DUP1 SWAP2 SUB SWAP1 REVERT JUMPDEST PUSH1 0x0 PUSH2 0x1CF9 PUSH2 0x150D JUMP JUMPDEST SWAP1 POP PUSH1 0x0 PUSH2 0x1D06 DUP6 PUSH2 0x1515 JUMP JUMPDEST SWAP1 POP PUSH1 0x0 PUSH2 0x1D13 DUP6 PUSH2 0x1515 JUMP JUMPDEST SWAP1 POP PUSH2 0x1D23 DUP4 DUP10 DUP10 DUP6 DUP6 DUP10 PUSH2 0x158F JUMP JUMPDEST PUSH1 0x0 DUP1 PUSH1 0x0 DUP9 DUP2 MSTORE PUSH1 0x20 ADD SWAP1 DUP2 MSTORE PUSH1 0x20 ADD PUSH1 0x0 KECCAK256 PUSH1 0x0 DUP11 PUSH20 0xFFFFFFFFFFFFFFFFFFFFFFFFFFFFFFFFFFFFFFFF AND PUSH20 0xFFFFFFFFFFFFFFFFFFFFFFFFFFFFFFFFFFFFFFFF AND DUP2 MSTORE PUSH1 0x20 ADD SWAP1 DUP2 MSTORE PUSH1 0x20 ADD PUSH1 0x0 KECCAK256 SLOAD SWAP1 POP DUP6 DUP2 LT ISZERO PUSH2 0x1DBA JUMPI PUSH1 0x40 MLOAD PUSH32 0x8C379A000000000000000000000000000000000000000000000000000000000 DUP2 MSTORE PUSH1 0x4 ADD PUSH2 0x1DB1 SWAP1 PUSH2 0x37E4 JUMP JUMPDEST PUSH1 0x40 MLOAD DUP1 SWAP2 SUB SWAP1 REVERT JUMPDEST DUP6 DUP2 SUB PUSH1 0x0 DUP1 DUP10 DUP2 MSTORE PUSH1 0x20 ADD SWAP1 DUP2 MSTORE PUSH1 0x20 ADD PUSH1 0x0 KECCAK256 PUSH1 0x0 DUP12 PUSH20 0xFFFFFFFFFFFFFFFFFFFFFFFFFFFFFFFFFFFFFFFF AND PUSH20 0xFFFFFFFFFFFFFFFFFFFFFFFFFFFFFFFFFFFFFFFF AND DUP2 MSTORE PUSH1 0x20 ADD SWAP1 DUP2 MSTORE PUSH1 0x20 ADD PUSH1 0x0 KECCAK256 DUP2 SWAP1 SSTORE POP DUP6 PUSH1 0x0 DUP1 DUP10 DUP2 MSTORE PUSH1 0x20 ADD SWAP1 DUP2 MSTORE PUSH1 0x20 ADD PUSH1 0x0 KECCAK256 PUSH1 0x0 DUP11 PUSH20 0xFFFFFFFFFFFFFFFFFFFFFFFFFFFFFFFFFFFFFFFF AND PUSH20 0xFFFFFFFFFFFFFFFFFFFFFFFFFFFFFFFFFFFFFFFF AND DUP2 MSTORE PUSH1 0x20 ADD SWAP1 DUP2 MSTORE PUSH1 0x20 ADD PUSH1 0x0 KECCAK256 PUSH1 0x0 DUP3 DUP3 SLOAD PUSH2 0x1E6F SWAP2 SWAP1 PUSH2 0x2F68 JUMP JUMPDEST SWAP3 POP POP DUP2 SWAP1 SSTORE POP DUP8 PUSH20 0xFFFFFFFFFFFFFFFFFFFFFFFFFFFFFFFFFFFFFFFF AND DUP10 PUSH20 0xFFFFFFFFFFFFFFFFFFFFFFFFFFFFFFFFFFFFFFFF AND DUP6 PUSH20 0xFFFFFFFFFFFFFFFFFFFFFFFFFFFFFFFFFFFFFFFF AND PUSH32 0xC3D58168C5AE7397731D063D5BBF3D657854427343F4C083240F7AACAA2D0F62 DUP11 DUP11 PUSH1 0x40 MLOAD PUSH2 0x1EEC SWAP3 SWAP2 SWAP1 PUSH2 0x2FBE JUMP JUMPDEST PUSH1 0x40 MLOAD DUP1 SWAP2 SUB SWAP1 LOG4 PUSH2 0x1F02 DUP5 DUP11 DUP11 DUP7 DUP7 DUP11 PUSH2 0x1597 JUMP JUMPDEST PUSH2 0x1F10 DUP5 DUP11 DUP11 DUP11 DUP11 DUP11 PUSH2 0x159F JUMP JUMPDEST POP POP POP POP POP POP POP POP POP JUMP JUMPDEST PUSH1 0x0 DUP1 DUP3 PUSH20 0xFFFFFFFFFFFFFFFFFFFFFFFFFFFFFFFFFFFFFFFF AND EXTCODESIZE GT SWAP1 POP SWAP2 SWAP1 POP JUMP JUMPDEST PUSH2 0x1F5D DUP5 PUSH20 0xFFFFFFFFFFFFFFFFFFFFFFFFFFFFFFFFFFFFFFFF AND PUSH2 0x1F1B JUMP JUMPDEST ISZERO PUSH2 0x211D JUMPI DUP4 PUSH20 0xFFFFFFFFFFFFFFFFFFFFFFFFFFFFFFFFFFFFFFFF AND PUSH4 0xBC197C81 DUP8 DUP8 DUP7 DUP7 DUP7 PUSH1 0x40 MLOAD DUP7 PUSH4 0xFFFFFFFF AND PUSH1 0xE0 SHL DUP2 MSTORE PUSH1 0x4 ADD PUSH2 0x1FA3 SWAP6 SWAP5 SWAP4 SWAP3 SWAP2 SWAP1 PUSH2 0x38CD JUMP JUMPDEST PUSH1 0x20 PUSH1 0x40 MLOAD DUP1 DUP4 SUB DUP2 PUSH1 0x0 DUP8 DUP1 EXTCODESIZE ISZERO DUP1 ISZERO PUSH2 0x1FBD JUMPI PUSH1 0x0 DUP1 REVERT JUMPDEST POP GAS CALL SWAP3 POP POP POP DUP1 ISZERO PUSH2 0x1FEE JUMPI POP PUSH1 0x40 MLOAD RETURNDATASIZE PUSH1 0x1F NOT PUSH1 0x1F DUP3 ADD AND DUP3 ADD DUP1 PUSH1 0x40 MSTORE POP DUP2 ADD SWAP1 PUSH2 0x1FEB SWAP2 SWAP1 PUSH2 0x3438 JUMP JUMPDEST PUSH1 0x1 JUMPDEST PUSH2 0x2094 JUMPI PUSH2 0x1FFA PUSH2 0x3472 JUMP JUMPDEST DUP1 PUSH4 0x8C379A0 EQ ISZERO PUSH2 0x2057 JUMPI POP PUSH2 0x200F PUSH2 0x3494 JUMP JUMPDEST DUP1 PUSH2 0x201A JUMPI POP PUSH2 0x2059 JUMP JUMPDEST DUP1 PUSH1 0x40 MLOAD PUSH32 0x8C379A000000000000000000000000000000000000000000000000000000000 DUP2 MSTORE PUSH1 0x4 ADD PUSH2 0x204E SWAP2 SWAP1 PUSH2 0x24D2 JUMP JUMPDEST PUSH1 0x40 MLOAD DUP1 SWAP2 SUB SWAP1 REVERT JUMPDEST POP JUMPDEST PUSH1 0x40 MLOAD PUSH32 0x8C379A000000000000000000000000000000000000000000000000000000000 DUP2 MSTORE PUSH1 0x4 ADD PUSH2 0x208B SWAP1 PUSH2 0x359C JUMP JUMPDEST PUSH1 0x40 MLOAD DUP1 SWAP2 SUB SWAP1 REVERT JUMPDEST PUSH4 0xBC197C81 PUSH1 0xE0 SHL PUSH28 0xFFFFFFFFFFFFFFFFFFFFFFFFFFFFFFFFFFFFFFFFFFFFFFFFFFFFFFFF NOT AND DUP2 PUSH28 0xFFFFFFFFFFFFFFFFFFFFFFFFFFFFFFFFFFFFFFFFFFFFFFFFFFFFFFFF NOT AND EQ PUSH2 0x211B JUMPI PUSH1 0x40 MLOAD PUSH32 0x8C379A000000000000000000000000000000000000000000000000000000000 DUP2 MSTORE PUSH1 0x4 ADD PUSH2 0x2112 SWAP1 PUSH2 0x362E JUMP JUMPDEST PUSH1 0x40 MLOAD DUP1 SWAP2 SUB SWAP1 REVERT JUMPDEST POP JUMPDEST POP POP POP POP POP POP JUMP JUMPDEST DUP3 DUP1 SLOAD PUSH2 0x2131 SWAP1 PUSH2 0x30A8 JUMP JUMPDEST SWAP1 PUSH1 0x0 MSTORE PUSH1 0x20 PUSH1 0x0 KECCAK256 SWAP1 PUSH1 0x1F ADD PUSH1 0x20 SWAP1 DIV DUP2 ADD SWAP3 DUP3 PUSH2 0x2153 JUMPI PUSH1 0x0 DUP6 SSTORE PUSH2 0x219A JUMP JUMPDEST DUP3 PUSH1 0x1F LT PUSH2 0x216C JUMPI DUP1 MLOAD PUSH1 0xFF NOT AND DUP4 DUP1 ADD OR DUP6 SSTORE PUSH2 0x219A JUMP JUMPDEST DUP3 DUP1 ADD PUSH1 0x1 ADD DUP6 SSTORE DUP3 ISZERO PUSH2 0x219A JUMPI SWAP2 DUP3 ADD JUMPDEST DUP3 DUP2 GT ISZERO PUSH2 0x2199 JUMPI DUP3 MLOAD DUP3 SSTORE SWAP2 PUSH1 0x20 ADD SWAP2 SWAP1 PUSH1 0x1 ADD SWAP1 PUSH2 0x217E JUMP JUMPDEST JUMPDEST POP SWAP1 POP PUSH2 0x21A7 SWAP2 SWAP1 PUSH2 0x21AB JUMP JUMPDEST POP SWAP1 JUMP JUMPDEST JUMPDEST DUP1 DUP3 GT ISZERO PUSH2 0x21C4 JUMPI PUSH1 0x0 DUP2 PUSH1 0x0 SWAP1 SSTORE POP PUSH1 0x1 ADD PUSH2 0x21AC JUMP JUMPDEST POP SWAP1 JUMP JUMPDEST PUSH1 0x0 DUP3 DUP3 MSTORE PUSH1 0x20 DUP3 ADD SWAP1 POP SWAP3 SWAP2 POP POP JUMP JUMPDEST PUSH32 0x546869732063616D706169676E206973206E6F74206163746976650000000000 PUSH1 0x0 DUP3 ADD MSTORE POP JUMP JUMPDEST PUSH1 0x0 PUSH2 0x220F PUSH1 0x1B DUP4 PUSH2 0x21C8 JUMP JUMPDEST SWAP2 POP PUSH2 0x221A DUP3 PUSH2 0x21D9 JUMP JUMPDEST PUSH1 0x20 DUP3 ADD SWAP1 POP SWAP2 SWAP1 POP JUMP JUMPDEST PUSH1 0x0 PUSH1 0x20 DUP3 ADD SWAP1 POP DUP2 DUP2 SUB PUSH1 0x0 DUP4 ADD MSTORE PUSH2 0x223E DUP2 PUSH2 0x2202 JUMP JUMPDEST SWAP1 POP SWAP2 SWAP1 POP JUMP JUMPDEST PUSH1 0x0 PUSH20 0xFFFFFFFFFFFFFFFFFFFFFFFFFFFFFFFFFFFFFFFF DUP3 AND SWAP1 POP SWAP2 SWAP1 POP JUMP JUMPDEST PUSH1 0x0 PUSH2 0x2270 DUP3 PUSH2 0x2245 JUMP JUMPDEST SWAP1 POP SWAP2 SWAP1 POP JUMP JUMPDEST PUSH2 0x2280 DUP2 PUSH2 0x2265 JUMP JUMPDEST DUP3 MSTORE POP POP JUMP JUMPDEST PUSH1 0x0 DUP2 SWAP1 POP SWAP2 SWAP1 POP JUMP JUMPDEST PUSH2 0x2299 DUP2 PUSH2 0x2286 JUMP JUMPDEST DUP3 MSTORE POP POP JUMP JUMPDEST PUSH1 0x0 PUSH1 0x40 DUP3 ADD SWAP1 POP PUSH2 0x22B4 PUSH1 0x0 DUP4 ADD DUP6 PUSH2 0x2277 JUMP JUMPDEST PUSH2 0x22C1 PUSH1 0x20 DUP4 ADD DUP5 PUSH2 0x2290 JUMP JUMPDEST SWAP4 SWAP3 POP POP POP JUMP JUMPDEST PUSH1 0x0 PUSH1 0x40 MLOAD SWAP1 POP SWAP1 JUMP JUMPDEST PUSH1 0x0 DUP1 REVERT JUMPDEST PUSH1 0x0 DUP1 REVERT JUMPDEST PUSH2 0x22E5 DUP2 PUSH2 0x2265 JUMP JUMPDEST DUP2 EQ PUSH2 0x22F0 JUMPI PUSH1 0x0 DUP1 REVERT JUMPDEST POP JUMP JUMPDEST PUSH1 0x0 DUP2 CALLDATALOAD SWAP1 POP PUSH2 0x2302 DUP2 PUSH2 0x22DC JUMP JUMPDEST SWAP3 SWAP2 POP POP JUMP JUMPDEST PUSH2 0x2311 DUP2 PUSH2 0x2286 JUMP JUMPDEST DUP2 EQ PUSH2 0x231C JUMPI PUSH1 0x0 DUP1 REVERT JUMPDEST POP JUMP JUMPDEST PUSH1 0x0 DUP2 CALLDATALOAD SWAP1 POP PUSH2 0x232E DUP2 PUSH2 0x2308 JUMP JUMPDEST SWAP3 SWAP2 POP POP JUMP JUMPDEST PUSH1 0x0 DUP1 PUSH1 0x40 DUP4 DUP6 SUB SLT ISZERO PUSH2 0x234B JUMPI PUSH2 0x234A PUSH2 0x22D2 JUMP JUMPDEST JUMPDEST PUSH1 0x0 PUSH2 0x2359 DUP6 DUP3 DUP7 ADD PUSH2 0x22F3 JUMP JUMPDEST SWAP3 POP POP PUSH1 0x20 PUSH2 0x236A DUP6 DUP3 DUP7 ADD PUSH2 0x231F JUMP JUMPDEST SWAP2 POP POP SWAP3 POP SWAP3 SWAP1 POP JUMP JUMPDEST PUSH1 0x0 PUSH1 0x20 DUP3 ADD SWAP1 POP PUSH2 0x2389 PUSH1 0x0 DUP4 ADD DUP5 PUSH2 0x2290 JUMP JUMPDEST SWAP3 SWAP2 POP POP JUMP JUMPDEST PUSH1 0x0 PUSH32 0xFFFFFFFF00000000000000000000000000000000000000000000000000000000 DUP3 AND SWAP1 POP SWAP2 SWAP1 POP JUMP JUMPDEST PUSH2 0x23C4 DUP2 PUSH2 0x238F JUMP JUMPDEST DUP2 EQ PUSH2 0x23CF JUMPI PUSH1 0x0 DUP1 REVERT JUMPDEST POP JUMP JUMPDEST PUSH1 0x0 DUP2 CALLDATALOAD SWAP1 POP PUSH2 0x23E1 DUP2 PUSH2 0x23BB JUMP JUMPDEST SWAP3 SWAP2 POP POP JUMP JUMPDEST PUSH1 0x0 PUSH1 0x20 DUP3 DUP5 SUB SLT ISZERO PUSH2 0x23FD JUMPI PUSH2 0x23FC PUSH2 0x22D2 JUMP JUMPDEST JUMPDEST PUSH1 0x0 PUSH2 0x240B DUP5 DUP3 DUP6 ADD PUSH2 0x23D2 JUMP JUMPDEST SWAP2 POP POP SWAP3 SWAP2 POP POP JUMP JUMPDEST PUSH1 0x0 DUP2 ISZERO ISZERO SWAP1 POP SWAP2 SWAP1 POP JUMP JUMPDEST PUSH2 0x2429 DUP2 PUSH2 0x2414 JUMP JUMPDEST DUP3 MSTORE POP POP JUMP JUMPDEST PUSH1 0x0 PUSH1 0x20 DUP3 ADD SWAP1 POP PUSH2 0x2444 PUSH1 0x0 DUP4 ADD DUP5 PUSH2 0x2420 JUMP JUMPDEST SWAP3 SWAP2 POP POP JUMP JUMPDEST PUSH1 0x0 DUP2 MLOAD SWAP1 POP SWAP2 SWAP1 POP JUMP JUMPDEST PUSH1 0x0 JUMPDEST DUP4 DUP2 LT ISZERO PUSH2 0x2473 JUMPI DUP1 DUP3 ADD MLOAD DUP2 DUP5 ADD MSTORE PUSH1 0x20 DUP2 ADD SWAP1 POP PUSH2 0x2458 JUMP JUMPDEST DUP4 DUP2 GT ISZERO PUSH2 0x2482 JUMPI PUSH1 0x0 DUP5 DUP5 ADD MSTORE JUMPDEST POP POP POP POP JUMP JUMPDEST PUSH1 0x0 PUSH1 0x1F NOT PUSH1 0x1F DUP4 ADD AND SWAP1 POP SWAP2 SWAP1 POP JUMP JUMPDEST PUSH1 0x0 PUSH2 0x24A4 DUP3 PUSH2 0x244A JUMP JUMPDEST PUSH2 0x24AE DUP2 DUP6 PUSH2 0x21C8 JUMP JUMPDEST SWAP4 POP PUSH2 0x24BE DUP2 DUP6 PUSH1 0x20 DUP7 ADD PUSH2 0x2455 JUMP JUMPDEST PUSH2 0x24C7 DUP2 PUSH2 0x2488 JUMP JUMPDEST DUP5 ADD SWAP2 POP POP SWAP3 SWAP2 POP POP JUMP JUMPDEST PUSH1 0x0 PUSH1 0x20 DUP3 ADD SWAP1 POP DUP2 DUP2 SUB PUSH1 0x0 DUP4 ADD MSTORE PUSH2 0x24EC DUP2 DUP5 PUSH2 0x2499 JUMP JUMPDEST SWAP1 POP SWAP3 SWAP2 POP POP JUMP JUMPDEST PUSH1 0x0 PUSH1 0x20 DUP3 DUP5 SUB SLT ISZERO PUSH2 0x250A JUMPI PUSH2 0x2509 PUSH2 0x22D2 JUMP JUMPDEST JUMPDEST PUSH1 0x0 PUSH2 0x2518 DUP5 DUP3 DUP6 ADD PUSH2 0x231F JUMP JUMPDEST SWAP2 POP POP SWAP3 SWAP2 POP POP JUMP JUMPDEST PUSH1 0x0 DUP1 REVERT JUMPDEST PUSH32 0x4E487B7100000000000000000000000000000000000000000000000000000000 PUSH1 0x0 MSTORE PUSH1 0x41 PUSH1 0x4 MSTORE PUSH1 0x24 PUSH1 0x0 REVERT JUMPDEST PUSH2 0x255E DUP3 PUSH2 0x2488 JUMP JUMPDEST DUP2 ADD DUP2 DUP2 LT PUSH8 0xFFFFFFFFFFFFFFFF DUP3 GT OR ISZERO PUSH2 0x257D JUMPI PUSH2 0x257C PUSH2 0x2526 JUMP JUMPDEST JUMPDEST DUP1 PUSH1 0x40 MSTORE POP POP POP JUMP JUMPDEST PUSH1 0x0 PUSH2 0x2590 PUSH2 0x22C8 JUMP JUMPDEST SWAP1 POP PUSH2 0x259C DUP3 DUP3 PUSH2 0x2555 JUMP JUMPDEST SWAP2 SWAP1 POP JUMP JUMPDEST PUSH1 0x0 PUSH8 0xFFFFFFFFFFFFFFFF DUP3 GT ISZERO PUSH2 0x25BC JUMPI PUSH2 0x25BB PUSH2 0x2526 JUMP JUMPDEST JUMPDEST PUSH1 0x20 DUP3 MUL SWAP1 POP PUSH1 0x20 DUP2 ADD SWAP1 POP SWAP2 SWAP1 POP JUMP JUMPDEST PUSH1 0x0 DUP1 REVERT JUMPDEST PUSH1 0x0 PUSH2 0x25E5 PUSH2 0x25E0 DUP5 PUSH2 0x25A1 JUMP JUMPDEST PUSH2 0x2586 JUMP JUMPDEST SWAP1 POP DUP1 DUP4 DUP3 MSTORE PUSH1 0x20 DUP3 ADD SWAP1 POP PUSH1 0x20 DUP5 MUL DUP4 ADD DUP6 DUP2 GT ISZERO PUSH2 0x2608 JUMPI PUSH2 0x2607 PUSH2 0x25CD JUMP JUMPDEST JUMPDEST DUP4 JUMPDEST DUP2 DUP2 LT ISZERO PUSH2 0x2631 JUMPI DUP1 PUSH2 0x261D DUP9 DUP3 PUSH2 0x231F JUMP JUMPDEST DUP5 MSTORE PUSH1 0x20 DUP5 ADD SWAP4 POP POP PUSH1 0x20 DUP2 ADD SWAP1 POP PUSH2 0x260A JUMP JUMPDEST POP POP POP SWAP4 SWAP3 POP POP POP JUMP JUMPDEST PUSH1 0x0 DUP3 PUSH1 0x1F DUP4 ADD SLT PUSH2 0x2650 JUMPI PUSH2 0x264F PUSH2 0x2521 JUMP JUMPDEST JUMPDEST DUP2 CALLDATALOAD PUSH2 0x2660 DUP5 DUP3 PUSH1 0x20 DUP7 ADD PUSH2 0x25D2 JUMP JUMPDEST SWAP2 POP POP SWAP3 SWAP2 POP POP JUMP JUMPDEST PUSH1 0x0 DUP1 REVERT JUMPDEST PUSH1 0x0 PUSH8 0xFFFFFFFFFFFFFFFF DUP3 GT ISZERO PUSH2 0x2689 JUMPI PUSH2 0x2688 PUSH2 0x2526 JUMP JUMPDEST JUMPDEST PUSH2 0x2692 DUP3 PUSH2 0x2488 JUMP JUMPDEST SWAP1 POP PUSH1 0x20 DUP2 ADD SWAP1 POP SWAP2 SWAP1 POP JUMP JUMPDEST DUP3 DUP2 DUP4 CALLDATACOPY PUSH1 0x0 DUP4 DUP4 ADD MSTORE POP POP POP JUMP JUMPDEST PUSH1 0x0 PUSH2 0x26C1 PUSH2 0x26BC DUP5 PUSH2 0x266E JUMP JUMPDEST PUSH2 0x2586 JUMP JUMPDEST SWAP1 POP DUP3 DUP2 MSTORE PUSH1 0x20 DUP2 ADD DUP5 DUP5 DUP5 ADD GT ISZERO PUSH2 0x26DD JUMPI PUSH2 0x26DC PUSH2 0x2669 JUMP JUMPDEST JUMPDEST PUSH2 0x26E8 DUP5 DUP3 DUP6 PUSH2 0x269F JUMP JUMPDEST POP SWAP4 SWAP3 POP POP POP JUMP JUMPDEST PUSH1 0x0 DUP3 PUSH1 0x1F DUP4 ADD SLT PUSH2 0x2705 JUMPI PUSH2 0x2704 PUSH2 0x2521 JUMP JUMPDEST JUMPDEST DUP2 CALLDATALOAD PUSH2 0x2715 DUP5 DUP3 PUSH1 0x20 DUP7 ADD PUSH2 0x26AE JUMP JUMPDEST SWAP2 POP POP SWAP3 SWAP2 POP POP JUMP JUMPDEST PUSH1 0x0 DUP1 PUSH1 0x0 DUP1 PUSH1 0x0 PUSH1 0xA0 DUP7 DUP9 SUB SLT ISZERO PUSH2 0x273A JUMPI PUSH2 0x2739 PUSH2 0x22D2 JUMP JUMPDEST JUMPDEST PUSH1 0x0 PUSH2 0x2748 DUP9 DUP3 DUP10 ADD PUSH2 0x22F3 JUMP JUMPDEST SWAP6 POP POP PUSH1 0x20 PUSH2 0x2759 DUP9 DUP3 DUP10 ADD PUSH2 0x22F3 JUMP JUMPDEST SWAP5 POP POP PUSH1 0x40 DUP7 ADD CALLDATALOAD PUSH8 0xFFFFFFFFFFFFFFFF DUP2 GT ISZERO PUSH2 0x277A JUMPI PUSH2 0x2779 PUSH2 0x22D7 JUMP JUMPDEST JUMPDEST PUSH2 0x2786 DUP9 DUP3 DUP10 ADD PUSH2 0x263B JUMP JUMPDEST SWAP4 POP POP PUSH1 0x60 DUP7 ADD CALLDATALOAD PUSH8 0xFFFFFFFFFFFFFFFF DUP2 GT ISZERO PUSH2 0x27A7 JUMPI PUSH2 0x27A6 PUSH2 0x22D7 JUMP JUMPDEST JUMPDEST PUSH2 0x27B3 DUP9 DUP3 DUP10 ADD PUSH2 0x263B JUMP JUMPDEST SWAP3 POP POP PUSH1 0x80 DUP7 ADD CALLDATALOAD PUSH8 0xFFFFFFFFFFFFFFFF DUP2 GT ISZERO PUSH2 0x27D4 JUMPI PUSH2 0x27D3 PUSH2 0x22D7 JUMP JUMPDEST JUMPDEST PUSH2 0x27E0 DUP9 DUP3 DUP10 ADD PUSH2 0x26F0 JUMP JUMPDEST SWAP2 POP POP SWAP3 SWAP6 POP SWAP3 SWAP6 SWAP1 SWAP4 POP JUMP JUMPDEST PUSH1 0x0 PUSH1 0x60 DUP3 ADD SWAP1 POP DUP2 DUP2 SUB PUSH1 0x0 DUP4 ADD MSTORE PUSH2 0x2807 DUP2 DUP7 PUSH2 0x2499 JUMP JUMPDEST SWAP1 POP DUP2 DUP2 SUB PUSH1 0x20 DUP4 ADD MSTORE PUSH2 0x281B DUP2 DUP6 PUSH2 0x2499 JUMP JUMPDEST SWAP1 POP PUSH2 0x282A PUSH1 0x40 DUP4 ADD DUP5 PUSH2 0x2277 JUMP JUMPDEST SWAP5 SWAP4 POP POP POP POP JUMP JUMPDEST PUSH1 0x0 PUSH8 0xFFFFFFFFFFFFFFFF DUP3 GT ISZERO PUSH2 0x284D JUMPI PUSH2 0x284C PUSH2 0x2526 JUMP JUMPDEST JUMPDEST PUSH1 0x20 DUP3 MUL SWAP1 POP PUSH1 0x20 DUP2 ADD SWAP1 POP SWAP2 SWAP1 POP JUMP JUMPDEST PUSH1 0x0 PUSH2 0x2871 PUSH2 0x286C DUP5 PUSH2 0x2832 JUMP JUMPDEST PUSH2 0x2586 JUMP JUMPDEST SWAP1 POP DUP1 DUP4 DUP3 MSTORE PUSH1 0x20 DUP3 ADD SWAP1 POP PUSH1 0x20 DUP5 MUL DUP4 ADD DUP6 DUP2 GT ISZERO PUSH2 0x2894 JUMPI PUSH2 0x2893 PUSH2 0x25CD JUMP JUMPDEST JUMPDEST DUP4 JUMPDEST DUP2 DUP2 LT ISZERO PUSH2 0x28BD JUMPI DUP1 PUSH2 0x28A9 DUP9 DUP3 PUSH2 0x22F3 JUMP JUMPDEST DUP5 MSTORE PUSH1 0x20 DUP5 ADD SWAP4 POP POP PUSH1 0x20 DUP2 ADD SWAP1 POP PUSH2 0x2896 JUMP JUMPDEST POP POP POP SWAP4 SWAP3 POP POP POP JUMP JUMPDEST PUSH1 0x0 DUP3 PUSH1 0x1F DUP4 ADD SLT PUSH2 0x28DC JUMPI PUSH2 0x28DB PUSH2 0x2521 JUMP JUMPDEST JUMPDEST DUP2 CALLDATALOAD PUSH2 0x28EC DUP5 DUP3 PUSH1 0x20 DUP7 ADD PUSH2 0x285E JUMP JUMPDEST SWAP2 POP POP SWAP3 SWAP2 POP POP JUMP JUMPDEST PUSH1 0x0 DUP1 PUSH1 0x40 DUP4 DUP6 SUB SLT ISZERO PUSH2 0x290C JUMPI PUSH2 0x290B PUSH2 0x22D2 JUMP JUMPDEST JUMPDEST PUSH1 0x0 DUP4 ADD CALLDATALOAD PUSH8 0xFFFFFFFFFFFFFFFF DUP2 GT ISZERO PUSH2 0x292A JUMPI PUSH2 0x2929 PUSH2 0x22D7 JUMP JUMPDEST JUMPDEST PUSH2 0x2936 DUP6 DUP3 DUP7 ADD PUSH2 0x28C7 JUMP JUMPDEST SWAP3 POP POP PUSH1 0x20 DUP4 ADD CALLDATALOAD PUSH8 0xFFFFFFFFFFFFFFFF DUP2 GT ISZERO PUSH2 0x2957 JUMPI PUSH2 0x2956 PUSH2 0x22D7 JUMP JUMPDEST JUMPDEST PUSH2 0x2963 DUP6 DUP3 DUP7 ADD PUSH2 0x263B JUMP JUMPDEST SWAP2 POP POP SWAP3 POP SWAP3 SWAP1 POP JUMP JUMPDEST PUSH1 0x0 DUP2 MLOAD SWAP1 POP SWAP2 SWAP1 POP JUMP JUMPDEST PUSH1 0x0 DUP3 DUP3 MSTORE PUSH1 0x20 DUP3 ADD SWAP1 POP SWAP3 SWAP2 POP POP JUMP JUMPDEST PUSH1 0x0 DUP2 SWAP1 POP PUSH1 0x20 DUP3 ADD SWAP1 POP SWAP2 SWAP1 POP JUMP JUMPDEST PUSH2 0x29A2 DUP2 PUSH2 0x2286 JUMP JUMPDEST DUP3 MSTORE POP POP JUMP JUMPDEST PUSH1 0x0 PUSH2 0x29B4 DUP4 DUP4 PUSH2 0x2999 JUMP JUMPDEST PUSH1 0x20 DUP4 ADD SWAP1 POP SWAP3 SWAP2 POP POP JUMP JUMPDEST PUSH1 0x0 PUSH1 0x20 DUP3 ADD SWAP1 POP SWAP2 SWAP1 POP JUMP JUMPDEST PUSH1 0x0 PUSH2 0x29D8 DUP3 PUSH2 0x296D JUMP JUMPDEST PUSH2 0x29E2 DUP2 DUP6 PUSH2 0x2978 JUMP JUMPDEST SWAP4 POP PUSH2 0x29ED DUP4 PUSH2 0x2989 JUMP JUMPDEST DUP1 PUSH1 0x0 JUMPDEST DUP4 DUP2 LT ISZERO PUSH2 0x2A1E JUMPI DUP2 MLOAD PUSH2 0x2A05 DUP9 DUP3 PUSH2 0x29A8 JUMP JUMPDEST SWAP8 POP PUSH2 0x2A10 DUP4 PUSH2 0x29C0 JUMP JUMPDEST SWAP3 POP POP PUSH1 0x1 DUP2 ADD SWAP1 POP PUSH2 0x29F1 JUMP JUMPDEST POP DUP6 SWAP4 POP POP POP POP SWAP3 SWAP2 POP POP JUMP JUMPDEST PUSH1 0x0 PUSH1 0x20 DUP3 ADD SWAP1 POP DUP2 DUP2 SUB PUSH1 0x0 DUP4 ADD MSTORE PUSH2 0x2A45 DUP2 DUP5 PUSH2 0x29CD JUMP JUMPDEST SWAP1 POP SWAP3 SWAP2 POP POP JUMP JUMPDEST PUSH1 0x0 PUSH8 0xFFFFFFFFFFFFFFFF DUP3 GT ISZERO PUSH2 0x2A68 JUMPI PUSH2 0x2A67 PUSH2 0x2526 JUMP JUMPDEST JUMPDEST PUSH2 0x2A71 DUP3 PUSH2 0x2488 JUMP JUMPDEST SWAP1 POP PUSH1 0x20 DUP2 ADD SWAP1 POP SWAP2 SWAP1 POP JUMP JUMPDEST PUSH1 0x0 PUSH2 0x2A91 PUSH2 0x2A8C DUP5 PUSH2 0x2A4D JUMP JUMPDEST PUSH2 0x2586 JUMP JUMPDEST SWAP1 POP DUP3 DUP2 MSTORE PUSH1 0x20 DUP2 ADD DUP5 DUP5 DUP5 ADD GT ISZERO PUSH2 0x2AAD JUMPI PUSH2 0x2AAC PUSH2 0x2669 JUMP JUMPDEST JUMPDEST PUSH2 0x2AB8 DUP5 DUP3 DUP6 PUSH2 0x269F JUMP JUMPDEST POP SWAP4 SWAP3 POP POP POP JUMP JUMPDEST PUSH1 0x0 DUP3 PUSH1 0x1F DUP4 ADD SLT PUSH2 0x2AD5 JUMPI PUSH2 0x2AD4 PUSH2 0x2521 JUMP JUMPDEST JUMPDEST DUP2 CALLDATALOAD PUSH2 0x2AE5 DUP5 DUP3 PUSH1 0x20 DUP7 ADD PUSH2 0x2A7E JUMP JUMPDEST SWAP2 POP POP SWAP3 SWAP2 POP POP JUMP JUMPDEST PUSH1 0x0 DUP1 PUSH1 0x0 PUSH1 0x60 DUP5 DUP7 SUB SLT ISZERO PUSH2 0x2B07 JUMPI PUSH2 0x2B06 PUSH2 0x22D2 JUMP JUMPDEST JUMPDEST PUSH1 0x0 DUP5 ADD CALLDATALOAD PUSH8 0xFFFFFFFFFFFFFFFF DUP2 GT ISZERO PUSH2 0x2B25 JUMPI PUSH2 0x2B24 PUSH2 0x22D7 JUMP JUMPDEST JUMPDEST PUSH2 0x2B31 DUP7 DUP3 DUP8 ADD PUSH2 0x2AC0 JUMP JUMPDEST SWAP4 POP POP PUSH1 0x20 DUP5 ADD CALLDATALOAD PUSH8 0xFFFFFFFFFFFFFFFF DUP2 GT ISZERO PUSH2 0x2B52 JUMPI PUSH2 0x2B51 PUSH2 0x22D7 JUMP JUMPDEST JUMPDEST PUSH2 0x2B5E DUP7 DUP3 DUP8 ADD PUSH2 0x2AC0 JUMP JUMPDEST SWAP3 POP POP PUSH1 0x40 PUSH2 0x2B6F DUP7 DUP3 DUP8 ADD PUSH2 0x22F3 JUMP JUMPDEST SWAP2 POP POP SWAP3 POP SWAP3 POP SWAP3 JUMP JUMPDEST PUSH1 0x0 PUSH1 0x20 DUP3 ADD SWAP1 POP PUSH2 0x2B8E PUSH1 0x0 DUP4 ADD DUP5 PUSH2 0x2277 JUMP JUMPDEST SWAP3 SWAP2 POP POP JUMP JUMPDEST PUSH1 0x0 DUP2 MLOAD SWAP1 POP SWAP2 SWAP1 POP JUMP JUMPDEST PUSH1 0x0 DUP3 DUP3 MSTORE PUSH1 0x20 DUP3 ADD SWAP1 POP SWAP3 SWAP2 POP POP JUMP JUMPDEST PUSH1 0x0 DUP2 SWAP1 POP PUSH1 0x20 DUP3 ADD SWAP1 POP SWAP2 SWAP1 POP JUMP JUMPDEST PUSH1 0x0 DUP3 DUP3 MSTORE PUSH1 0x20 DUP3 ADD SWAP1 POP SWAP3 SWAP2 POP POP JUMP JUMPDEST PUSH1 0x0 PUSH2 0x2BDC DUP3 PUSH2 0x244A JUMP JUMPDEST PUSH2 0x2BE6 DUP2 DUP6 PUSH2 0x2BC0 JUMP JUMPDEST SWAP4 POP PUSH2 0x2BF6 DUP2 DUP6 PUSH1 0x20 DUP7 ADD PUSH2 0x2455 JUMP JUMPDEST PUSH2 0x2BFF DUP2 PUSH2 0x2488 JUMP JUMPDEST DUP5 ADD SWAP2 POP POP SWAP3 SWAP2 POP POP JUMP JUMPDEST PUSH2 0x2C13 DUP2 PUSH2 0x2265 JUMP JUMPDEST DUP3 MSTORE POP POP JUMP JUMPDEST PUSH1 0x0 PUSH1 0x60 DUP4 ADD PUSH1 0x0 DUP4 ADD MLOAD DUP5 DUP3 SUB PUSH1 0x0 DUP7 ADD MSTORE PUSH2 0x2C36 DUP3 DUP3 PUSH2 0x2BD1 JUMP JUMPDEST SWAP2 POP POP PUSH1 0x20 DUP4 ADD MLOAD DUP5 DUP3 SUB PUSH1 0x20 DUP7 ADD MSTORE PUSH2 0x2C50 DUP3 DUP3 PUSH2 0x2BD1 JUMP JUMPDEST SWAP2 POP POP PUSH1 0x40 DUP4 ADD MLOAD PUSH2 0x2C65 PUSH1 0x40 DUP7 ADD DUP3 PUSH2 0x2C0A JUMP JUMPDEST POP DUP1 SWAP2 POP POP SWAP3 SWAP2 POP POP JUMP JUMPDEST PUSH1 0x0 PUSH2 0x2C7C DUP4 DUP4 PUSH2 0x2C19 JUMP JUMPDEST SWAP1 POP SWAP3 SWAP2 POP POP JUMP JUMPDEST PUSH1 0x0 PUSH1 0x20 DUP3 ADD SWAP1 POP SWAP2 SWAP1 POP JUMP JUMPDEST PUSH1 0x0 PUSH2 0x2C9C DUP3 PUSH2 0x2B94 JUMP JUMPDEST PUSH2 0x2CA6 DUP2 DUP6 PUSH2 0x2B9F JUMP JUMPDEST SWAP4 POP DUP4 PUSH1 0x20 DUP3 MUL DUP6 ADD PUSH2 0x2CB8 DUP6 PUSH2 0x2BB0 JUMP JUMPDEST DUP1 PUSH1 0x0 JUMPDEST DUP6 DUP2 LT ISZERO PUSH2 0x2CF4 JUMPI DUP5 DUP5 SUB DUP10 MSTORE DUP2 MLOAD PUSH2 0x2CD5 DUP6 DUP3 PUSH2 0x2C70 JUMP JUMPDEST SWAP5 POP PUSH2 0x2CE0 DUP4 PUSH2 0x2C84 JUMP JUMPDEST SWAP3 POP PUSH1 0x20 DUP11 ADD SWAP10 POP POP PUSH1 0x1 DUP2 ADD SWAP1 POP PUSH2 0x2CBC JUMP JUMPDEST POP DUP3 SWAP8 POP DUP8 SWAP6 POP POP POP POP POP POP SWAP3 SWAP2 POP POP JUMP JUMPDEST PUSH1 0x0 PUSH1 0x20 DUP3 ADD SWAP1 POP DUP2 DUP2 SUB PUSH1 0x0 DUP4 ADD MSTORE PUSH2 0x2D20 DUP2 DUP5 PUSH2 0x2C91 JUMP JUMPDEST SWAP1 POP SWAP3 SWAP2 POP POP JUMP JUMPDEST PUSH2 0x2D31 DUP2 PUSH2 0x2414 JUMP JUMPDEST DUP2 EQ PUSH2 0x2D3C JUMPI PUSH1 0x0 DUP1 REVERT JUMPDEST POP JUMP JUMPDEST PUSH1 0x0 DUP2 CALLDATALOAD SWAP1 POP PUSH2 0x2D4E DUP2 PUSH2 0x2D28 JUMP JUMPDEST SWAP3 SWAP2 POP POP JUMP JUMPDEST PUSH1 0x0 DUP1 PUSH1 0x40 DUP4 DUP6 SUB SLT ISZERO PUSH2 0x2D6B JUMPI PUSH2 0x2D6A PUSH2 0x22D2 JUMP JUMPDEST JUMPDEST PUSH1 0x0 PUSH2 0x2D79 DUP6 DUP3 DUP7 ADD PUSH2 0x22F3 JUMP JUMPDEST SWAP3 POP POP PUSH1 0x20 PUSH2 0x2D8A DUP6 DUP3 DUP7 ADD PUSH2 0x2D3F JUMP JUMPDEST SWAP2 POP POP SWAP3 POP SWAP3 SWAP1 POP JUMP JUMPDEST PUSH1 0x0 DUP1 PUSH1 0x40 DUP4 DUP6 SUB SLT ISZERO PUSH2 0x2DAB JUMPI PUSH2 0x2DAA PUSH2 0x22D2 JUMP JUMPDEST JUMPDEST PUSH1 0x0 PUSH2 0x2DB9 DUP6 DUP3 DUP7 ADD PUSH2 0x22F3 JUMP JUMPDEST SWAP3 POP POP PUSH1 0x20 PUSH2 0x2DCA DUP6 DUP3 DUP7 ADD PUSH2 0x22F3 JUMP JUMPDEST SWAP2 POP POP SWAP3 POP SWAP3 SWAP1 POP JUMP JUMPDEST PUSH1 0x0 DUP1 PUSH1 0x0 DUP1 PUSH1 0x0 PUSH1 0xA0 DUP7 DUP9 SUB SLT ISZERO PUSH2 0x2DF0 JUMPI PUSH2 0x2DEF PUSH2 0x22D2 JUMP JUMPDEST JUMPDEST PUSH1 0x0 PUSH2 0x2DFE DUP9 DUP3 DUP10 ADD PUSH2 0x22F3 JUMP JUMPDEST SWAP6 POP POP PUSH1 0x20 PUSH2 0x2E0F DUP9 DUP3 DUP10 ADD PUSH2 0x22F3 JUMP JUMPDEST SWAP5 POP POP PUSH1 0x40 PUSH2 0x2E20 DUP9 DUP3 DUP10 ADD PUSH2 0x231F JUMP JUMPDEST SWAP4 POP POP PUSH1 0x60 PUSH2 0x2E31 DUP9 DUP3 DUP10 ADD PUSH2 0x231F JUMP JUMPDEST SWAP3 POP POP PUSH1 0x80 DUP7 ADD CALLDATALOAD PUSH8 0xFFFFFFFFFFFFFFFF DUP2 GT ISZERO PUSH2 0x2E52 JUMPI PUSH2 0x2E51 PUSH2 0x22D7 JUMP JUMPDEST JUMPDEST PUSH2 0x2E5E DUP9 DUP3 DUP10 ADD PUSH2 0x26F0 JUMP JUMPDEST SWAP2 POP POP SWAP3 SWAP6 POP SWAP3 SWAP6 SWAP1 SWAP4 POP JUMP JUMPDEST PUSH1 0x0 PUSH2 0x2E76 DUP3 PUSH2 0x2245 JUMP JUMPDEST SWAP1 POP SWAP2 SWAP1 POP JUMP JUMPDEST PUSH2 0x2E86 DUP2 PUSH2 0x2E6B JUMP JUMPDEST DUP3 MSTORE POP POP JUMP JUMPDEST PUSH1 0x0 PUSH1 0x20 DUP3 ADD SWAP1 POP PUSH2 0x2EA1 PUSH1 0x0 DUP4 ADD DUP5 PUSH2 0x2E7D JUMP JUMPDEST SWAP3 SWAP2 POP POP JUMP JUMPDEST PUSH32 0x455243313135353A206D696E7420746F20746865207A65726F20616464726573 PUSH1 0x0 DUP3 ADD MSTORE PUSH32 0x7300000000000000000000000000000000000000000000000000000000000000 PUSH1 0x20 DUP3 ADD MSTORE POP JUMP JUMPDEST PUSH1 0x0 PUSH2 0x2F03 PUSH1 0x21 DUP4 PUSH2 0x21C8 JUMP JUMPDEST SWAP2 POP PUSH2 0x2F0E DUP3 PUSH2 0x2EA7 JUMP JUMPDEST PUSH1 0x40 DUP3 ADD SWAP1 POP SWAP2 SWAP1 POP JUMP JUMPDEST PUSH1 0x0 PUSH1 0x20 DUP3 ADD SWAP1 POP DUP2 DUP2 SUB PUSH1 0x0 DUP4 ADD MSTORE PUSH2 0x2F32 DUP2 PUSH2 0x2EF6 JUMP JUMPDEST SWAP1 POP SWAP2 SWAP1 POP JUMP JUMPDEST PUSH32 0x4E487B7100000000000000000000000000000000000000000000000000000000 PUSH1 0x0 MSTORE PUSH1 0x11 PUSH1 0x4 MSTORE PUSH1 0x24 PUSH1 0x0 REVERT JUMPDEST PUSH1 0x0 PUSH2 0x2F73 DUP3 PUSH2 0x2286 JUMP JUMPDEST SWAP2 POP PUSH2 0x2F7E DUP4 PUSH2 0x2286 JUMP JUMPDEST SWAP3 POP DUP3 PUSH32 0xFFFFFFFFFFFFFFFFFFFFFFFFFFFFFFFFFFFFFFFFFFFFFFFFFFFFFFFFFFFFFFFF SUB DUP3 GT ISZERO PUSH2 0x2FB3 JUMPI PUSH2 0x2FB2 PUSH2 0x2F39 JUMP JUMPDEST JUMPDEST DUP3 DUP3 ADD SWAP1 POP SWAP3 SWAP2 POP POP JUMP JUMPDEST PUSH1 0x0 PUSH1 0x40 DUP3 ADD SWAP1 POP PUSH2 0x2FD3 PUSH1 0x0 DUP4 ADD DUP6 PUSH2 0x2290 JUMP JUMPDEST PUSH2 0x2FE0 PUSH1 0x20 DUP4 ADD DUP5 PUSH2 0x2290 JUMP JUMPDEST SWAP4 SWAP3 POP POP POP JUMP JUMPDEST PUSH32 0x455243313135353A2061646472657373207A65726F206973206E6F7420612076 PUSH1 0x0 DUP3 ADD MSTORE PUSH32 0x616C6964206F776E657200000000000000000000000000000000000000000000 PUSH1 0x20 DUP3 ADD MSTORE POP JUMP JUMPDEST PUSH1 0x0 PUSH2 0x3043 PUSH1 0x2A DUP4 PUSH2 0x21C8 JUMP JUMPDEST SWAP2 POP PUSH2 0x304E DUP3 PUSH2 0x2FE7 JUMP JUMPDEST PUSH1 0x40 DUP3 ADD SWAP1 POP SWAP2 SWAP1 POP JUMP JUMPDEST PUSH1 0x0 PUSH1 0x20 DUP3 ADD SWAP1 POP DUP2 DUP2 SUB PUSH1 0x0 DUP4 ADD MSTORE PUSH2 0x3072 DUP2 PUSH2 0x3036 JUMP JUMPDEST SWAP1 POP SWAP2 SWAP1 POP JUMP JUMPDEST PUSH32 0x4E487B7100000000000000000000000000000000000000000000000000000000 PUSH1 0x0 MSTORE PUSH1 0x22 PUSH1 0x4 MSTORE PUSH1 0x24 PUSH1 0x0 REVERT JUMPDEST PUSH1 0x0 PUSH1 0x2 DUP3 DIV SWAP1 POP PUSH1 0x1 DUP3 AND DUP1 PUSH2 0x30C0 JUMPI PUSH1 0x7F DUP3 AND SWAP2 POP JUMPDEST PUSH1 0x20 DUP3 LT DUP2 EQ ISZERO PUSH2 0x30D4 JUMPI PUSH2 0x30D3 PUSH2 0x3079 JUMP JUMPDEST JUMPDEST POP SWAP2 SWAP1 POP JUMP JUMPDEST PUSH32 0x455243313135353A2063616C6C6572206973206E6F7420746F6B656E206F776E PUSH1 0x0 DUP3 ADD MSTORE PUSH32 0x6572206E6F7220617070726F7665640000000000000000000000000000000000 PUSH1 0x20 DUP3 ADD MSTORE POP JUMP JUMPDEST PUSH1 0x0 PUSH2 0x3136 PUSH1 0x2F DUP4 PUSH2 0x21C8 JUMP JUMPDEST SWAP2 POP PUSH2 0x3141 DUP3 PUSH2 0x30DA JUMP JUMPDEST PUSH1 0x40 DUP3 ADD SWAP1 POP SWAP2 SWAP1 POP JUMP JUMPDEST PUSH1 0x0 PUSH1 0x20 DUP3 ADD SWAP1 POP DUP2 DUP2 SUB PUSH1 0x0 DUP4 ADD MSTORE PUSH2 0x3165 DUP2 PUSH2 0x3129 JUMP JUMPDEST SWAP1 POP SWAP2 SWAP1 POP JUMP JUMPDEST PUSH32 0x455243313135353A206163636F756E747320616E6420696473206C656E677468 PUSH1 0x0 DUP3 ADD MSTORE PUSH32 0x206D69736D617463680000000000000000000000000000000000000000000000 PUSH1 0x20 DUP3 ADD MSTORE POP JUMP JUMPDEST PUSH1 0x0 PUSH2 0x31C8 PUSH1 0x29 DUP4 PUSH2 0x21C8 JUMP JUMPDEST SWAP2 POP PUSH2 0x31D3 DUP3 PUSH2 0x316C JUMP JUMPDEST PUSH1 0x40 DUP3 ADD SWAP1 POP SWAP2 SWAP1 POP JUMP JUMPDEST PUSH1 0x0 PUSH1 0x20 DUP3 ADD SWAP1 POP DUP2 DUP2 SUB PUSH1 0x0 DUP4 ADD MSTORE PUSH2 0x31F7 DUP2 PUSH2 0x31BB JUMP JUMPDEST SWAP1 POP SWAP2 SWAP1 POP JUMP JUMPDEST PUSH32 0x4E487B7100000000000000000000000000000000000000000000000000000000 PUSH1 0x0 MSTORE PUSH1 0x32 PUSH1 0x4 MSTORE PUSH1 0x24 PUSH1 0x0 REVERT JUMPDEST PUSH1 0x0 PUSH2 0x3238 DUP3 PUSH2 0x2286 JUMP JUMPDEST SWAP2 POP PUSH32 0xFFFFFFFFFFFFFFFFFFFFFFFFFFFFFFFFFFFFFFFFFFFFFFFFFFFFFFFFFFFFFFFF DUP3 EQ ISZERO PUSH2 0x326B JUMPI PUSH2 0x326A PUSH2 0x2F39 JUMP JUMPDEST JUMPDEST PUSH1 0x1 DUP3 ADD SWAP1 POP SWAP2 SWAP1 POP JUMP JUMPDEST PUSH32 0x4E6F74206F776E65720000000000000000000000000000000000000000000000 PUSH1 0x0 DUP3 ADD MSTORE POP JUMP JUMPDEST PUSH1 0x0 PUSH2 0x32AC PUSH1 0x9 DUP4 PUSH2 0x21C8 JUMP JUMPDEST SWAP2 POP PUSH2 0x32B7 DUP3 PUSH2 0x3276 JUMP JUMPDEST PUSH1 0x20 DUP3 ADD SWAP1 POP SWAP2 SWAP1 POP JUMP JUMPDEST PUSH1 0x0 PUSH1 0x20 DUP3 ADD SWAP1 POP DUP2 DUP2 SUB PUSH1 0x0 DUP4 ADD MSTORE PUSH2 0x32DB DUP2 PUSH2 0x329F JUMP JUMPDEST SWAP1 POP SWAP2 SWAP1 POP JUMP JUMPDEST PUSH32 0x596F752063616E6E6F742066696E697368207468652063616D706169676E2079 PUSH1 0x0 DUP3 ADD MSTORE PUSH32 0x6574000000000000000000000000000000000000000000000000000000000000 PUSH1 0x20 DUP3 ADD MSTORE POP JUMP JUMPDEST PUSH1 0x0 PUSH2 0x333E PUSH1 0x22 DUP4 PUSH2 0x21C8 JUMP JUMPDEST SWAP2 POP PUSH2 0x3349 DUP3 PUSH2 0x32E2 JUMP JUMPDEST PUSH1 0x40 DUP3 ADD SWAP1 POP SWAP2 SWAP1 POP JUMP JUMPDEST PUSH1 0x0 PUSH1 0x20 DUP3 ADD SWAP1 POP DUP2 DUP2 SUB PUSH1 0x0 DUP4 ADD MSTORE PUSH2 0x336D DUP2 PUSH2 0x3331 JUMP JUMPDEST SWAP1 POP SWAP2 SWAP1 POP JUMP JUMPDEST PUSH1 0x0 DUP2 MLOAD SWAP1 POP SWAP2 SWAP1 POP JUMP JUMPDEST PUSH1 0x0 DUP3 DUP3 MSTORE PUSH1 0x20 DUP3 ADD SWAP1 POP SWAP3 SWAP2 POP POP JUMP JUMPDEST PUSH1 0x0 PUSH2 0x339B DUP3 PUSH2 0x3374 JUMP JUMPDEST PUSH2 0x33A5 DUP2 DUP6 PUSH2 0x337F JUMP JUMPDEST SWAP4 POP PUSH2 0x33B5 DUP2 DUP6 PUSH1 0x20 DUP7 ADD PUSH2 0x2455 JUMP JUMPDEST PUSH2 0x33BE DUP2 PUSH2 0x2488 JUMP JUMPDEST DUP5 ADD SWAP2 POP POP SWAP3 SWAP2 POP POP JUMP JUMPDEST PUSH1 0x0 PUSH1 0xA0 DUP3 ADD SWAP1 POP PUSH2 0x33DE PUSH1 0x0 DUP4 ADD DUP9 PUSH2 0x2277 JUMP JUMPDEST PUSH2 0x33EB PUSH1 0x20 DUP4 ADD DUP8 PUSH2 0x2277 JUMP JUMPDEST PUSH2 0x33F8 PUSH1 0x40 DUP4 ADD DUP7 PUSH2 0x2290 JUMP JUMPDEST PUSH2 0x3405 PUSH1 0x60 DUP4 ADD DUP6 PUSH2 0x2290 JUMP JUMPDEST DUP2 DUP2 SUB PUSH1 0x80 DUP4 ADD MSTORE PUSH2 0x3417 DUP2 DUP5 PUSH2 0x3390 JUMP JUMPDEST SWAP1 POP SWAP7 SWAP6 POP POP POP POP POP POP JUMP JUMPDEST PUSH1 0x0 DUP2 MLOAD SWAP1 POP PUSH2 0x3432 DUP2 PUSH2 0x23BB JUMP JUMPDEST SWAP3 SWAP2 POP POP JUMP JUMPDEST PUSH1 0x0 PUSH1 0x20 DUP3 DUP5 SUB SLT ISZERO PUSH2 0x344E JUMPI PUSH2 0x344D PUSH2 0x22D2 JUMP JUMPDEST JUMPDEST PUSH1 0x0 PUSH2 0x345C DUP5 DUP3 DUP6 ADD PUSH2 0x3423 JUMP JUMPDEST SWAP2 POP POP SWAP3 SWAP2 POP POP JUMP JUMPDEST PUSH1 0x0 DUP2 PUSH1 0xE0 SHR SWAP1 POP SWAP2 SWAP1 POP JUMP JUMPDEST PUSH1 0x0 PUSH1 0x3 RETURNDATASIZE GT ISZERO PUSH2 0x3491 JUMPI PUSH1 0x4 PUSH1 0x0 DUP1 RETURNDATACOPY PUSH2 0x348E PUSH1 0x0 MLOAD PUSH2 0x3465 JUMP JUMPDEST SWAP1 POP JUMPDEST SWAP1 JUMP JUMPDEST PUSH1 0x0 PUSH1 0x44 RETURNDATASIZE LT ISZERO PUSH2 0x34A4 JUMPI PUSH2 0x3527 JUMP JUMPDEST PUSH2 0x34AC PUSH2 0x22C8 JUMP JUMPDEST PUSH1 0x4 RETURNDATASIZE SUB PUSH1 0x4 DUP3 RETURNDATACOPY DUP1 MLOAD RETURNDATASIZE PUSH1 0x24 DUP3 ADD GT PUSH8 0xFFFFFFFFFFFFFFFF DUP3 GT OR ISZERO PUSH2 0x34D4 JUMPI POP POP PUSH2 0x3527 JUMP JUMPDEST DUP1 DUP3 ADD DUP1 MLOAD PUSH8 0xFFFFFFFFFFFFFFFF DUP2 GT ISZERO PUSH2 0x34F2 JUMPI POP POP POP POP PUSH2 0x3527 JUMP JUMPDEST DUP1 PUSH1 0x20 DUP4 ADD ADD PUSH1 0x4 RETURNDATASIZE SUB DUP6 ADD DUP2 GT ISZERO PUSH2 0x350F JUMPI POP POP POP POP POP PUSH2 0x3527 JUMP JUMPDEST PUSH2 0x351E DUP3 PUSH1 0x20 ADD DUP6 ADD DUP7 PUSH2 0x2555 JUMP JUMPDEST DUP3 SWAP6 POP POP POP POP POP POP JUMPDEST SWAP1 JUMP JUMPDEST PUSH32 0x455243313135353A207472616E7366657220746F206E6F6E2045524331313535 PUSH1 0x0 DUP3 ADD MSTORE PUSH32 0x526563656976657220696D706C656D656E746572000000000000000000000000 PUSH1 0x20 DUP3 ADD MSTORE POP JUMP JUMPDEST PUSH1 0x0 PUSH2 0x3586 PUSH1 0x34 DUP4 PUSH2 0x21C8 JUMP JUMPDEST SWAP2 POP PUSH2 0x3591 DUP3 PUSH2 0x352A JUMP JUMPDEST PUSH1 0x40 DUP3 ADD SWAP1 POP SWAP2 SWAP1 POP JUMP JUMPDEST PUSH1 0x0 PUSH1 0x20 DUP3 ADD SWAP1 POP DUP2 DUP2 SUB PUSH1 0x0 DUP4 ADD MSTORE PUSH2 0x35B5 DUP2 PUSH2 0x3579 JUMP JUMPDEST SWAP1 POP SWAP2 SWAP1 POP JUMP JUMPDEST PUSH32 0x455243313135353A204552433131353552656365697665722072656A65637465 PUSH1 0x0 DUP3 ADD MSTORE PUSH32 0x6420746F6B656E73000000000000000000000000000000000000000000000000 PUSH1 0x20 DUP3 ADD MSTORE POP JUMP JUMPDEST PUSH1 0x0 PUSH2 0x3618 PUSH1 0x28 DUP4 PUSH2 0x21C8 JUMP JUMPDEST SWAP2 POP PUSH2 0x3623 DUP3 PUSH2 0x35BC JUMP JUMPDEST PUSH1 0x40 DUP3 ADD SWAP1 POP SWAP2 SWAP1 POP JUMP JUMPDEST PUSH1 0x0 PUSH1 0x20 DUP3 ADD SWAP1 POP DUP2 DUP2 SUB PUSH1 0x0 DUP4 ADD MSTORE PUSH2 0x3647 DUP2 PUSH2 0x360B JUMP JUMPDEST SWAP1 POP SWAP2 SWAP1 POP JUMP JUMPDEST PUSH32 0x455243313135353A2069647320616E6420616D6F756E7473206C656E67746820 PUSH1 0x0 DUP3 ADD MSTORE PUSH32 0x6D69736D61746368000000000000000000000000000000000000000000000000 PUSH1 0x20 DUP3 ADD MSTORE POP JUMP JUMPDEST PUSH1 0x0 PUSH2 0x36AA PUSH1 0x28 DUP4 PUSH2 0x21C8 JUMP JUMPDEST SWAP2 POP PUSH2 0x36B5 DUP3 PUSH2 0x364E JUMP JUMPDEST PUSH1 0x40 DUP3 ADD SWAP1 POP SWAP2 SWAP1 POP JUMP JUMPDEST PUSH1 0x0 PUSH1 0x20 DUP3 ADD SWAP1 POP DUP2 DUP2 SUB PUSH1 0x0 DUP4 ADD MSTORE PUSH2 0x36D9 DUP2 PUSH2 0x369D JUMP JUMPDEST SWAP1 POP SWAP2 SWAP1 POP JUMP JUMPDEST PUSH32 0x455243313135353A207472616E7366657220746F20746865207A65726F206164 PUSH1 0x0 DUP3 ADD MSTORE PUSH32 0x6472657373000000000000000000000000000000000000000000000000000000 PUSH1 0x20 DUP3 ADD MSTORE POP JUMP JUMPDEST PUSH1 0x0 PUSH2 0x373C PUSH1 0x25 DUP4 PUSH2 0x21C8 JUMP JUMPDEST SWAP2 POP PUSH2 0x3747 DUP3 PUSH2 0x36E0 JUMP JUMPDEST PUSH1 0x40 DUP3 ADD SWAP1 POP SWAP2 SWAP1 POP JUMP JUMPDEST PUSH1 0x0 PUSH1 0x20 DUP3 ADD SWAP1 POP DUP2 DUP2 SUB PUSH1 0x0 DUP4 ADD MSTORE PUSH2 0x376B DUP2 PUSH2 0x372F JUMP JUMPDEST SWAP1 POP SWAP2 SWAP1 POP JUMP JUMPDEST PUSH32 0x455243313135353A20696E73756666696369656E742062616C616E636520666F PUSH1 0x0 DUP3 ADD MSTORE PUSH32 0x72207472616E7366657200000000000000000000000000000000000000000000 PUSH1 0x20 DUP3 ADD MSTORE POP JUMP JUMPDEST PUSH1 0x0 PUSH2 0x37CE PUSH1 0x2A DUP4 PUSH2 0x21C8 JUMP JUMPDEST SWAP2 POP PUSH2 0x37D9 DUP3 PUSH2 0x3772 JUMP JUMPDEST PUSH1 0x40 DUP3 ADD SWAP1 POP SWAP2 SWAP1 POP JUMP JUMPDEST PUSH1 0x0 PUSH1 0x20 DUP3 ADD SWAP1 POP DUP2 DUP2 SUB PUSH1 0x0 DUP4 ADD MSTORE PUSH2 0x37FD DUP2 PUSH2 0x37C1 JUMP JUMPDEST SWAP1 POP SWAP2 SWAP1 POP JUMP JUMPDEST PUSH1 0x0 PUSH1 0x40 DUP3 ADD SWAP1 POP DUP2 DUP2 SUB PUSH1 0x0 DUP4 ADD MSTORE PUSH2 0x381E DUP2 DUP6 PUSH2 0x29CD JUMP JUMPDEST SWAP1 POP DUP2 DUP2 SUB PUSH1 0x20 DUP4 ADD MSTORE PUSH2 0x3832 DUP2 DUP5 PUSH2 0x29CD JUMP JUMPDEST SWAP1 POP SWAP4 SWAP3 POP POP POP JUMP JUMPDEST PUSH32 0x455243313135353A2073657474696E6720617070726F76616C20737461747573 PUSH1 0x0 DUP3 ADD MSTORE PUSH32 0x20666F722073656C660000000000000000000000000000000000000000000000 PUSH1 0x20 DUP3 ADD MSTORE POP JUMP JUMPDEST PUSH1 0x0 PUSH2 0x3897 PUSH1 0x29 DUP4 PUSH2 0x21C8 JUMP JUMPDEST SWAP2 POP PUSH2 0x38A2 DUP3 PUSH2 0x383B JUMP JUMPDEST PUSH1 0x40 DUP3 ADD SWAP1 POP SWAP2 SWAP1 POP JUMP JUMPDEST PUSH1 0x0 PUSH1 0x20 DUP3 ADD SWAP1 POP DUP2 DUP2 SUB PUSH1 0x0 DUP4 ADD MSTORE PUSH2 0x38C6 DUP2 PUSH2 0x388A JUMP JUMPDEST SWAP1 POP SWAP2 SWAP1 POP JUMP JUMPDEST PUSH1 0x0 PUSH1 0xA0 DUP3 ADD SWAP1 POP PUSH2 0x38E2 PUSH1 0x0 DUP4 ADD DUP9 PUSH2 0x2277 JUMP JUMPDEST PUSH2 0x38EF PUSH1 0x20 DUP4 ADD DUP8 PUSH2 0x2277 JUMP JUMPDEST DUP2 DUP2 SUB PUSH1 0x40 DUP4 ADD MSTORE PUSH2 0x3901 DUP2 DUP7 PUSH2 0x29CD JUMP JUMPDEST SWAP1 POP DUP2 DUP2 SUB PUSH1 0x60 DUP4 ADD MSTORE PUSH2 0x3915 DUP2 DUP6 PUSH2 0x29CD JUMP JUMPDEST SWAP1 POP DUP2 DUP2 SUB PUSH1 0x80 DUP4 ADD MSTORE PUSH2 0x3929 DUP2 DUP5 PUSH2 0x3390 JUMP JUMPDEST SWAP1 POP SWAP7 SWAP6 POP POP POP POP POP POP JUMP INVALID LOG2 PUSH5 0x6970667358 0x22 SLT KECCAK256 0xEC 0xC2 0x4C LOG3 0xB6 DUP14 PUSH19 0xC0E37D0ED49BD1EB5D2161A17A41A9E8DDF116 0x49 PUSH13 0xEC17190D64736F6C6343000809 STOP CALLER LOG2 PUSH5 0x6970667358 0x22 SLT KECCAK256 0xE PUSH14 0x58F90195C62478292483BF705F78 0x2E 0xCD EXTCODEHASH CODESIZE SWAP10 MSIZE 0xFB LOG4 STATICCALL MUL 0xE7 0xA7 0xE ADD XOR 0x4A PUSH5 0x736F6C6343 STOP ADDMOD MULMOD STOP CALLER "},"methodIdentifiers":{"activeCampaign()":"283a1235","createCampaign(string,string,address,string,uint256)":"63b4a361","getCampaigns()":"a6b03633"}}}}}