{
  "_format": "hh-sol-artifact-1",
  "contractName": "CampaignFactory",
  "sourceName": "backend/src/contracts/campaignFactory.sol",
  "abi": [
    {
      "inputs": [],
      "stateMutability": "nonpayable",
      "type": "constructor"
    },
    {
      "inputs": [],
      "name": "activeCampaign",
      "outputs": [
        {
          "internalType": "address",
          "name": "",
          "type": "address"
        }
      ],
      "stateMutability": "view",
      "type": "function"
    },
    {
      "inputs": [
        {
          "internalType": "string",
          "name": "_name",
          "type": "string"
        },
        {
          "internalType": "string",
          "name": "_ipfsLink",
          "type": "string"
        },
        {
          "internalType": "address payable",
          "name": "_donationReceiver",
          "type": "address"
        },
        {
          "internalType": "string",
          "name": "_color",
          "type": "string"
        },
        {
          "internalType": "uint256",
          "name": "_expirationDate",
          "type": "uint256"
        }
      ],
      "name": "createCampaing",
      "outputs": [],
      "stateMutability": "nonpayable",
      "type": "function"
    },
    {
      "inputs": [],
      "name": "getCampaings",
      "outputs": [
        {
          "components": [
            {
              "internalType": "string",
              "name": "name",
              "type": "string"
            },
            {
              "internalType": "address",
              "name": "endereco",
              "type": "address"
            }
          ],
          "internalType": "struct CampaignFactory.Campaigns[]",
          "name": "",
          "type": "tuple[]"
        }
      ],
      "stateMutability": "view",
      "type": "function"
    }
  ],
  "bytecode": "0x608060405234801561001057600080fd5b50336000806101000a81548173ffffffffffffffffffffffffffffffffffffffff021916908373ffffffffffffffffffffffffffffffffffffffff160217905550614ad4806100606000396000f3fe60806040523480156200001157600080fd5b5060043610620000465760003560e01c8063283a1235146200004b5780632a3a4d8a146200006d57806351876eae146200008f575b600080fd5b62000055620000af565b604051620000649190620005ba565b60405180910390f35b62000077620000d5565b6040516200008691906200079d565b60405180910390f35b620000ad6004803603810190620000a79190620009a6565b620002b7565b005b600160009054906101000a900473ffffffffffffffffffffffffffffffffffffffff1681565b60603373ffffffffffffffffffffffffffffffffffffffff1660008054906101000a900473ffffffffffffffffffffffffffffffffffffffff1673ffffffffffffffffffffffffffffffffffffffff161462000168576040517f08c379a00000000000000000000000000000000000000000000000000000000081526004016200015f9062000aec565b60405180910390fd5b6002805480602002602001604051908101604052809291908181526020016000905b82821015620002ae5783829060005260206000209060020201604051806040016040529081600082018054620001c09062000b3d565b80601f0160208091040260200160405190810160405280929190818152602001828054620001ee9062000b3d565b80156200023f5780601f1062000213576101008083540402835291602001916200023f565b820191906000526020600020905b8154815290600101906020018083116200022157829003601f168201915b505050505081526020016001820160009054906101000a900473ffffffffffffffffffffffffffffffffffffffff1673ffffffffffffffffffffffffffffffffffffffff1673ffffffffffffffffffffffffffffffffffffffff1681525050815260200190600101906200018a565b50505050905090565b3373ffffffffffffffffffffffffffffffffffffffff1660008054906101000a900473ffffffffffffffffffffffffffffffffffffffff1673ffffffffffffffffffffffffffffffffffffffff161462000348576040517f08c379a00000000000000000000000000000000000000000000000000000000081526004016200033f9062000aec565b60405180910390fd5b60008060009054906101000a900473ffffffffffffffffffffffffffffffffffffffff1686868686866040516200037f90620004b7565b620003909695949392919062000bd6565b604051809103906000f080158015620003ad573d6000803e3d6000fd5b509050600260405180604001604052808881526020018373ffffffffffffffffffffffffffffffffffffffff168152509080600181540180825580915050600190039060005260206000209060020201600090919091909150600082015181600001908051906020019062000424929190620004c5565b5060208201518160010160006101000a81548173ffffffffffffffffffffffffffffffffffffffff021916908373ffffffffffffffffffffffffffffffffffffffff160217905550505080600160006101000a81548173ffffffffffffffffffffffffffffffffffffffff021916908373ffffffffffffffffffffffffffffffffffffffff160217905550505050505050565b613e468062000c5983390190565b828054620004d39062000b3d565b90600052602060002090601f016020900481019282620004f7576000855562000543565b82601f106200051257805160ff191683800117855562000543565b8280016001018555821562000543579182015b828111156200054257825182559160200191906001019062000525565b5b50905062000552919062000556565b5090565b5b808211156200057157600081600090555060010162000557565b5090565b600073ffffffffffffffffffffffffffffffffffffffff82169050919050565b6000620005a28262000575565b9050919050565b620005b48162000595565b82525050565b6000602082019050620005d16000830184620005a9565b92915050565b600081519050919050565b600082825260208201905092915050565b6000819050602082019050919050565b600081519050919050565b600082825260208201905092915050565b60005b838110156200063f57808201518184015260208101905062000622565b838111156200064f576000848401525b50505050565b6000601f19601f8301169050919050565b6000620006738262000603565b6200067f81856200060e565b9350620006918185602086016200061f565b6200069c8162000655565b840191505092915050565b620006b28162000595565b82525050565b60006040830160008301518482036000860152620006d7828262000666565b9150506020830151620006ee6020860182620006a7565b508091505092915050565b6000620007078383620006b8565b905092915050565b6000602082019050919050565b60006200072982620005d7565b620007358185620005e2565b9350836020820285016200074985620005f3565b8060005b858110156200078b5784840389528151620007698582620006f9565b945062000776836200070f565b925060208a019950506001810190506200074d565b50829750879550505050505092915050565b60006020820190508181036000830152620007b981846200071c565b905092915050565b6000604051905090565b600080fd5b600080fd5b600080fd5b600080fd5b7f4e487b7100000000000000000000000000000000000000000000000000000000600052604160045260246000fd5b620008198262000655565b810181811067ffffffffffffffff821117156200083b576200083a620007df565b5b80604052505050565b600062000850620007c1565b90506200085e82826200080e565b919050565b600067ffffffffffffffff821115620008815762000880620007df565b5b6200088c8262000655565b9050602081019050919050565b82818337600083830152505050565b6000620008bf620008b98462000863565b62000844565b905082815260208101848484011115620008de57620008dd620007da565b5b620008eb84828562000899565b509392505050565b600082601f8301126200090b576200090a620007d5565b5b81356200091d848260208601620008a8565b91505092915050565b6000620009338262000575565b9050919050565b620009458162000926565b81146200095157600080fd5b50565b60008135905062000965816200093a565b92915050565b6000819050919050565b62000980816200096b565b81146200098c57600080fd5b50565b600081359050620009a08162000975565b92915050565b600080600080600060a08688031215620009c557620009c4620007cb565b5b600086013567ffffffffffffffff811115620009e657620009e5620007d0565b5b620009f488828901620008f3565b955050602086013567ffffffffffffffff81111562000a185762000a17620007d0565b5b62000a2688828901620008f3565b945050604062000a398882890162000954565b935050606086013567ffffffffffffffff81111562000a5d5762000a5c620007d0565b5b62000a6b88828901620008f3565b925050608062000a7e888289016200098f565b9150509295509295909350565b600082825260208201905092915050565b7f4e6f74206f776e65720000000000000000000000000000000000000000000000600082015250565b600062000ad460098362000a8b565b915062000ae18262000a9c565b602082019050919050565b6000602082019050818103600083015262000b078162000ac5565b9050919050565b7f4e487b7100000000000000000000000000000000000000000000000000000000600052602260045260246000fd5b6000600282049050600182168062000b5657607f821691505b6020821081141562000b6d5762000b6c62000b0e565b5b50919050565b600062000b808262000603565b62000b8c818562000a8b565b935062000b9e8185602086016200061f565b62000ba98162000655565b840191505092915050565b62000bbf8162000926565b82525050565b62000bd0816200096b565b82525050565b600060c08201905062000bed6000830189620005a9565b818103602083015262000c01818862000b73565b9050818103604083015262000c17818762000b73565b905062000c28606083018662000bb4565b818103608083015262000c3c818562000b73565b905062000c4d60a083018462000bc5565b97965050505050505056fe60806040523480156200001157600080fd5b5060405162003e4638038062003e4683398181016040528101906200003791906200047a565b8362000049816200012c60201b60201c565b5085600360006101000a81548173ffffffffffffffffffffffffffffffffffffffff021916908373ffffffffffffffffffffffffffffffffffffffff1602179055508460049080519060200190620000a392919062000148565b506001600560006101000a81548160ff02191690831515021790555082600560016101000a81548173ffffffffffffffffffffffffffffffffffffffff021916908373ffffffffffffffffffffffffffffffffffffffff16021790555081600790805190602001906200011892919062000148565b5080600681905550505050505050620005d8565b80600290805190602001906200014492919062000148565b5050565b8280546200015690620005a2565b90600052602060002090601f0160209004810192826200017a5760008555620001c6565b82601f106200019557805160ff1916838001178555620001c6565b82800160010185558215620001c6579182015b82811115620001c5578251825591602001919060010190620001a8565b5b509050620001d59190620001d9565b5090565b5b80821115620001f4576000816000905550600101620001da565b5090565b6000604051905090565b600080fd5b600080fd5b600073ffffffffffffffffffffffffffffffffffffffff82169050919050565b600062000239826200020c565b9050919050565b6200024b816200022c565b81146200025757600080fd5b50565b6000815190506200026b8162000240565b92915050565b600080fd5b600080fd5b6000601f19601f8301169050919050565b7f4e487b7100000000000000000000000000000000000000000000000000000000600052604160045260246000fd5b620002c6826200027b565b810181811067ffffffffffffffff82111715620002e857620002e76200028c565b5b80604052505050565b6000620002fd620001f8565b90506200030b8282620002bb565b919050565b600067ffffffffffffffff8211156200032e576200032d6200028c565b5b62000339826200027b565b9050602081019050919050565b60005b838110156200036657808201518184015260208101905062000349565b8381111562000376576000848401525b50505050565b6000620003936200038d8462000310565b620002f1565b905082815260208101848484011115620003b257620003b162000276565b5b620003bf84828562000346565b509392505050565b600082601f830112620003df57620003de62000271565b5b8151620003f18482602086016200037c565b91505092915050565b600062000407826200020c565b9050919050565b6200041981620003fa565b81146200042557600080fd5b50565b60008151905062000439816200040e565b92915050565b6000819050919050565b62000454816200043f565b81146200046057600080fd5b50565b600081519050620004748162000449565b92915050565b60008060008060008060c087890312156200049a576200049962000202565b5b6000620004aa89828a016200025a565b965050602087015167ffffffffffffffff811115620004ce57620004cd62000207565b5b620004dc89828a01620003c7565b955050604087015167ffffffffffffffff8111156200050057620004ff62000207565b5b6200050e89828a01620003c7565b94505060606200052189828a0162000428565b935050608087015167ffffffffffffffff81111562000545576200054462000207565b5b6200055389828a01620003c7565b92505060a06200056689828a0162000463565b9150509295509295509295565b7f4e487b7100000000000000000000000000000000000000000000000000000000600052602260045260246000fd5b60006002820490506001821680620005bb57607f821691505b60208210811415620005d257620005d162000573565b5b50919050565b61385e80620005e86000396000f3fe60806040526004361061010c5760003560e01c80638da5cb5b11610095578063cf08fed511610064578063cf08fed51461048f578063d8501492146104ba578063e985e9c5146104e6578063f242432a14610523578063f7260d3e1461054c57610226565b80638da5cb5b146103e55780638f6204871461041057806396f300d41461043b578063a22cb4651461046657610226565b80632eb2c2d6116100dc5780632eb2c2d61461030d5780634abfa163146103365780634e1273f41461037557806371aac7f9146103b257806388097500146103bc57610226565b8062fdd58e1461022b57806301ffc9a7146102685780630e89341c146102a557806312065fe0146102e257610226565b366102265760011515600560009054906101000a900460ff1615151480156101345750600034115b610173576040517f08c379a000000000000000000000000000000000000000000000000000000000815260040161016a90612118565b60405180910390fd5b61018f3360018060405180602001604052806000815250610577565b6008600101543411156101eb5733600860000160006101000a81548173ffffffffffffffffffffffffffffffffffffffff021916908373ffffffffffffffffffffffffffffffffffffffff160217905550346008600101819055505b7f88a5966d370b9919b20f3e2c13ff65706f196a4e32cc2c12bf57088f88525874333460405161021c929190612192565b60405180910390a1005b600080fd5b34801561023757600080fd5b50610252600480360381019061024d9190612227565b610728565b60405161025f9190612267565b60405180910390f35b34801561027457600080fd5b5061028f600480360381019061028a91906122da565b6107f1565b60405161029c9190612322565b60405180910390f35b3480156102b157600080fd5b506102cc60048036038101906102c7919061233d565b6108d3565b6040516102d991906123f2565b60405180910390f35b3480156102ee57600080fd5b506102f7610967565b6040516103049190612267565b60405180910390f35b34801561031957600080fd5b50610334600480360381019061032f9190612611565b61096f565b005b34801561034257600080fd5b5061035d6004803603810190610358919061233d565b610a10565b60405161036c939291906126e0565b60405180910390f35b34801561038157600080fd5b5061039c600480360381019061039791906127e8565b610b7a565b6040516103a9919061291e565b60405180910390f35b6103ba610c93565b005b3480156103c857600080fd5b506103e360048036038101906103de91906129e1565b610e56565b005b3480156103f157600080fd5b506103fa610fca565b6040516104079190612a6c565b60405180910390f35b34801561041c57600080fd5b50610425610ff0565b6040516104329190612267565b60405180910390f35b34801561044757600080fd5b50610450610ff6565b60405161045d9190612bf9565b60405180910390f35b34801561047257600080fd5b5061048d60048036038101906104889190612c47565b6111cf565b005b34801561049b57600080fd5b506104a46111e5565b6040516104b191906123f2565b60405180910390f35b3480156104c657600080fd5b506104cf611273565b6040516104dd929190612192565b60405180910390f35b3480156104f257600080fd5b5061050d60048036038101906105089190612c87565b6112a5565b60405161051a9190612322565b60405180910390f35b34801561052f57600080fd5b5061054a60048036038101906105459190612cc7565b611339565b005b34801561055857600080fd5b506105616113da565b60405161056e9190612d7f565b60405180910390f35b600073ffffffffffffffffffffffffffffffffffffffff168473ffffffffffffffffffffffffffffffffffffffff1614156105e7576040517f08c379a00000000000000000000000000000000000000000000000000000000081526004016105de90612e0c565b60405180910390fd5b60006105f1611400565b905060006105fe85611408565b9050600061060b85611408565b905061061c83600089858589611482565b8460008088815260200190815260200160002060008973ffffffffffffffffffffffffffffffffffffffff1673ffffffffffffffffffffffffffffffffffffffff168152602001908152602001600020600082825461067b9190612e5b565b925050819055508673ffffffffffffffffffffffffffffffffffffffff16600073ffffffffffffffffffffffffffffffffffffffff168473ffffffffffffffffffffffffffffffffffffffff167fc3d58168c5ae7397731d063d5bbf3d657854427343f4c083240f7aacaa2d0f6289896040516106f9929190612eb1565b60405180910390a46107108360008985858961148a565b61071f83600089898989611492565b50505050505050565b60008073ffffffffffffffffffffffffffffffffffffffff168373ffffffffffffffffffffffffffffffffffffffff161415610799576040517f08c379a000000000000000000000000000000000000000000000000000000000815260040161079090612f4c565b60405180910390fd5b60008083815260200190815260200160002060008473ffffffffffffffffffffffffffffffffffffffff1673ffffffffffffffffffffffffffffffffffffffff16815260200190815260200160002054905092915050565b60007fd9b67a26000000000000000000000000000000000000000000000000000000007bffffffffffffffffffffffffffffffffffffffffffffffffffffffff1916827bffffffffffffffffffffffffffffffffffffffffffffffffffffffff191614806108bc57507f0e89341c000000000000000000000000000000000000000000000000000000007bffffffffffffffffffffffffffffffffffffffffffffffffffffffff1916827bffffffffffffffffffffffffffffffffffffffffffffffffffffffff1916145b806108cc57506108cb82611679565b5b9050919050565b6060600280546108e290612f9b565b80601f016020809104026020016040519081016040528092919081815260200182805461090e90612f9b565b801561095b5780601f106109305761010080835404028352916020019161095b565b820191906000526020600020905b81548152906001019060200180831161093e57829003601f168201915b50505050509050919050565b600047905090565b610977611400565b73ffffffffffffffffffffffffffffffffffffffff168573ffffffffffffffffffffffffffffffffffffffff1614806109bd57506109bc856109b7611400565b6112a5565b5b6109fc576040517f08c379a00000000000000000000000000000000000000000000000000000000081526004016109f39061303f565b60405180910390fd5b610a0985858585856116e3565b5050505050565b600a8181548110610a2057600080fd5b9060005260206000209060030201600091509050806000018054610a4390612f9b565b80601f0160208091040260200160405190810160405280929190818152602001828054610a6f90612f9b565b8015610abc5780601f10610a9157610100808354040283529160200191610abc565b820191906000526020600020905b815481529060010190602001808311610a9f57829003601f168201915b505050505090806001018054610ad190612f9b565b80601f0160208091040260200160405190810160405280929190818152602001828054610afd90612f9b565b8015610b4a5780601f10610b1f57610100808354040283529160200191610b4a565b820191906000526020600020905b815481529060010190602001808311610b2d57829003601f168201915b5050505050908060020160009054906101000a900473ffffffffffffffffffffffffffffffffffffffff16905083565b60608151835114610bc0576040517f08c379a0000000000000000000000000000000000000000000000000000000008152600401610bb7906130d1565b60405180910390fd5b6000835167ffffffffffffffff811115610bdd57610bdc612419565b5b604051908082528060200260200182016040528015610c0b5781602001602082028036833780820191505090505b50905060005b8451811015610c8857610c58858281518110610c3057610c2f6130f1565b5b6020026020010151858381518110610c4b57610c4a6130f1565b5b6020026020010151610728565b828281518110610c6b57610c6a6130f1565b5b60200260200101818152505080610c8190613120565b9050610c11565b508091505092915050565b3373ffffffffffffffffffffffffffffffffffffffff16600360009054906101000a900473ffffffffffffffffffffffffffffffffffffffff1673ffffffffffffffffffffffffffffffffffffffff1614610d23576040517f08c379a0000000000000000000000000000000000000000000000000000000008152600401610d1a906131b5565b60405180910390fd5b6006544210158015610d48575060011515600560009054906101000a900460ff161515145b610d87576040517f08c379a0000000000000000000000000000000000000000000000000000000008152600401610d7e90613247565b60405180910390fd5b600560019054906101000a900473ffffffffffffffffffffffffffffffffffffffff1673ffffffffffffffffffffffffffffffffffffffff166108fc610dcb610967565b9081150290604051600060405180830381858888f19350505050158015610df6573d6000803e3d6000fd5b50610e39600860000160009054906101000a900473ffffffffffffffffffffffffffffffffffffffff166002600160405180602001604052806000815250610577565b6000600560006101000a81548160ff021916908315150217905550565b3373ffffffffffffffffffffffffffffffffffffffff16600360009054906101000a900473ffffffffffffffffffffffffffffffffffffffff1673ffffffffffffffffffffffffffffffffffffffff1614610ee6576040517f08c379a0000000000000000000000000000000000000000000000000000000008152600401610edd906131b5565b60405180910390fd5b600a60405180606001604052808581526020018481526020018373ffffffffffffffffffffffffffffffffffffffff1681525090806001815401808255809150506001900390600052602060002090600302016000909190919091506000820151816000019080519060200190610f5e929190612018565b506020820151816001019080519060200190610f7b929190612018565b5060408201518160020160006101000a81548173ffffffffffffffffffffffffffffffffffffffff021916908373ffffffffffffffffffffffffffffffffffffffff1602179055505050505050565b600360009054906101000a900473ffffffffffffffffffffffffffffffffffffffff1681565b60065481565b6060600a805480602002602001604051908101604052809291908181526020016000905b828210156111c6578382906000526020600020906003020160405180606001604052908160008201805461104d90612f9b565b80601f016020809104026020016040519081016040528092919081815260200182805461107990612f9b565b80156110c65780601f1061109b576101008083540402835291602001916110c6565b820191906000526020600020905b8154815290600101906020018083116110a957829003601f168201915b505050505081526020016001820180546110df90612f9b565b80601f016020809104026020016040519081016040528092919081815260200182805461110b90612f9b565b80156111585780601f1061112d57610100808354040283529160200191611158565b820191906000526020600020905b81548152906001019060200180831161113b57829003601f168201915b505050505081526020016002820160009054906101000a900473ffffffffffffffffffffffffffffffffffffffff1673ffffffffffffffffffffffffffffffffffffffff1673ffffffffffffffffffffffffffffffffffffffff16815250508152602001906001019061101a565b50505050905090565b6111e16111da611400565b8383611a05565b5050565b600780546111f290612f9b565b80601f016020809104026020016040519081016040528092919081815260200182805461121e90612f9b565b801561126b5780601f106112405761010080835404028352916020019161126b565b820191906000526020600020905b81548152906001019060200180831161124e57829003601f168201915b505050505081565b60088060000160009054906101000a900473ffffffffffffffffffffffffffffffffffffffff16908060010154905082565b6000600160008473ffffffffffffffffffffffffffffffffffffffff1673ffffffffffffffffffffffffffffffffffffffff16815260200190815260200160002060008373ffffffffffffffffffffffffffffffffffffffff1673ffffffffffffffffffffffffffffffffffffffff16815260200190815260200160002060009054906101000a900460ff16905092915050565b611341611400565b73ffffffffffffffffffffffffffffffffffffffff168573ffffffffffffffffffffffffffffffffffffffff161480611387575061138685611381611400565b6112a5565b5b6113c6576040517f08c379a00000000000000000000000000000000000000000000000000000000081526004016113bd9061303f565b60405180910390fd5b6113d38585858585611b72565b5050505050565b600560019054906101000a900473ffffffffffffffffffffffffffffffffffffffff1681565b600033905090565b60606000600167ffffffffffffffff81111561142757611426612419565b5b6040519080825280602002602001820160405280156114555781602001602082028036833780820191505090505b509050828160008151811061146d5761146c6130f1565b5b60200260200101818152505080915050919050565b505050505050565b505050505050565b6114b18473ffffffffffffffffffffffffffffffffffffffff16611e0e565b15611671578373ffffffffffffffffffffffffffffffffffffffff1663f23a6e6187878686866040518663ffffffff1660e01b81526004016114f79594939291906132bc565b602060405180830381600087803b15801561151157600080fd5b505af192505050801561154257506040513d601f19601f8201168201806040525081019061153f919061332b565b60015b6115e85761154e613365565b806308c379a014156115ab5750611563613387565b8061156e57506115ad565b806040517f08c379a00000000000000000000000000000000000000000000000000000000081526004016115a291906123f2565b60405180910390fd5b505b6040517f08c379a00000000000000000000000000000000000000000000000000000000081526004016115df9061348f565b60405180910390fd5b63f23a6e6160e01b7bffffffffffffffffffffffffffffffffffffffffffffffffffffffff1916817bffffffffffffffffffffffffffffffffffffffffffffffffffffffff19161461166f576040517f08c379a000000000000000000000000000000000000000000000000000000000815260040161166690613521565b60405180910390fd5b505b505050505050565b60007f01ffc9a7000000000000000000000000000000000000000000000000000000007bffffffffffffffffffffffffffffffffffffffffffffffffffffffff1916827bffffffffffffffffffffffffffffffffffffffffffffffffffffffff1916149050919050565b8151835114611727576040517f08c379a000000000000000000000000000000000000000000000000000000000815260040161171e906135b3565b60405180910390fd5b600073ffffffffffffffffffffffffffffffffffffffff168473ffffffffffffffffffffffffffffffffffffffff161415611797576040517f08c379a000000000000000000000000000000000000000000000000000000000815260040161178e90613645565b60405180910390fd5b60006117a1611400565b90506117b1818787878787611482565b60005b84518110156119625760008582815181106117d2576117d16130f1565b5b6020026020010151905060008583815181106117f1576117f06130f1565b5b60200260200101519050600080600084815260200190815260200160002060008b73ffffffffffffffffffffffffffffffffffffffff1673ffffffffffffffffffffffffffffffffffffffff16815260200190815260200160002054905081811015611892576040517f08c379a0000000000000000000000000000000000000000000000000000000008152600401611889906136d7565b60405180910390fd5b81810360008085815260200190815260200160002060008c73ffffffffffffffffffffffffffffffffffffffff1673ffffffffffffffffffffffffffffffffffffffff168152602001908152602001600020819055508160008085815260200190815260200160002060008b73ffffffffffffffffffffffffffffffffffffffff1673ffffffffffffffffffffffffffffffffffffffff16815260200190815260200160002060008282546119479190612e5b565b925050819055505050508061195b90613120565b90506117b4565b508473ffffffffffffffffffffffffffffffffffffffff168673ffffffffffffffffffffffffffffffffffffffff168273ffffffffffffffffffffffffffffffffffffffff167f4a39dc06d4c0dbc64b70af90fd698a233a518aa5d07e595d983b8c0526c8f7fb87876040516119d99291906136f7565b60405180910390a46119ef81878787878761148a565b6119fd818787878787611e31565b505050505050565b8173ffffffffffffffffffffffffffffffffffffffff168373ffffffffffffffffffffffffffffffffffffffff161415611a74576040517f08c379a0000000000000000000000000000000000000000000000000000000008152600401611a6b906137a0565b60405180910390fd5b80600160008573ffffffffffffffffffffffffffffffffffffffff1673ffffffffffffffffffffffffffffffffffffffff16815260200190815260200160002060008473ffffffffffffffffffffffffffffffffffffffff1673ffffffffffffffffffffffffffffffffffffffff16815260200190815260200160002060006101000a81548160ff0219169083151502179055508173ffffffffffffffffffffffffffffffffffffffff168373ffffffffffffffffffffffffffffffffffffffff167f17307eab39ab6107e8899845ad3d59bd9653f200f220920489ca2b5937696c3183604051611b659190612322565b60405180910390a3505050565b600073ffffffffffffffffffffffffffffffffffffffff168473ffffffffffffffffffffffffffffffffffffffff161415611be2576040517f08c379a0000000000000000000000000000000000000000000000000000000008152600401611bd990613645565b60405180910390fd5b6000611bec611400565b90506000611bf985611408565b90506000611c0685611408565b9050611c16838989858589611482565b600080600088815260200190815260200160002060008a73ffffffffffffffffffffffffffffffffffffffff1673ffffffffffffffffffffffffffffffffffffffff16815260200190815260200160002054905085811015611cad576040517f08c379a0000000000000000000000000000000000000000000000000000000008152600401611ca4906136d7565b60405180910390fd5b85810360008089815260200190815260200160002060008b73ffffffffffffffffffffffffffffffffffffffff1673ffffffffffffffffffffffffffffffffffffffff168152602001908152602001600020819055508560008089815260200190815260200160002060008a73ffffffffffffffffffffffffffffffffffffffff1673ffffffffffffffffffffffffffffffffffffffff1681526020019081526020016000206000828254611d629190612e5b565b925050819055508773ffffffffffffffffffffffffffffffffffffffff168973ffffffffffffffffffffffffffffffffffffffff168573ffffffffffffffffffffffffffffffffffffffff167fc3d58168c5ae7397731d063d5bbf3d657854427343f4c083240f7aacaa2d0f628a8a604051611ddf929190612eb1565b60405180910390a4611df5848a8a86868a61148a565b611e03848a8a8a8a8a611492565b505050505050505050565b6000808273ffffffffffffffffffffffffffffffffffffffff163b119050919050565b611e508473ffffffffffffffffffffffffffffffffffffffff16611e0e565b15612010578373ffffffffffffffffffffffffffffffffffffffff1663bc197c8187878686866040518663ffffffff1660e01b8152600401611e969594939291906137c0565b602060405180830381600087803b158015611eb057600080fd5b505af1925050508015611ee157506040513d601f19601f82011682018060405250810190611ede919061332b565b60015b611f8757611eed613365565b806308c379a01415611f4a5750611f02613387565b80611f0d5750611f4c565b806040517f08c379a0000000000000000000000000000000000000000000000000000000008152600401611f4191906123f2565b60405180910390fd5b505b6040517f08c379a0000000000000000000000000000000000000000000000000000000008152600401611f7e9061348f565b60405180910390fd5b63bc197c8160e01b7bffffffffffffffffffffffffffffffffffffffffffffffffffffffff1916817bffffffffffffffffffffffffffffffffffffffffffffffffffffffff19161461200e576040517f08c379a000000000000000000000000000000000000000000000000000000000815260040161200590613521565b60405180910390fd5b505b505050505050565b82805461202490612f9b565b90600052602060002090601f016020900481019282612046576000855561208d565b82601f1061205f57805160ff191683800117855561208d565b8280016001018555821561208d579182015b8281111561208c578251825591602001919060010190612071565b5b50905061209a919061209e565b5090565b5b808211156120b757600081600090555060010161209f565b5090565b600082825260208201905092915050565b7f546869732063616d706169676e206973206e6f74206163746976650000000000600082015250565b6000612102601b836120bb565b915061210d826120cc565b602082019050919050565b60006020820190508181036000830152612131816120f5565b9050919050565b600073ffffffffffffffffffffffffffffffffffffffff82169050919050565b600061216382612138565b9050919050565b61217381612158565b82525050565b6000819050919050565b61218c81612179565b82525050565b60006040820190506121a7600083018561216a565b6121b46020830184612183565b9392505050565b6000604051905090565b600080fd5b600080fd5b6121d881612158565b81146121e357600080fd5b50565b6000813590506121f5816121cf565b92915050565b61220481612179565b811461220f57600080fd5b50565b600081359050612221816121fb565b92915050565b6000806040838503121561223e5761223d6121c5565b5b600061224c858286016121e6565b925050602061225d85828601612212565b9150509250929050565b600060208201905061227c6000830184612183565b92915050565b60007fffffffff0000000000000000000000000000000000000000000000000000000082169050919050565b6122b781612282565b81146122c257600080fd5b50565b6000813590506122d4816122ae565b92915050565b6000602082840312156122f0576122ef6121c5565b5b60006122fe848285016122c5565b91505092915050565b60008115159050919050565b61231c81612307565b82525050565b60006020820190506123376000830184612313565b92915050565b600060208284031215612353576123526121c5565b5b600061236184828501612212565b91505092915050565b600081519050919050565b60005b83811015612393578082015181840152602081019050612378565b838111156123a2576000848401525b50505050565b6000601f19601f8301169050919050565b60006123c48261236a565b6123ce81856120bb565b93506123de818560208601612375565b6123e7816123a8565b840191505092915050565b6000602082019050818103600083015261240c81846123b9565b905092915050565b600080fd5b7f4e487b7100000000000000000000000000000000000000000000000000000000600052604160045260246000fd5b612451826123a8565b810181811067ffffffffffffffff821117156124705761246f612419565b5b80604052505050565b60006124836121bb565b905061248f8282612448565b919050565b600067ffffffffffffffff8211156124af576124ae612419565b5b602082029050602081019050919050565b600080fd5b60006124d86124d384612494565b612479565b905080838252602082019050602084028301858111156124fb576124fa6124c0565b5b835b8181101561252457806125108882612212565b8452602084019350506020810190506124fd565b5050509392505050565b600082601f83011261254357612542612414565b5b81356125538482602086016124c5565b91505092915050565b600080fd5b600067ffffffffffffffff82111561257c5761257b612419565b5b612585826123a8565b9050602081019050919050565b82818337600083830152505050565b60006125b46125af84612561565b612479565b9050828152602081018484840111156125d0576125cf61255c565b5b6125db848285612592565b509392505050565b600082601f8301126125f8576125f7612414565b5b81356126088482602086016125a1565b91505092915050565b600080600080600060a0868803121561262d5761262c6121c5565b5b600061263b888289016121e6565b955050602061264c888289016121e6565b945050604086013567ffffffffffffffff81111561266d5761266c6121ca565b5b6126798882890161252e565b935050606086013567ffffffffffffffff81111561269a576126996121ca565b5b6126a68882890161252e565b925050608086013567ffffffffffffffff8111156126c7576126c66121ca565b5b6126d3888289016125e3565b9150509295509295909350565b600060608201905081810360008301526126fa81866123b9565b9050818103602083015261270e81856123b9565b905061271d604083018461216a565b949350505050565b600067ffffffffffffffff8211156127405761273f612419565b5b602082029050602081019050919050565b600061276461275f84612725565b612479565b90508083825260208201905060208402830185811115612787576127866124c0565b5b835b818110156127b0578061279c88826121e6565b845260208401935050602081019050612789565b5050509392505050565b600082601f8301126127cf576127ce612414565b5b81356127df848260208601612751565b91505092915050565b600080604083850312156127ff576127fe6121c5565b5b600083013567ffffffffffffffff81111561281d5761281c6121ca565b5b612829858286016127ba565b925050602083013567ffffffffffffffff81111561284a576128496121ca565b5b6128568582860161252e565b9150509250929050565b600081519050919050565b600082825260208201905092915050565b6000819050602082019050919050565b61289581612179565b82525050565b60006128a7838361288c565b60208301905092915050565b6000602082019050919050565b60006128cb82612860565b6128d5818561286b565b93506128e08361287c565b8060005b838110156129115781516128f8888261289b565b9750612903836128b3565b9250506001810190506128e4565b5085935050505092915050565b6000602082019050818103600083015261293881846128c0565b905092915050565b600067ffffffffffffffff82111561295b5761295a612419565b5b612964826123a8565b9050602081019050919050565b600061298461297f84612940565b612479565b9050828152602081018484840111156129a05761299f61255c565b5b6129ab848285612592565b509392505050565b600082601f8301126129c8576129c7612414565b5b81356129d8848260208601612971565b91505092915050565b6000806000606084860312156129fa576129f96121c5565b5b600084013567ffffffffffffffff811115612a1857612a176121ca565b5b612a24868287016129b3565b935050602084013567ffffffffffffffff811115612a4557612a446121ca565b5b612a51868287016129b3565b9250506040612a62868287016121e6565b9150509250925092565b6000602082019050612a81600083018461216a565b92915050565b600081519050919050565b600082825260208201905092915050565b6000819050602082019050919050565b600082825260208201905092915050565b6000612acf8261236a565b612ad98185612ab3565b9350612ae9818560208601612375565b612af2816123a8565b840191505092915050565b612b0681612158565b82525050565b60006060830160008301518482036000860152612b298282612ac4565b91505060208301518482036020860152612b438282612ac4565b9150506040830151612b586040860182612afd565b508091505092915050565b6000612b6f8383612b0c565b905092915050565b6000602082019050919050565b6000612b8f82612a87565b612b998185612a92565b935083602082028501612bab85612aa3565b8060005b85811015612be75784840389528151612bc88582612b63565b9450612bd383612b77565b925060208a01995050600181019050612baf565b50829750879550505050505092915050565b60006020820190508181036000830152612c138184612b84565b905092915050565b612c2481612307565b8114612c2f57600080fd5b50565b600081359050612c4181612c1b565b92915050565b60008060408385031215612c5e57612c5d6121c5565b5b6000612c6c858286016121e6565b9250506020612c7d85828601612c32565b9150509250929050565b60008060408385031215612c9e57612c9d6121c5565b5b6000612cac858286016121e6565b9250506020612cbd858286016121e6565b9150509250929050565b600080600080600060a08688031215612ce357612ce26121c5565b5b6000612cf1888289016121e6565b9550506020612d02888289016121e6565b9450506040612d1388828901612212565b9350506060612d2488828901612212565b925050608086013567ffffffffffffffff811115612d4557612d446121ca565b5b612d51888289016125e3565b9150509295509295909350565b6000612d6982612138565b9050919050565b612d7981612d5e565b82525050565b6000602082019050612d946000830184612d70565b92915050565b7f455243313135353a206d696e7420746f20746865207a65726f2061646472657360008201527f7300000000000000000000000000000000000000000000000000000000000000602082015250565b6000612df66021836120bb565b9150612e0182612d9a565b604082019050919050565b60006020820190508181036000830152612e2581612de9565b9050919050565b7f4e487b7100000000000000000000000000000000000000000000000000000000600052601160045260246000fd5b6000612e6682612179565b9150612e7183612179565b9250827fffffffffffffffffffffffffffffffffffffffffffffffffffffffffffffffff03821115612ea657612ea5612e2c565b5b828201905092915050565b6000604082019050612ec66000830185612183565b612ed36020830184612183565b9392505050565b7f455243313135353a2061646472657373207a65726f206973206e6f742061207660008201527f616c6964206f776e657200000000000000000000000000000000000000000000602082015250565b6000612f36602a836120bb565b9150612f4182612eda565b604082019050919050565b60006020820190508181036000830152612f6581612f29565b9050919050565b7f4e487b7100000000000000000000000000000000000000000000000000000000600052602260045260246000fd5b60006002820490506001821680612fb357607f821691505b60208210811415612fc757612fc6612f6c565b5b50919050565b7f455243313135353a2063616c6c6572206973206e6f7420746f6b656e206f776e60008201527f6572206e6f7220617070726f7665640000000000000000000000000000000000602082015250565b6000613029602f836120bb565b915061303482612fcd565b604082019050919050565b600060208201905081810360008301526130588161301c565b9050919050565b7f455243313135353a206163636f756e747320616e6420696473206c656e67746860008201527f206d69736d617463680000000000000000000000000000000000000000000000602082015250565b60006130bb6029836120bb565b91506130c68261305f565b604082019050919050565b600060208201905081810360008301526130ea816130ae565b9050919050565b7f4e487b7100000000000000000000000000000000000000000000000000000000600052603260045260246000fd5b600061312b82612179565b91507fffffffffffffffffffffffffffffffffffffffffffffffffffffffffffffffff82141561315e5761315d612e2c565b5b600182019050919050565b7f4e6f74206f776e65720000000000000000000000000000000000000000000000600082015250565b600061319f6009836120bb565b91506131aa82613169565b602082019050919050565b600060208201905081810360008301526131ce81613192565b9050919050565b7f596f752063616e6e6f742066696e697368207468652063616d706169676e207960008201527f6574000000000000000000000000000000000000000000000000000000000000602082015250565b60006132316022836120bb565b915061323c826131d5565b604082019050919050565b6000602082019050818103600083015261326081613224565b9050919050565b600081519050919050565b600082825260208201905092915050565b600061328e82613267565b6132988185613272565b93506132a8818560208601612375565b6132b1816123a8565b840191505092915050565b600060a0820190506132d1600083018861216a565b6132de602083018761216a565b6132eb6040830186612183565b6132f86060830185612183565b818103608083015261330a8184613283565b90509695505050505050565b600081519050613325816122ae565b92915050565b600060208284031215613341576133406121c5565b5b600061334f84828501613316565b91505092915050565b60008160e01c9050919050565b600060033d11156133845760046000803e613381600051613358565b90505b90565b600060443d10156133975761341a565b61339f6121bb565b60043d036004823e80513d602482011167ffffffffffffffff821117156133c757505061341a565b808201805167ffffffffffffffff8111156133e5575050505061341a565b80602083010160043d03850181111561340257505050505061341a565b61341182602001850186612448565b82955050505050505b90565b7f455243313135353a207472616e7366657220746f206e6f6e204552433131353560008201527f526563656976657220696d706c656d656e746572000000000000000000000000602082015250565b60006134796034836120bb565b91506134848261341d565b604082019050919050565b600060208201905081810360008301526134a88161346c565b9050919050565b7f455243313135353a204552433131353552656365697665722072656a6563746560008201527f6420746f6b656e73000000000000000000000000000000000000000000000000602082015250565b600061350b6028836120bb565b9150613516826134af565b604082019050919050565b6000602082019050818103600083015261353a816134fe565b9050919050565b7f455243313135353a2069647320616e6420616d6f756e7473206c656e6774682060008201527f6d69736d61746368000000000000000000000000000000000000000000000000602082015250565b600061359d6028836120bb565b91506135a882613541565b604082019050919050565b600060208201905081810360008301526135cc81613590565b9050919050565b7f455243313135353a207472616e7366657220746f20746865207a65726f20616460008201527f6472657373000000000000000000000000000000000000000000000000000000602082015250565b600061362f6025836120bb565b915061363a826135d3565b604082019050919050565b6000602082019050818103600083015261365e81613622565b9050919050565b7f455243313135353a20696e73756666696369656e742062616c616e636520666f60008201527f72207472616e7366657200000000000000000000000000000000000000000000602082015250565b60006136c1602a836120bb565b91506136cc82613665565b604082019050919050565b600060208201905081810360008301526136f0816136b4565b9050919050565b6000604082019050818103600083015261371181856128c0565b9050818103602083015261372581846128c0565b90509392505050565b7f455243313135353a2073657474696e6720617070726f76616c2073746174757360008201527f20666f722073656c660000000000000000000000000000000000000000000000602082015250565b600061378a6029836120bb565b91506137958261372e565b604082019050919050565b600060208201905081810360008301526137b98161377d565b9050919050565b600060a0820190506137d5600083018861216a565b6137e2602083018761216a565b81810360408301526137f481866128c0565b9050818103606083015261380881856128c0565b9050818103608083015261381c8184613283565b9050969550505050505056fea264697066735822122050c169f65296534b01eb1c96d7621625d0647e7dc360ab25b0e2a539f60ec21564736f6c63430008090033a2646970667358221220473c5886fe7cafd988d49bcc53a6f914caf7155b36e02747babfafcce4f54ae464736f6c63430008090033",
  "linkReferences": {},
  "deployedLinkReferences": {}
}