{
  "_format": "hh-sol-artifact-1",
  "contractName": "CampaignFactory",
  "sourceName": "backend/src/contracts/campaignFactory.sol",
  "abi": [
    {
      "inputs": [],
      "stateMutability": "nonpayable",
      "type": "constructor"
    },
    {
      "inputs": [],
      "name": "activeCampaign",
      "outputs": [
        {
          "internalType": "address",
          "name": "",
          "type": "address"
        }
      ],
      "stateMutability": "view",
      "type": "function"
    },
    {
      "inputs": [
        {
          "internalType": "string",
          "name": "_name",
          "type": "string"
        },
        {
          "internalType": "string",
          "name": "_ipfsLink",
          "type": "string"
        },
        {
          "internalType": "address payable",
          "name": "_donationReceiver",
          "type": "address"
        },
        {
          "internalType": "string",
          "name": "_color",
          "type": "string"
        },
        {
          "internalType": "uint256",
          "name": "_expirationDate",
          "type": "uint256"
        },
        {
          "internalType": "string",
          "name": "_decription",
          "type": "string"
        }
      ],
      "name": "createCampaign",
      "outputs": [],
      "stateMutability": "nonpayable",
      "type": "function"
    },
    {
      "inputs": [],
      "name": "getCampaigns",
      "outputs": [
        {
          "components": [
            {
              "internalType": "string",
              "name": "name",
              "type": "string"
            },
            {
              "internalType": "address",
              "name": "endereco",
              "type": "address"
            }
          ],
          "internalType": "struct CampaignFactory.Campaigns[]",
          "name": "",
          "type": "tuple[]"
        }
      ],
      "stateMutability": "view",
      "type": "function"
    }
  ],
  "bytecode": "0x608060405234801561001057600080fd5b50336000806101000a81548173ffffffffffffffffffffffffffffffffffffffff021916908373ffffffffffffffffffffffffffffffffffffffff160217905550614c63806100606000396000f3fe60806040523480156200001157600080fd5b5060043610620000465760003560e01c8063283a1235146200004b578063a6b03633146200006d578063c05bbd8b146200008f575b600080fd5b62000055620000af565b6040516200006491906200052c565b60405180910390f35b62000077620000d5565b6040516200008691906200070f565b60405180910390f35b620000ad6004803603810190620000a7919062000918565b62000226565b005b600160009054906101000a900473ffffffffffffffffffffffffffffffffffffffff1681565b60606002805480602002602001604051908101604052809291908181526020016000905b828210156200021d57838290600052602060002090600202016040518060400160405290816000820180546200012f9062000a5f565b80601f01602080910402602001604051908101604052809291908181526020018280546200015d9062000a5f565b8015620001ae5780601f106200018257610100808354040283529160200191620001ae565b820191906000526020600020905b8154815290600101906020018083116200019057829003601f168201915b505050505081526020016001820160009054906101000a900473ffffffffffffffffffffffffffffffffffffffff1673ffffffffffffffffffffffffffffffffffffffff1673ffffffffffffffffffffffffffffffffffffffff168152505081526020019060010190620000f9565b50505050905090565b3373ffffffffffffffffffffffffffffffffffffffff1660008054906101000a900473ffffffffffffffffffffffffffffffffffffffff1673ffffffffffffffffffffffffffffffffffffffff1614620002b7576040517f08c379a0000000000000000000000000000000000000000000000000000000008152600401620002ae9062000af6565b60405180910390fd5b60008060009054906101000a900473ffffffffffffffffffffffffffffffffffffffff16878787878787604051620002ef9062000429565b62000301979695949392919062000b7b565b604051809103906000f0801580156200031e573d6000803e3d6000fd5b509050600260405180604001604052808981526020018373ffffffffffffffffffffffffffffffffffffffff16815250908060018154018082558091505060019003906000526020600020906002020160009091909190915060008201518160000190805190602001906200039592919062000437565b5060208201518160010160006101000a81548173ffffffffffffffffffffffffffffffffffffffff021916908373ffffffffffffffffffffffffffffffffffffffff160217905550505080600160006101000a81548173ffffffffffffffffffffffffffffffffffffffff021916908373ffffffffffffffffffffffffffffffffffffffff16021790555050505050505050565b6140198062000c1583390190565b828054620004459062000a5f565b90600052602060002090601f016020900481019282620004695760008555620004b5565b82601f106200048457805160ff1916838001178555620004b5565b82800160010185558215620004b5579182015b82811115620004b457825182559160200191906001019062000497565b5b509050620004c49190620004c8565b5090565b5b80821115620004e3576000816000905550600101620004c9565b5090565b600073ffffffffffffffffffffffffffffffffffffffff82169050919050565b60006200051482620004e7565b9050919050565b620005268162000507565b82525050565b60006020820190506200054360008301846200051b565b92915050565b600081519050919050565b600082825260208201905092915050565b6000819050602082019050919050565b600081519050919050565b600082825260208201905092915050565b60005b83811015620005b157808201518184015260208101905062000594565b83811115620005c1576000848401525b50505050565b6000601f19601f8301169050919050565b6000620005e58262000575565b620005f1818562000580565b93506200060381856020860162000591565b6200060e81620005c7565b840191505092915050565b620006248162000507565b82525050565b60006040830160008301518482036000860152620006498282620005d8565b915050602083015162000660602086018262000619565b508091505092915050565b60006200067983836200062a565b905092915050565b6000602082019050919050565b60006200069b8262000549565b620006a7818562000554565b935083602082028501620006bb8562000565565b8060005b85811015620006fd5784840389528151620006db85826200066b565b9450620006e88362000681565b925060208a01995050600181019050620006bf565b50829750879550505050505092915050565b600060208201905081810360008301526200072b81846200068e565b905092915050565b6000604051905090565b600080fd5b600080fd5b600080fd5b600080fd5b7f4e487b7100000000000000000000000000000000000000000000000000000000600052604160045260246000fd5b6200078b82620005c7565b810181811067ffffffffffffffff82111715620007ad57620007ac62000751565b5b80604052505050565b6000620007c262000733565b9050620007d0828262000780565b919050565b600067ffffffffffffffff821115620007f357620007f262000751565b5b620007fe82620005c7565b9050602081019050919050565b82818337600083830152505050565b6000620008316200082b84620007d5565b620007b6565b90508281526020810184848401111562000850576200084f6200074c565b5b6200085d8482856200080b565b509392505050565b600082601f8301126200087d576200087c62000747565b5b81356200088f8482602086016200081a565b91505092915050565b6000620008a582620004e7565b9050919050565b620008b78162000898565b8114620008c357600080fd5b50565b600081359050620008d781620008ac565b92915050565b6000819050919050565b620008f281620008dd565b8114620008fe57600080fd5b50565b6000813590506200091281620008e7565b92915050565b60008060008060008060c087890312156200093857620009376200073d565b5b600087013567ffffffffffffffff81111562000959576200095862000742565b5b6200096789828a0162000865565b965050602087013567ffffffffffffffff8111156200098b576200098a62000742565b5b6200099989828a0162000865565b9550506040620009ac89828a01620008c6565b945050606087013567ffffffffffffffff811115620009d057620009cf62000742565b5b620009de89828a0162000865565b9350506080620009f189828a0162000901565b92505060a087013567ffffffffffffffff81111562000a155762000a1462000742565b5b62000a2389828a0162000865565b9150509295509295509295565b7f4e487b7100000000000000000000000000000000000000000000000000000000600052602260045260246000fd5b6000600282049050600182168062000a7857607f821691505b6020821081141562000a8f5762000a8e62000a30565b5b50919050565b600082825260208201905092915050565b7f4e6f74206f776e65720000000000000000000000000000000000000000000000600082015250565b600062000ade60098362000a95565b915062000aeb8262000aa6565b602082019050919050565b6000602082019050818103600083015262000b118162000acf565b9050919050565b600062000b258262000575565b62000b31818562000a95565b935062000b4381856020860162000591565b62000b4e81620005c7565b840191505092915050565b62000b648162000898565b82525050565b62000b7581620008dd565b82525050565b600060e08201905062000b92600083018a6200051b565b818103602083015262000ba6818962000b18565b9050818103604083015262000bbc818862000b18565b905062000bcd606083018762000b59565b818103608083015262000be1818662000b18565b905062000bf260a083018562000b6a565b81810360c083015262000c06818462000b18565b90509897505050505050505056fe60806040523480156200001157600080fd5b506040516200401938038062004019833981810160405281019062000037919062000494565b8462000049816200014660201b60201c565b5086600360006101000a81548173ffffffffffffffffffffffffffffffffffffffff021916908373ffffffffffffffffffffffffffffffffffffffff1602179055508560049080519060200190620000a392919062000162565b506001600560006101000a81548160ff02191690831515021790555083600560016101000a81548173ffffffffffffffffffffffffffffffffffffffff021916908373ffffffffffffffffffffffffffffffffffffffff16021790555082600790805190602001906200011892919062000162565b508160068190555080600890805190602001906200013892919062000162565b505050505050505062000628565b80600290805190602001906200015e92919062000162565b5050565b8280546200017090620005f2565b90600052602060002090601f016020900481019282620001945760008555620001e0565b82601f10620001af57805160ff1916838001178555620001e0565b82800160010185558215620001e0579182015b82811115620001df578251825591602001919060010190620001c2565b5b509050620001ef9190620001f3565b5090565b5b808211156200020e576000816000905550600101620001f4565b5090565b6000604051905090565b600080fd5b600080fd5b600073ffffffffffffffffffffffffffffffffffffffff82169050919050565b6000620002538262000226565b9050919050565b620002658162000246565b81146200027157600080fd5b50565b60008151905062000285816200025a565b92915050565b600080fd5b600080fd5b6000601f19601f8301169050919050565b7f4e487b7100000000000000000000000000000000000000000000000000000000600052604160045260246000fd5b620002e08262000295565b810181811067ffffffffffffffff82111715620003025762000301620002a6565b5b80604052505050565b60006200031762000212565b9050620003258282620002d5565b919050565b600067ffffffffffffffff821115620003485762000347620002a6565b5b620003538262000295565b9050602081019050919050565b60005b838110156200038057808201518184015260208101905062000363565b8381111562000390576000848401525b50505050565b6000620003ad620003a7846200032a565b6200030b565b905082815260208101848484011115620003cc57620003cb62000290565b5b620003d984828562000360565b509392505050565b600082601f830112620003f957620003f86200028b565b5b81516200040b84826020860162000396565b91505092915050565b6000620004218262000226565b9050919050565b620004338162000414565b81146200043f57600080fd5b50565b600081519050620004538162000428565b92915050565b6000819050919050565b6200046e8162000459565b81146200047a57600080fd5b50565b6000815190506200048e8162000463565b92915050565b600080600080600080600060e0888a031215620004b657620004b56200021c565b5b6000620004c68a828b0162000274565b975050602088015167ffffffffffffffff811115620004ea57620004e962000221565b5b620004f88a828b01620003e1565b965050604088015167ffffffffffffffff8111156200051c576200051b62000221565b5b6200052a8a828b01620003e1565b95505060606200053d8a828b0162000442565b945050608088015167ffffffffffffffff81111562000561576200056062000221565b5b6200056f8a828b01620003e1565b93505060a0620005828a828b016200047d565b92505060c088015167ffffffffffffffff811115620005a657620005a562000221565b5b620005b48a828b01620003e1565b91505092959891949750929550565b7f4e487b7100000000000000000000000000000000000000000000000000000000600052602260045260246000fd5b600060028204905060018216806200060b57607f821691505b60208210811415620006225762000621620005c3565b5b50919050565b6139e180620006386000396000f3fe6080604052600436106101295760003560e01c80637284e416116100ab578063cf08fed51161006f578063cf08fed5146103ea578063d850149214610415578063e70f296814610441578063e985e9c51461045d578063f242432a1461049a578063f7260d3e146104c357610129565b80637284e416146103155780638da5cb5b146103405780638f6204871461036b57806396f300d414610396578063a22cb465146103c157610129565b8063200d2ed2116100f2578063200d2ed21461023b5780632eb2c2d6146102665780634abfa1631461028f5780634e1273f4146102ce57806371aac7f91461030b57610129565b8062fdd58e1461012e57806301ffc9a71461016b5780630724fda9146101a85780630e89341c146101d357806312065fe014610210575b600080fd5b34801561013a57600080fd5b50610155600480360381019061015091906122e6565b6104ee565b6040516101629190612335565b60405180910390f35b34801561017757600080fd5b50610192600480360381019061018d91906123a8565b6105b7565b60405161019f91906123f0565b60405180910390f35b3480156101b457600080fd5b506101bd610699565b6040516101ca91906124a4565b60405180910390f35b3480156101df57600080fd5b506101fa60048036038101906101f591906124c6565b610727565b60405161020791906124a4565b60405180910390f35b34801561021c57600080fd5b506102256107bb565b6040516102329190612335565b60405180910390f35b34801561024757600080fd5b506102506107c3565b60405161025d91906123f0565b60405180910390f35b34801561027257600080fd5b5061028d600480360381019061028891906126f0565b6107d6565b005b34801561029b57600080fd5b506102b660048036038101906102b191906124c6565b610877565b6040516102c5939291906127ce565b60405180910390f35b3480156102da57600080fd5b506102f560048036038101906102f091906128d6565b6109e1565b6040516103029190612a0c565b60405180910390f35b610313610afa565b005b34801561032157600080fd5b5061032a610d17565b60405161033791906124a4565b60405180910390f35b34801561034c57600080fd5b50610355610da5565b6040516103629190612a2e565b60405180910390f35b34801561037757600080fd5b50610380610dcb565b60405161038d9190612335565b60405180910390f35b3480156103a257600080fd5b506103ab610dd1565b6040516103b89190612bbb565b60405180910390f35b3480156103cd57600080fd5b506103e860048036038101906103e39190612c09565b610faa565b005b3480156103f657600080fd5b506103ff610fc0565b60405161040c91906124a4565b60405180910390f35b34801561042157600080fd5b5061042a61104e565b604051610438929190612c49565b60405180910390f35b61045b60048036038101906104569190612d13565b611080565b005b34801561046957600080fd5b50610484600480360381019061047f9190612d9e565b611277565b60405161049191906123f0565b60405180910390f35b3480156104a657600080fd5b506104c160048036038101906104bc9190612dde565b61130b565b005b3480156104cf57600080fd5b506104d86113ac565b6040516104e59190612e96565b60405180910390f35b60008073ffffffffffffffffffffffffffffffffffffffff168373ffffffffffffffffffffffffffffffffffffffff16141561055f576040517f08c379a000000000000000000000000000000000000000000000000000000000815260040161055690612f23565b60405180910390fd5b60008083815260200190815260200160002060008473ffffffffffffffffffffffffffffffffffffffff1673ffffffffffffffffffffffffffffffffffffffff16815260200190815260200160002054905092915050565b60007fd9b67a26000000000000000000000000000000000000000000000000000000007bffffffffffffffffffffffffffffffffffffffffffffffffffffffff1916827bffffffffffffffffffffffffffffffffffffffffffffffffffffffff1916148061068257507f0e89341c000000000000000000000000000000000000000000000000000000007bffffffffffffffffffffffffffffffffffffffffffffffffffffffff1916827bffffffffffffffffffffffffffffffffffffffffffffffffffffffff1916145b806106925750610691826113d2565b5b9050919050565b600480546106a690612f72565b80601f01602080910402602001604051908101604052809291908181526020018280546106d290612f72565b801561071f5780601f106106f45761010080835404028352916020019161071f565b820191906000526020600020905b81548152906001019060200180831161070257829003601f168201915b505050505081565b60606002805461073690612f72565b80601f016020809104026020016040519081016040528092919081815260200182805461076290612f72565b80156107af5780601f10610784576101008083540402835291602001916107af565b820191906000526020600020905b81548152906001019060200180831161079257829003601f168201915b50505050509050919050565b600047905090565b600560009054906101000a900460ff1681565b6107de61143c565b73ffffffffffffffffffffffffffffffffffffffff168573ffffffffffffffffffffffffffffffffffffffff16148061082457506108238561081e61143c565b611277565b5b610863576040517f08c379a000000000000000000000000000000000000000000000000000000000815260040161085a90613016565b60405180910390fd5b6108708585858585611444565b5050505050565b600b818154811061088757600080fd5b90600052602060002090600302016000915090508060000180546108aa90612f72565b80601f01602080910402602001604051908101604052809291908181526020018280546108d690612f72565b80156109235780601f106108f857610100808354040283529160200191610923565b820191906000526020600020905b81548152906001019060200180831161090657829003601f168201915b50505050509080600101805461093890612f72565b80601f016020809104026020016040519081016040528092919081815260200182805461096490612f72565b80156109b15780601f10610986576101008083540402835291602001916109b1565b820191906000526020600020905b81548152906001019060200180831161099457829003601f168201915b5050505050908060020160009054906101000a900473ffffffffffffffffffffffffffffffffffffffff16905083565b60608151835114610a27576040517f08c379a0000000000000000000000000000000000000000000000000000000008152600401610a1e906130a8565b60405180910390fd5b6000835167ffffffffffffffff811115610a4457610a436124f8565b5b604051908082528060200260200182016040528015610a725781602001602082028036833780820191505090505b50905060005b8451811015610aef57610abf858281518110610a9757610a966130c8565b5b6020026020010151858381518110610ab257610ab16130c8565b5b60200260200101516104ee565b828281518110610ad257610ad16130c8565b5b60200260200101818152505080610ae890613126565b9050610a78565b508091505092915050565b3373ffffffffffffffffffffffffffffffffffffffff16600360009054906101000a900473ffffffffffffffffffffffffffffffffffffffff1673ffffffffffffffffffffffffffffffffffffffff1614610b8a576040517f08c379a0000000000000000000000000000000000000000000000000000000008152600401610b81906131bb565b60405180910390fd5b6006544210158015610baf575060011515600560009054906101000a900460ff161515145b610bee576040517f08c379a0000000000000000000000000000000000000000000000000000000008152600401610be59061324d565b60405180910390fd5b600560019054906101000a900473ffffffffffffffffffffffffffffffffffffffff1673ffffffffffffffffffffffffffffffffffffffff166108fc610c326107bb565b9081150290604051600060405180830381858888f19350505050158015610c5d573d6000803e3d6000fd5b50600073ffffffffffffffffffffffffffffffffffffffff16600960000160009054906101000a900473ffffffffffffffffffffffffffffffffffffffff1673ffffffffffffffffffffffffffffffffffffffff1614610cfa57610cf9600960000160009054906101000a900473ffffffffffffffffffffffffffffffffffffffff166002600160405180602001604052806000815250611766565b5b6000600560006101000a81548160ff021916908315150217905550565b60088054610d2490612f72565b80601f0160208091040260200160405190810160405280929190818152602001828054610d5090612f72565b8015610d9d5780601f10610d7257610100808354040283529160200191610d9d565b820191906000526020600020905b815481529060010190602001808311610d8057829003601f168201915b505050505081565b600360009054906101000a900473ffffffffffffffffffffffffffffffffffffffff1681565b60065481565b6060600b805480602002602001604051908101604052809291908181526020016000905b82821015610fa15783829060005260206000209060030201604051806060016040529081600082018054610e2890612f72565b80601f0160208091040260200160405190810160405280929190818152602001828054610e5490612f72565b8015610ea15780601f10610e7657610100808354040283529160200191610ea1565b820191906000526020600020905b815481529060010190602001808311610e8457829003601f168201915b50505050508152602001600182018054610eba90612f72565b80601f0160208091040260200160405190810160405280929190818152602001828054610ee690612f72565b8015610f335780601f10610f0857610100808354040283529160200191610f33565b820191906000526020600020905b815481529060010190602001808311610f1657829003601f168201915b505050505081526020016002820160009054906101000a900473ffffffffffffffffffffffffffffffffffffffff1673ffffffffffffffffffffffffffffffffffffffff1673ffffffffffffffffffffffffffffffffffffffff168152505081526020019060010190610df5565b50505050905090565b610fbc610fb561143c565b8383611917565b5050565b60078054610fcd90612f72565b80601f0160208091040260200160405190810160405280929190818152602001828054610ff990612f72565b80156110465780601f1061101b57610100808354040283529160200191611046565b820191906000526020600020905b81548152906001019060200180831161102957829003601f168201915b505050505081565b60098060000160009054906101000a900473ffffffffffffffffffffffffffffffffffffffff16908060010154905082565b60011515600560009054906101000a900460ff1615151480156110a35750600034115b6110e2576040517f08c379a00000000000000000000000000000000000000000000000000000000081526004016110d9906132b9565b60405180910390fd5b6110fe3360018060405180602001604052806000815250611766565b60096001015434111561115a5733600960000160006101000a81548173ffffffffffffffffffffffffffffffffffffffff021916908373ffffffffffffffffffffffffffffffffffffffff160217905550346009600101819055505b600b60405180606001604052808581526020018481526020018373ffffffffffffffffffffffffffffffffffffffff16815250908060018154018082558091505060019003906000526020600020906003020160009091909190915060008201518160000190805190602001906111d292919061219b565b5060208201518160010190805190602001906111ef92919061219b565b5060408201518160020160006101000a81548173ffffffffffffffffffffffffffffffffffffffff021916908373ffffffffffffffffffffffffffffffffffffffff16021790555050507f88a5966d370b9919b20f3e2c13ff65706f196a4e32cc2c12bf57088f88525874333460405161126a929190612c49565b60405180910390a1505050565b6000600160008473ffffffffffffffffffffffffffffffffffffffff1673ffffffffffffffffffffffffffffffffffffffff16815260200190815260200160002060008373ffffffffffffffffffffffffffffffffffffffff1673ffffffffffffffffffffffffffffffffffffffff16815260200190815260200160002060009054906101000a900460ff16905092915050565b61131361143c565b73ffffffffffffffffffffffffffffffffffffffff168573ffffffffffffffffffffffffffffffffffffffff16148061135957506113588561135361143c565b611277565b5b611398576040517f08c379a000000000000000000000000000000000000000000000000000000000815260040161138f90613016565b60405180910390fd5b6113a58585858585611a84565b5050505050565b600560019054906101000a900473ffffffffffffffffffffffffffffffffffffffff1681565b60007f01ffc9a7000000000000000000000000000000000000000000000000000000007bffffffffffffffffffffffffffffffffffffffffffffffffffffffff1916827bffffffffffffffffffffffffffffffffffffffffffffffffffffffff1916149050919050565b600033905090565b8151835114611488576040517f08c379a000000000000000000000000000000000000000000000000000000000815260040161147f9061334b565b60405180910390fd5b600073ffffffffffffffffffffffffffffffffffffffff168473ffffffffffffffffffffffffffffffffffffffff1614156114f8576040517f08c379a00000000000000000000000000000000000000000000000000000000081526004016114ef906133dd565b60405180910390fd5b600061150261143c565b9050611512818787878787611d20565b60005b84518110156116c3576000858281518110611533576115326130c8565b5b602002602001015190506000858381518110611552576115516130c8565b5b60200260200101519050600080600084815260200190815260200160002060008b73ffffffffffffffffffffffffffffffffffffffff1673ffffffffffffffffffffffffffffffffffffffff168152602001908152602001600020549050818110156115f3576040517f08c379a00000000000000000000000000000000000000000000000000000000081526004016115ea9061346f565b60405180910390fd5b81810360008085815260200190815260200160002060008c73ffffffffffffffffffffffffffffffffffffffff1673ffffffffffffffffffffffffffffffffffffffff168152602001908152602001600020819055508160008085815260200190815260200160002060008b73ffffffffffffffffffffffffffffffffffffffff1673ffffffffffffffffffffffffffffffffffffffff16815260200190815260200160002060008282546116a8919061348f565b92505081905550505050806116bc90613126565b9050611515565b508473ffffffffffffffffffffffffffffffffffffffff168673ffffffffffffffffffffffffffffffffffffffff168273ffffffffffffffffffffffffffffffffffffffff167f4a39dc06d4c0dbc64b70af90fd698a233a518aa5d07e595d983b8c0526c8f7fb878760405161173a9291906134e5565b60405180910390a4611750818787878787611d28565b61175e818787878787611d30565b505050505050565b600073ffffffffffffffffffffffffffffffffffffffff168473ffffffffffffffffffffffffffffffffffffffff1614156117d6576040517f08c379a00000000000000000000000000000000000000000000000000000000081526004016117cd9061358e565b60405180910390fd5b60006117e061143c565b905060006117ed85611f17565b905060006117fa85611f17565b905061180b83600089858589611d20565b8460008088815260200190815260200160002060008973ffffffffffffffffffffffffffffffffffffffff1673ffffffffffffffffffffffffffffffffffffffff168152602001908152602001600020600082825461186a919061348f565b925050819055508673ffffffffffffffffffffffffffffffffffffffff16600073ffffffffffffffffffffffffffffffffffffffff168473ffffffffffffffffffffffffffffffffffffffff167fc3d58168c5ae7397731d063d5bbf3d657854427343f4c083240f7aacaa2d0f6289896040516118e89291906135ae565b60405180910390a46118ff83600089858589611d28565b61190e83600089898989611f91565b50505050505050565b8173ffffffffffffffffffffffffffffffffffffffff168373ffffffffffffffffffffffffffffffffffffffff161415611986576040517f08c379a000000000000000000000000000000000000000000000000000000000815260040161197d90613649565b60405180910390fd5b80600160008573ffffffffffffffffffffffffffffffffffffffff1673ffffffffffffffffffffffffffffffffffffffff16815260200190815260200160002060008473ffffffffffffffffffffffffffffffffffffffff1673ffffffffffffffffffffffffffffffffffffffff16815260200190815260200160002060006101000a81548160ff0219169083151502179055508173ffffffffffffffffffffffffffffffffffffffff168373ffffffffffffffffffffffffffffffffffffffff167f17307eab39ab6107e8899845ad3d59bd9653f200f220920489ca2b5937696c3183604051611a7791906123f0565b60405180910390a3505050565b600073ffffffffffffffffffffffffffffffffffffffff168473ffffffffffffffffffffffffffffffffffffffff161415611af4576040517f08c379a0000000000000000000000000000000000000000000000000000000008152600401611aeb906133dd565b60405180910390fd5b6000611afe61143c565b90506000611b0b85611f17565b90506000611b1885611f17565b9050611b28838989858589611d20565b600080600088815260200190815260200160002060008a73ffffffffffffffffffffffffffffffffffffffff1673ffffffffffffffffffffffffffffffffffffffff16815260200190815260200160002054905085811015611bbf576040517f08c379a0000000000000000000000000000000000000000000000000000000008152600401611bb69061346f565b60405180910390fd5b85810360008089815260200190815260200160002060008b73ffffffffffffffffffffffffffffffffffffffff1673ffffffffffffffffffffffffffffffffffffffff168152602001908152602001600020819055508560008089815260200190815260200160002060008a73ffffffffffffffffffffffffffffffffffffffff1673ffffffffffffffffffffffffffffffffffffffff1681526020019081526020016000206000828254611c74919061348f565b925050819055508773ffffffffffffffffffffffffffffffffffffffff168973ffffffffffffffffffffffffffffffffffffffff168573ffffffffffffffffffffffffffffffffffffffff167fc3d58168c5ae7397731d063d5bbf3d657854427343f4c083240f7aacaa2d0f628a8a604051611cf19291906135ae565b60405180910390a4611d07848a8a86868a611d28565b611d15848a8a8a8a8a611f91565b505050505050505050565b505050505050565b505050505050565b611d4f8473ffffffffffffffffffffffffffffffffffffffff16612178565b15611f0f578373ffffffffffffffffffffffffffffffffffffffff1663bc197c8187878686866040518663ffffffff1660e01b8152600401611d959594939291906136be565b602060405180830381600087803b158015611daf57600080fd5b505af1925050508015611de057506040513d601f19601f82011682018060405250810190611ddd919061373b565b60015b611e8657611dec613775565b806308c379a01415611e495750611e01613797565b80611e0c5750611e4b565b806040517f08c379a0000000000000000000000000000000000000000000000000000000008152600401611e4091906124a4565b60405180910390fd5b505b6040517f08c379a0000000000000000000000000000000000000000000000000000000008152600401611e7d9061389f565b60405180910390fd5b63bc197c8160e01b7bffffffffffffffffffffffffffffffffffffffffffffffffffffffff1916817bffffffffffffffffffffffffffffffffffffffffffffffffffffffff191614611f0d576040517f08c379a0000000000000000000000000000000000000000000000000000000008152600401611f0490613931565b60405180910390fd5b505b505050505050565b60606000600167ffffffffffffffff811115611f3657611f356124f8565b5b604051908082528060200260200182016040528015611f645781602001602082028036833780820191505090505b5090508281600081518110611f7c57611f7b6130c8565b5b60200260200101818152505080915050919050565b611fb08473ffffffffffffffffffffffffffffffffffffffff16612178565b15612170578373ffffffffffffffffffffffffffffffffffffffff1663f23a6e6187878686866040518663ffffffff1660e01b8152600401611ff6959493929190613951565b602060405180830381600087803b15801561201057600080fd5b505af192505050801561204157506040513d601f19601f8201168201806040525081019061203e919061373b565b60015b6120e75761204d613775565b806308c379a014156120aa5750612062613797565b8061206d57506120ac565b806040517f08c379a00000000000000000000000000000000000000000000000000000000081526004016120a191906124a4565b60405180910390fd5b505b6040517f08c379a00000000000000000000000000000000000000000000000000000000081526004016120de9061389f565b60405180910390fd5b63f23a6e6160e01b7bffffffffffffffffffffffffffffffffffffffffffffffffffffffff1916817bffffffffffffffffffffffffffffffffffffffffffffffffffffffff19161461216e576040517f08c379a000000000000000000000000000000000000000000000000000000000815260040161216590613931565b60405180910390fd5b505b505050505050565b6000808273ffffffffffffffffffffffffffffffffffffffff163b119050919050565b8280546121a790612f72565b90600052602060002090601f0160209004810192826121c95760008555612210565b82601f106121e257805160ff1916838001178555612210565b82800160010185558215612210579182015b8281111561220f5782518255916020019190600101906121f4565b5b50905061221d9190612221565b5090565b5b8082111561223a576000816000905550600101612222565b5090565b6000604051905090565b600080fd5b600080fd5b600073ffffffffffffffffffffffffffffffffffffffff82169050919050565b600061227d82612252565b9050919050565b61228d81612272565b811461229857600080fd5b50565b6000813590506122aa81612284565b92915050565b6000819050919050565b6122c3816122b0565b81146122ce57600080fd5b50565b6000813590506122e0816122ba565b92915050565b600080604083850312156122fd576122fc612248565b5b600061230b8582860161229b565b925050602061231c858286016122d1565b9150509250929050565b61232f816122b0565b82525050565b600060208201905061234a6000830184612326565b92915050565b60007fffffffff0000000000000000000000000000000000000000000000000000000082169050919050565b61238581612350565b811461239057600080fd5b50565b6000813590506123a28161237c565b92915050565b6000602082840312156123be576123bd612248565b5b60006123cc84828501612393565b91505092915050565b60008115159050919050565b6123ea816123d5565b82525050565b600060208201905061240560008301846123e1565b92915050565b600081519050919050565b600082825260208201905092915050565b60005b8381101561244557808201518184015260208101905061242a565b83811115612454576000848401525b50505050565b6000601f19601f8301169050919050565b60006124768261240b565b6124808185612416565b9350612490818560208601612427565b6124998161245a565b840191505092915050565b600060208201905081810360008301526124be818461246b565b905092915050565b6000602082840312156124dc576124db612248565b5b60006124ea848285016122d1565b91505092915050565b600080fd5b7f4e487b7100000000000000000000000000000000000000000000000000000000600052604160045260246000fd5b6125308261245a565b810181811067ffffffffffffffff8211171561254f5761254e6124f8565b5b80604052505050565b600061256261223e565b905061256e8282612527565b919050565b600067ffffffffffffffff82111561258e5761258d6124f8565b5b602082029050602081019050919050565b600080fd5b60006125b76125b284612573565b612558565b905080838252602082019050602084028301858111156125da576125d961259f565b5b835b8181101561260357806125ef88826122d1565b8452602084019350506020810190506125dc565b5050509392505050565b600082601f830112612622576126216124f3565b5b81356126328482602086016125a4565b91505092915050565b600080fd5b600067ffffffffffffffff82111561265b5761265a6124f8565b5b6126648261245a565b9050602081019050919050565b82818337600083830152505050565b600061269361268e84612640565b612558565b9050828152602081018484840111156126af576126ae61263b565b5b6126ba848285612671565b509392505050565b600082601f8301126126d7576126d66124f3565b5b81356126e7848260208601612680565b91505092915050565b600080600080600060a0868803121561270c5761270b612248565b5b600061271a8882890161229b565b955050602061272b8882890161229b565b945050604086013567ffffffffffffffff81111561274c5761274b61224d565b5b6127588882890161260d565b935050606086013567ffffffffffffffff8111156127795761277861224d565b5b6127858882890161260d565b925050608086013567ffffffffffffffff8111156127a6576127a561224d565b5b6127b2888289016126c2565b9150509295509295909350565b6127c881612272565b82525050565b600060608201905081810360008301526127e8818661246b565b905081810360208301526127fc818561246b565b905061280b60408301846127bf565b949350505050565b600067ffffffffffffffff82111561282e5761282d6124f8565b5b602082029050602081019050919050565b600061285261284d84612813565b612558565b905080838252602082019050602084028301858111156128755761287461259f565b5b835b8181101561289e578061288a888261229b565b845260208401935050602081019050612877565b5050509392505050565b600082601f8301126128bd576128bc6124f3565b5b81356128cd84826020860161283f565b91505092915050565b600080604083850312156128ed576128ec612248565b5b600083013567ffffffffffffffff81111561290b5761290a61224d565b5b612917858286016128a8565b925050602083013567ffffffffffffffff8111156129385761293761224d565b5b6129448582860161260d565b9150509250929050565b600081519050919050565b600082825260208201905092915050565b6000819050602082019050919050565b612983816122b0565b82525050565b6000612995838361297a565b60208301905092915050565b6000602082019050919050565b60006129b98261294e565b6129c38185612959565b93506129ce8361296a565b8060005b838110156129ff5781516129e68882612989565b97506129f1836129a1565b9250506001810190506129d2565b5085935050505092915050565b60006020820190508181036000830152612a2681846129ae565b905092915050565b6000602082019050612a4360008301846127bf565b92915050565b600081519050919050565b600082825260208201905092915050565b6000819050602082019050919050565b600082825260208201905092915050565b6000612a918261240b565b612a9b8185612a75565b9350612aab818560208601612427565b612ab48161245a565b840191505092915050565b612ac881612272565b82525050565b60006060830160008301518482036000860152612aeb8282612a86565b91505060208301518482036020860152612b058282612a86565b9150506040830151612b1a6040860182612abf565b508091505092915050565b6000612b318383612ace565b905092915050565b6000602082019050919050565b6000612b5182612a49565b612b5b8185612a54565b935083602082028501612b6d85612a65565b8060005b85811015612ba95784840389528151612b8a8582612b25565b9450612b9583612b39565b925060208a01995050600181019050612b71565b50829750879550505050505092915050565b60006020820190508181036000830152612bd58184612b46565b905092915050565b612be6816123d5565b8114612bf157600080fd5b50565b600081359050612c0381612bdd565b92915050565b60008060408385031215612c2057612c1f612248565b5b6000612c2e8582860161229b565b9250506020612c3f85828601612bf4565b9150509250929050565b6000604082019050612c5e60008301856127bf565b612c6b6020830184612326565b9392505050565b600067ffffffffffffffff821115612c8d57612c8c6124f8565b5b612c968261245a565b9050602081019050919050565b6000612cb6612cb184612c72565b612558565b905082815260208101848484011115612cd257612cd161263b565b5b612cdd848285612671565b509392505050565b600082601f830112612cfa57612cf96124f3565b5b8135612d0a848260208601612ca3565b91505092915050565b600080600060608486031215612d2c57612d2b612248565b5b600084013567ffffffffffffffff811115612d4a57612d4961224d565b5b612d5686828701612ce5565b935050602084013567ffffffffffffffff811115612d7757612d7661224d565b5b612d8386828701612ce5565b9250506040612d948682870161229b565b9150509250925092565b60008060408385031215612db557612db4612248565b5b6000612dc38582860161229b565b9250506020612dd48582860161229b565b9150509250929050565b600080600080600060a08688031215612dfa57612df9612248565b5b6000612e088882890161229b565b9550506020612e198882890161229b565b9450506040612e2a888289016122d1565b9350506060612e3b888289016122d1565b925050608086013567ffffffffffffffff811115612e5c57612e5b61224d565b5b612e68888289016126c2565b9150509295509295909350565b6000612e8082612252565b9050919050565b612e9081612e75565b82525050565b6000602082019050612eab6000830184612e87565b92915050565b7f455243313135353a2061646472657373207a65726f206973206e6f742061207660008201527f616c6964206f776e657200000000000000000000000000000000000000000000602082015250565b6000612f0d602a83612416565b9150612f1882612eb1565b604082019050919050565b60006020820190508181036000830152612f3c81612f00565b9050919050565b7f4e487b7100000000000000000000000000000000000000000000000000000000600052602260045260246000fd5b60006002820490506001821680612f8a57607f821691505b60208210811415612f9e57612f9d612f43565b5b50919050565b7f455243313135353a2063616c6c6572206973206e6f7420746f6b656e206f776e60008201527f6572206e6f7220617070726f7665640000000000000000000000000000000000602082015250565b6000613000602f83612416565b915061300b82612fa4565b604082019050919050565b6000602082019050818103600083015261302f81612ff3565b9050919050565b7f455243313135353a206163636f756e747320616e6420696473206c656e67746860008201527f206d69736d617463680000000000000000000000000000000000000000000000602082015250565b6000613092602983612416565b915061309d82613036565b604082019050919050565b600060208201905081810360008301526130c181613085565b9050919050565b7f4e487b7100000000000000000000000000000000000000000000000000000000600052603260045260246000fd5b7f4e487b7100000000000000000000000000000000000000000000000000000000600052601160045260246000fd5b6000613131826122b0565b91507fffffffffffffffffffffffffffffffffffffffffffffffffffffffffffffffff821415613164576131636130f7565b5b600182019050919050565b7f4e6f74206f776e65720000000000000000000000000000000000000000000000600082015250565b60006131a5600983612416565b91506131b08261316f565b602082019050919050565b600060208201905081810360008301526131d481613198565b9050919050565b7f596f752063616e6e6f742066696e697368207468652063616d706169676e207960008201527f6574000000000000000000000000000000000000000000000000000000000000602082015250565b6000613237602283612416565b9150613242826131db565b604082019050919050565b600060208201905081810360008301526132668161322a565b9050919050565b7f546869732063616d706169676e206973206e6f74206163746976650000000000600082015250565b60006132a3601b83612416565b91506132ae8261326d565b602082019050919050565b600060208201905081810360008301526132d281613296565b9050919050565b7f455243313135353a2069647320616e6420616d6f756e7473206c656e6774682060008201527f6d69736d61746368000000000000000000000000000000000000000000000000602082015250565b6000613335602883612416565b9150613340826132d9565b604082019050919050565b6000602082019050818103600083015261336481613328565b9050919050565b7f455243313135353a207472616e7366657220746f20746865207a65726f20616460008201527f6472657373000000000000000000000000000000000000000000000000000000602082015250565b60006133c7602583612416565b91506133d28261336b565b604082019050919050565b600060208201905081810360008301526133f6816133ba565b9050919050565b7f455243313135353a20696e73756666696369656e742062616c616e636520666f60008201527f72207472616e7366657200000000000000000000000000000000000000000000602082015250565b6000613459602a83612416565b9150613464826133fd565b604082019050919050565b600060208201905081810360008301526134888161344c565b9050919050565b600061349a826122b0565b91506134a5836122b0565b9250827fffffffffffffffffffffffffffffffffffffffffffffffffffffffffffffffff038211156134da576134d96130f7565b5b828201905092915050565b600060408201905081810360008301526134ff81856129ae565b9050818103602083015261351381846129ae565b90509392505050565b7f455243313135353a206d696e7420746f20746865207a65726f2061646472657360008201527f7300000000000000000000000000000000000000000000000000000000000000602082015250565b6000613578602183612416565b91506135838261351c565b604082019050919050565b600060208201905081810360008301526135a78161356b565b9050919050565b60006040820190506135c36000830185612326565b6135d06020830184612326565b9392505050565b7f455243313135353a2073657474696e6720617070726f76616c2073746174757360008201527f20666f722073656c660000000000000000000000000000000000000000000000602082015250565b6000613633602983612416565b915061363e826135d7565b604082019050919050565b6000602082019050818103600083015261366281613626565b9050919050565b600081519050919050565b600082825260208201905092915050565b600061369082613669565b61369a8185613674565b93506136aa818560208601612427565b6136b38161245a565b840191505092915050565b600060a0820190506136d360008301886127bf565b6136e060208301876127bf565b81810360408301526136f281866129ae565b9050818103606083015261370681856129ae565b9050818103608083015261371a8184613685565b90509695505050505050565b6000815190506137358161237c565b92915050565b60006020828403121561375157613750612248565b5b600061375f84828501613726565b91505092915050565b60008160e01c9050919050565b600060033d11156137945760046000803e613791600051613768565b90505b90565b600060443d10156137a75761382a565b6137af61223e565b60043d036004823e80513d602482011167ffffffffffffffff821117156137d757505061382a565b808201805167ffffffffffffffff8111156137f5575050505061382a565b80602083010160043d03850181111561381257505050505061382a565b61382182602001850186612527565b82955050505050505b90565b7f455243313135353a207472616e7366657220746f206e6f6e204552433131353560008201527f526563656976657220696d706c656d656e746572000000000000000000000000602082015250565b6000613889603483612416565b91506138948261382d565b604082019050919050565b600060208201905081810360008301526138b88161387c565b9050919050565b7f455243313135353a204552433131353552656365697665722072656a6563746560008201527f6420746f6b656e73000000000000000000000000000000000000000000000000602082015250565b600061391b602883612416565b9150613926826138bf565b604082019050919050565b6000602082019050818103600083015261394a8161390e565b9050919050565b600060a08201905061396660008301886127bf565b61397360208301876127bf565b6139806040830186612326565b61398d6060830185612326565b818103608083015261399f8184613685565b9050969550505050505056fea26469706673582212200e1c20bacb1b93adb2d16252b45090b70006d9fea5415fbf1caf3c71bc20b3fc64736f6c63430008090033a2646970667358221220e6f834e545e23c4533ab62c62f4e98295276d97dcc6baaa32ea48a8008682e2b64736f6c63430008090033",
  "linkReferences": {},
  "deployedLinkReferences": {}
}