{
  "_format": "hh-sol-artifact-1",
  "contractName": "Campaign",
  "sourceName": "backend/src/contracts/campaign.sol",
  "abi": [
    {
      "inputs": [
        {
          "internalType": "address",
          "name": "_owner",
          "type": "address"
        },
        {
          "internalType": "string",
          "name": "_campaignName",
          "type": "string"
        },
        {
          "internalType": "string",
          "name": "_ipfsLink",
          "type": "string"
        },
        {
          "internalType": "address payable",
          "name": "_receiver",
          "type": "address"
        },
        {
          "internalType": "string",
          "name": "_color",
          "type": "string"
        },
        {
          "internalType": "uint256",
          "name": "_expirationDate",
          "type": "uint256"
        },
        {
          "internalType": "string",
          "name": "_description",
          "type": "string"
        }
      ],
      "stateMutability": "nonpayable",
      "type": "constructor"
    },
    {
      "anonymous": false,
      "inputs": [
        {
          "indexed": true,
          "internalType": "address",
          "name": "account",
          "type": "address"
        },
        {
          "indexed": true,
          "internalType": "address",
          "name": "operator",
          "type": "address"
        },
        {
          "indexed": false,
          "internalType": "bool",
          "name": "approved",
          "type": "bool"
        }
      ],
      "name": "ApprovalForAll",
      "type": "event"
    },
    {
      "anonymous": false,
      "inputs": [
        {
          "indexed": false,
          "internalType": "address",
          "name": "",
          "type": "address"
        },
        {
          "indexed": false,
          "internalType": "uint256",
          "name": "",
          "type": "uint256"
        }
      ],
      "name": "Received",
      "type": "event"
    },
    {
      "anonymous": false,
      "inputs": [
        {
          "indexed": true,
          "internalType": "address",
          "name": "operator",
          "type": "address"
        },
        {
          "indexed": true,
          "internalType": "address",
          "name": "from",
          "type": "address"
        },
        {
          "indexed": true,
          "internalType": "address",
          "name": "to",
          "type": "address"
        },
        {
          "indexed": false,
          "internalType": "uint256[]",
          "name": "ids",
          "type": "uint256[]"
        },
        {
          "indexed": false,
          "internalType": "uint256[]",
          "name": "values",
          "type": "uint256[]"
        }
      ],
      "name": "TransferBatch",
      "type": "event"
    },
    {
      "anonymous": false,
      "inputs": [
        {
          "indexed": true,
          "internalType": "address",
          "name": "operator",
          "type": "address"
        },
        {
          "indexed": true,
          "internalType": "address",
          "name": "from",
          "type": "address"
        },
        {
          "indexed": true,
          "internalType": "address",
          "name": "to",
          "type": "address"
        },
        {
          "indexed": false,
          "internalType": "uint256",
          "name": "id",
          "type": "uint256"
        },
        {
          "indexed": false,
          "internalType": "uint256",
          "name": "value",
          "type": "uint256"
        }
      ],
      "name": "TransferSingle",
      "type": "event"
    },
    {
      "anonymous": false,
      "inputs": [
        {
          "indexed": false,
          "internalType": "string",
          "name": "value",
          "type": "string"
        },
        {
          "indexed": true,
          "internalType": "uint256",
          "name": "id",
          "type": "uint256"
        }
      ],
      "name": "URI",
      "type": "event"
    },
    {
      "inputs": [
        {
          "internalType": "string",
          "name": "_name",
          "type": "string"
        },
        {
          "internalType": "string",
          "name": "_number",
          "type": "string"
        },
        {
          "internalType": "address",
          "name": "_endereco",
          "type": "address"
        }
      ],
      "name": "addDonation",
      "outputs": [],
      "stateMutability": "payable",
      "type": "function"
    },
    {
      "inputs": [
        {
          "internalType": "address",
          "name": "account",
          "type": "address"
        },
        {
          "internalType": "uint256",
          "name": "id",
          "type": "uint256"
        }
      ],
      "name": "balanceOf",
      "outputs": [
        {
          "internalType": "uint256",
          "name": "",
          "type": "uint256"
        }
      ],
      "stateMutability": "view",
      "type": "function"
    },
    {
      "inputs": [
        {
          "internalType": "address[]",
          "name": "accounts",
          "type": "address[]"
        },
        {
          "internalType": "uint256[]",
          "name": "ids",
          "type": "uint256[]"
        }
      ],
      "name": "balanceOfBatch",
      "outputs": [
        {
          "internalType": "uint256[]",
          "name": "",
          "type": "uint256[]"
        }
      ],
      "stateMutability": "view",
      "type": "function"
    },
    {
      "inputs": [],
      "name": "biggestDonation",
      "outputs": [
        {
          "internalType": "string",
          "name": "name",
          "type": "string"
        },
        {
          "internalType": "address",
          "name": "endereco",
          "type": "address"
        },
        {
          "internalType": "uint256",
          "name": "amount",
          "type": "uint256"
        }
      ],
      "stateMutability": "view",
      "type": "function"
    },
    {
      "inputs": [],
      "name": "campaignName",
      "outputs": [
        {
          "internalType": "string",
          "name": "",
          "type": "string"
        }
      ],
      "stateMutability": "view",
      "type": "function"
    },
    {
      "inputs": [],
      "name": "color",
      "outputs": [
        {
          "internalType": "string",
          "name": "",
          "type": "string"
        }
      ],
      "stateMutability": "view",
      "type": "function"
    },
    {
      "inputs": [],
      "name": "description",
      "outputs": [
        {
          "internalType": "string",
          "name": "",
          "type": "string"
        }
      ],
      "stateMutability": "view",
      "type": "function"
    },
    {
      "inputs": [
        {
          "internalType": "uint256",
          "name": "",
          "type": "uint256"
        }
      ],
      "name": "donors",
      "outputs": [
        {
          "internalType": "string",
          "name": "name",
          "type": "string"
        },
        {
          "internalType": "string",
          "name": "number",
          "type": "string"
        },
        {
          "internalType": "address",
          "name": "endereco",
          "type": "address"
        },
        {
          "internalType": "uint256",
          "name": "amount",
          "type": "uint256"
        }
      ],
      "stateMutability": "view",
      "type": "function"
    },
    {
      "inputs": [],
      "name": "endCampaign",
      "outputs": [],
      "stateMutability": "payable",
      "type": "function"
    },
    {
      "inputs": [],
      "name": "expirationDate",
      "outputs": [
        {
          "internalType": "uint256",
          "name": "",
          "type": "uint256"
        }
      ],
      "stateMutability": "view",
      "type": "function"
    },
    {
      "inputs": [],
      "name": "getBalance",
      "outputs": [
        {
          "internalType": "uint256",
          "name": "",
          "type": "uint256"
        }
      ],
      "stateMutability": "view",
      "type": "function"
    },
    {
      "inputs": [],
      "name": "getDonors",
      "outputs": [
        {
          "components": [
            {
              "internalType": "string",
              "name": "name",
              "type": "string"
            },
            {
              "internalType": "string",
              "name": "number",
              "type": "string"
            },
            {
              "internalType": "address",
              "name": "endereco",
              "type": "address"
            },
            {
              "internalType": "uint256",
              "name": "amount",
              "type": "uint256"
            }
          ],
          "internalType": "struct Campaign.Donors[]",
          "name": "",
          "type": "tuple[]"
        }
      ],
      "stateMutability": "view",
      "type": "function"
    },
    {
      "inputs": [
        {
          "internalType": "address",
          "name": "account",
          "type": "address"
        },
        {
          "internalType": "address",
          "name": "operator",
          "type": "address"
        }
      ],
      "name": "isApprovedForAll",
      "outputs": [
        {
          "internalType": "bool",
          "name": "",
          "type": "bool"
        }
      ],
      "stateMutability": "view",
      "type": "function"
    },
    {
      "inputs": [],
      "name": "owner",
      "outputs": [
        {
          "internalType": "address",
          "name": "",
          "type": "address"
        }
      ],
      "stateMutability": "view",
      "type": "function"
    },
    {
      "inputs": [],
      "name": "receiver",
      "outputs": [
        {
          "internalType": "address payable",
          "name": "",
          "type": "address"
        }
      ],
      "stateMutability": "view",
      "type": "function"
    },
    {
      "inputs": [
        {
          "internalType": "address",
          "name": "from",
          "type": "address"
        },
        {
          "internalType": "address",
          "name": "to",
          "type": "address"
        },
        {
          "internalType": "uint256[]",
          "name": "ids",
          "type": "uint256[]"
        },
        {
          "internalType": "uint256[]",
          "name": "amounts",
          "type": "uint256[]"
        },
        {
          "internalType": "bytes",
          "name": "data",
          "type": "bytes"
        }
      ],
      "name": "safeBatchTransferFrom",
      "outputs": [],
      "stateMutability": "nonpayable",
      "type": "function"
    },
    {
      "inputs": [
        {
          "internalType": "address",
          "name": "from",
          "type": "address"
        },
        {
          "internalType": "address",
          "name": "to",
          "type": "address"
        },
        {
          "internalType": "uint256",
          "name": "id",
          "type": "uint256"
        },
        {
          "internalType": "uint256",
          "name": "amount",
          "type": "uint256"
        },
        {
          "internalType": "bytes",
          "name": "data",
          "type": "bytes"
        }
      ],
      "name": "safeTransferFrom",
      "outputs": [],
      "stateMutability": "nonpayable",
      "type": "function"
    },
    {
      "inputs": [
        {
          "internalType": "address",
          "name": "operator",
          "type": "address"
        },
        {
          "internalType": "bool",
          "name": "approved",
          "type": "bool"
        }
      ],
      "name": "setApprovalForAll",
      "outputs": [],
      "stateMutability": "nonpayable",
      "type": "function"
    },
    {
      "inputs": [],
      "name": "status",
      "outputs": [
        {
          "internalType": "bool",
          "name": "",
          "type": "bool"
        }
      ],
      "stateMutability": "view",
      "type": "function"
    },
    {
      "inputs": [
        {
          "internalType": "bytes4",
          "name": "interfaceId",
          "type": "bytes4"
        }
      ],
      "name": "supportsInterface",
      "outputs": [
        {
          "internalType": "bool",
          "name": "",
          "type": "bool"
        }
      ],
      "stateMutability": "view",
      "type": "function"
    },
    {
      "inputs": [
        {
          "internalType": "uint256",
          "name": "",
          "type": "uint256"
        }
      ],
      "name": "uri",
      "outputs": [
        {
          "internalType": "string",
          "name": "",
          "type": "string"
        }
      ],
      "stateMutability": "view",
      "type": "function"
    }
  ],
  "bytecode": "0x60806040523480156200001157600080fd5b506040516200414238038062004142833981810160405281019062000037919062000494565b8462000049816200014660201b60201c565b5086600360006101000a81548173ffffffffffffffffffffffffffffffffffffffff021916908373ffffffffffffffffffffffffffffffffffffffff1602179055508560049080519060200190620000a392919062000162565b506001600560006101000a81548160ff02191690831515021790555083600560016101000a81548173ffffffffffffffffffffffffffffffffffffffff021916908373ffffffffffffffffffffffffffffffffffffffff16021790555082600790805190602001906200011892919062000162565b508160068190555080600890805190602001906200013892919062000162565b505050505050505062000628565b80600290805190602001906200015e92919062000162565b5050565b8280546200017090620005f2565b90600052602060002090601f016020900481019282620001945760008555620001e0565b82601f10620001af57805160ff1916838001178555620001e0565b82800160010185558215620001e0579182015b82811115620001df578251825591602001919060010190620001c2565b5b509050620001ef9190620001f3565b5090565b5b808211156200020e576000816000905550600101620001f4565b5090565b6000604051905090565b600080fd5b600080fd5b600073ffffffffffffffffffffffffffffffffffffffff82169050919050565b6000620002538262000226565b9050919050565b620002658162000246565b81146200027157600080fd5b50565b60008151905062000285816200025a565b92915050565b600080fd5b600080fd5b6000601f19601f8301169050919050565b7f4e487b7100000000000000000000000000000000000000000000000000000000600052604160045260246000fd5b620002e08262000295565b810181811067ffffffffffffffff82111715620003025762000301620002a6565b5b80604052505050565b60006200031762000212565b9050620003258282620002d5565b919050565b600067ffffffffffffffff821115620003485762000347620002a6565b5b620003538262000295565b9050602081019050919050565b60005b838110156200038057808201518184015260208101905062000363565b8381111562000390576000848401525b50505050565b6000620003ad620003a7846200032a565b6200030b565b905082815260208101848484011115620003cc57620003cb62000290565b5b620003d984828562000360565b509392505050565b600082601f830112620003f957620003f86200028b565b5b81516200040b84826020860162000396565b91505092915050565b6000620004218262000226565b9050919050565b620004338162000414565b81146200043f57600080fd5b50565b600081519050620004538162000428565b92915050565b6000819050919050565b6200046e8162000459565b81146200047a57600080fd5b50565b6000815190506200048e8162000463565b92915050565b600080600080600080600060e0888a031215620004b657620004b56200021c565b5b6000620004c68a828b0162000274565b975050602088015167ffffffffffffffff811115620004ea57620004e962000221565b5b620004f88a828b01620003e1565b965050604088015167ffffffffffffffff8111156200051c576200051b62000221565b5b6200052a8a828b01620003e1565b95505060606200053d8a828b0162000442565b945050608088015167ffffffffffffffff81111562000561576200056062000221565b5b6200056f8a828b01620003e1565b93505060a0620005828a828b016200047d565b92505060c088015167ffffffffffffffff811115620005a657620005a562000221565b5b620005b48a828b01620003e1565b91505092959891949750929550565b7f4e487b7100000000000000000000000000000000000000000000000000000000600052602260045260246000fd5b600060028204905060018216806200060b57607f821691505b60208210811415620006225762000621620005c3565b5b50919050565b613b0a80620006386000396000f3fe6080604052600436106101295760003560e01c80637284e416116100ab578063cf08fed51161006f578063cf08fed5146103eb578063d850149214610416578063e70f296814610443578063e985e9c51461045f578063f242432a1461049c578063f7260d3e146104c557610129565b80637284e416146103165780638da5cb5b146103415780638f6204871461036c57806396f300d414610397578063a22cb465146103c257610129565b8063200d2ed2116100f2578063200d2ed21461023b5780632eb2c2d6146102665780634abfa1631461028f5780634e1273f4146102cf57806371aac7f91461030c57610129565b8062fdd58e1461012e57806301ffc9a71461016b5780630724fda9146101a85780630e89341c146101d357806312065fe014610210575b600080fd5b34801561013a57600080fd5b50610155600480360381019061015091906123b0565b6104f0565b60405161016291906123ff565b60405180910390f35b34801561017757600080fd5b50610192600480360381019061018d9190612472565b6105b9565b60405161019f91906124ba565b60405180910390f35b3480156101b457600080fd5b506101bd61069b565b6040516101ca919061256e565b60405180910390f35b3480156101df57600080fd5b506101fa60048036038101906101f59190612590565b610729565b604051610207919061256e565b60405180910390f35b34801561021c57600080fd5b506102256107bd565b60405161023291906123ff565b60405180910390f35b34801561024757600080fd5b506102506107c5565b60405161025d91906124ba565b60405180910390f35b34801561027257600080fd5b5061028d600480360381019061028891906127ba565b6107d8565b005b34801561029b57600080fd5b506102b660048036038101906102b19190612590565b610879565b6040516102c69493929190612898565b60405180910390f35b3480156102db57600080fd5b506102f660048036038101906102f191906129ae565b6109e9565b6040516103039190612ae4565b60405180910390f35b610314610b02565b005b34801561032257600080fd5b5061032b610d1f565b604051610338919061256e565b60405180910390f35b34801561034d57600080fd5b50610356610dad565b6040516103639190612b06565b60405180910390f35b34801561037857600080fd5b50610381610dd3565b60405161038e91906123ff565b60405180910390f35b3480156103a357600080fd5b506103ac610dd9565b6040516103b99190612ca6565b60405180910390f35b3480156103ce57600080fd5b506103e960048036038101906103e49190612cf4565b610fbc565b005b3480156103f757600080fd5b50610400610fd2565b60405161040d919061256e565b60405180910390f35b34801561042257600080fd5b5061042b611060565b60405161043a93929190612d34565b60405180910390f35b61045d60048036038101906104589190612e13565b611120565b005b34801561046b57600080fd5b5061048660048036038101906104819190612e9e565b611341565b60405161049391906124ba565b60405180910390f35b3480156104a857600080fd5b506104c360048036038101906104be9190612ede565b6113d5565b005b3480156104d157600080fd5b506104da611476565b6040516104e79190612f96565b60405180910390f35b60008073ffffffffffffffffffffffffffffffffffffffff168373ffffffffffffffffffffffffffffffffffffffff161415610561576040517f08c379a000000000000000000000000000000000000000000000000000000000815260040161055890613023565b60405180910390fd5b60008083815260200190815260200160002060008473ffffffffffffffffffffffffffffffffffffffff1673ffffffffffffffffffffffffffffffffffffffff16815260200190815260200160002054905092915050565b60007fd9b67a26000000000000000000000000000000000000000000000000000000007bffffffffffffffffffffffffffffffffffffffffffffffffffffffff1916827bffffffffffffffffffffffffffffffffffffffffffffffffffffffff1916148061068457507f0e89341c000000000000000000000000000000000000000000000000000000007bffffffffffffffffffffffffffffffffffffffffffffffffffffffff1916827bffffffffffffffffffffffffffffffffffffffffffffffffffffffff1916145b8061069457506106938261149c565b5b9050919050565b600480546106a890613072565b80601f01602080910402602001604051908101604052809291908181526020018280546106d490613072565b80156107215780601f106106f657610100808354040283529160200191610721565b820191906000526020600020905b81548152906001019060200180831161070457829003601f168201915b505050505081565b60606002805461073890613072565b80601f016020809104026020016040519081016040528092919081815260200182805461076490613072565b80156107b15780601f10610786576101008083540402835291602001916107b1565b820191906000526020600020905b81548152906001019060200180831161079457829003601f168201915b50505050509050919050565b600047905090565b600560009054906101000a900460ff1681565b6107e0611506565b73ffffffffffffffffffffffffffffffffffffffff168573ffffffffffffffffffffffffffffffffffffffff161480610826575061082585610820611506565b611341565b5b610865576040517f08c379a000000000000000000000000000000000000000000000000000000000815260040161085c90613116565b60405180910390fd5b610872858585858561150e565b5050505050565b600c818154811061088957600080fd5b90600052602060002090600402016000915090508060000180546108ac90613072565b80601f01602080910402602001604051908101604052809291908181526020018280546108d890613072565b80156109255780601f106108fa57610100808354040283529160200191610925565b820191906000526020600020905b81548152906001019060200180831161090857829003601f168201915b50505050509080600101805461093a90613072565b80601f016020809104026020016040519081016040528092919081815260200182805461096690613072565b80156109b35780601f10610988576101008083540402835291602001916109b3565b820191906000526020600020905b81548152906001019060200180831161099657829003601f168201915b5050505050908060020160009054906101000a900473ffffffffffffffffffffffffffffffffffffffff16908060030154905084565b60608151835114610a2f576040517f08c379a0000000000000000000000000000000000000000000000000000000008152600401610a26906131a8565b60405180910390fd5b6000835167ffffffffffffffff811115610a4c57610a4b6125c2565b5b604051908082528060200260200182016040528015610a7a5781602001602082028036833780820191505090505b50905060005b8451811015610af757610ac7858281518110610a9f57610a9e6131c8565b5b6020026020010151858381518110610aba57610ab96131c8565b5b60200260200101516104f0565b828281518110610ada57610ad96131c8565b5b60200260200101818152505080610af090613226565b9050610a80565b508091505092915050565b3373ffffffffffffffffffffffffffffffffffffffff16600360009054906101000a900473ffffffffffffffffffffffffffffffffffffffff1673ffffffffffffffffffffffffffffffffffffffff1614610b92576040517f08c379a0000000000000000000000000000000000000000000000000000000008152600401610b89906132bb565b60405180910390fd5b6006544210158015610bb7575060011515600560009054906101000a900460ff161515145b610bf6576040517f08c379a0000000000000000000000000000000000000000000000000000000008152600401610bed9061334d565b60405180910390fd5b600560019054906101000a900473ffffffffffffffffffffffffffffffffffffffff1673ffffffffffffffffffffffffffffffffffffffff166108fc610c3a6107bd565b9081150290604051600060405180830381858888f19350505050158015610c65573d6000803e3d6000fd5b50600073ffffffffffffffffffffffffffffffffffffffff16600960010160009054906101000a900473ffffffffffffffffffffffffffffffffffffffff1673ffffffffffffffffffffffffffffffffffffffff1614610d0257610d01600960010160009054906101000a900473ffffffffffffffffffffffffffffffffffffffff166002600160405180602001604052806000815250611830565b5b6000600560006101000a81548160ff021916908315150217905550565b60088054610d2c90613072565b80601f0160208091040260200160405190810160405280929190818152602001828054610d5890613072565b8015610da55780601f10610d7a57610100808354040283529160200191610da5565b820191906000526020600020905b815481529060010190602001808311610d8857829003601f168201915b505050505081565b600360009054906101000a900473ffffffffffffffffffffffffffffffffffffffff1681565b60065481565b6060600c805480602002602001604051908101604052809291908181526020016000905b82821015610fb35783829060005260206000209060040201604051806080016040529081600082018054610e3090613072565b80601f0160208091040260200160405190810160405280929190818152602001828054610e5c90613072565b8015610ea95780601f10610e7e57610100808354040283529160200191610ea9565b820191906000526020600020905b815481529060010190602001808311610e8c57829003601f168201915b50505050508152602001600182018054610ec290613072565b80601f0160208091040260200160405190810160405280929190818152602001828054610eee90613072565b8015610f3b5780601f10610f1057610100808354040283529160200191610f3b565b820191906000526020600020905b815481529060010190602001808311610f1e57829003601f168201915b505050505081526020016002820160009054906101000a900473ffffffffffffffffffffffffffffffffffffffff1673ffffffffffffffffffffffffffffffffffffffff1673ffffffffffffffffffffffffffffffffffffffff16815260200160038201548152505081526020019060010190610dfd565b50505050905090565b610fce610fc7611506565b83836119e1565b5050565b60078054610fdf90613072565b80601f016020809104026020016040519081016040528092919081815260200182805461100b90613072565b80156110585780601f1061102d57610100808354040283529160200191611058565b820191906000526020600020905b81548152906001019060200180831161103b57829003601f168201915b505050505081565b600980600001805461107190613072565b80601f016020809104026020016040519081016040528092919081815260200182805461109d90613072565b80156110ea5780601f106110bf576101008083540402835291602001916110ea565b820191906000526020600020905b8154815290600101906020018083116110cd57829003601f168201915b5050505050908060010160009054906101000a900473ffffffffffffffffffffffffffffffffffffffff16908060020154905083565b60011515600560009054906101000a900460ff1615151480156111435750600034115b611182576040517f08c379a0000000000000000000000000000000000000000000000000000000008152600401611179906133b9565b60405180910390fd5b61119e3360018060405180602001604052806000815250611830565b6009600201543411156112145733600960010160006101000a81548173ffffffffffffffffffffffffffffffffffffffff021916908373ffffffffffffffffffffffffffffffffffffffff160217905550346009600201819055508260096000019080519060200190611212929190612265565b505b600c60405180608001604052808581526020018481526020018373ffffffffffffffffffffffffffffffffffffffff1681526020013481525090806001815401808255809150506001900390600052602060002090600402016000909190919091506000820151816000019080519060200190611292929190612265565b5060208201518160010190805190602001906112af929190612265565b5060408201518160020160006101000a81548173ffffffffffffffffffffffffffffffffffffffff021916908373ffffffffffffffffffffffffffffffffffffffff1602179055506060820151816003015550507f88a5966d370b9919b20f3e2c13ff65706f196a4e32cc2c12bf57088f8852587433346040516113349291906133d9565b60405180910390a1505050565b6000600160008473ffffffffffffffffffffffffffffffffffffffff1673ffffffffffffffffffffffffffffffffffffffff16815260200190815260200160002060008373ffffffffffffffffffffffffffffffffffffffff1673ffffffffffffffffffffffffffffffffffffffff16815260200190815260200160002060009054906101000a900460ff16905092915050565b6113dd611506565b73ffffffffffffffffffffffffffffffffffffffff168573ffffffffffffffffffffffffffffffffffffffff16148061142357506114228561141d611506565b611341565b5b611462576040517f08c379a000000000000000000000000000000000000000000000000000000000815260040161145990613116565b60405180910390fd5b61146f8585858585611b4e565b5050505050565b600560019054906101000a900473ffffffffffffffffffffffffffffffffffffffff1681565b60007f01ffc9a7000000000000000000000000000000000000000000000000000000007bffffffffffffffffffffffffffffffffffffffffffffffffffffffff1916827bffffffffffffffffffffffffffffffffffffffffffffffffffffffff1916149050919050565b600033905090565b8151835114611552576040517f08c379a000000000000000000000000000000000000000000000000000000000815260040161154990613474565b60405180910390fd5b600073ffffffffffffffffffffffffffffffffffffffff168473ffffffffffffffffffffffffffffffffffffffff1614156115c2576040517f08c379a00000000000000000000000000000000000000000000000000000000081526004016115b990613506565b60405180910390fd5b60006115cc611506565b90506115dc818787878787611dea565b60005b845181101561178d5760008582815181106115fd576115fc6131c8565b5b60200260200101519050600085838151811061161c5761161b6131c8565b5b60200260200101519050600080600084815260200190815260200160002060008b73ffffffffffffffffffffffffffffffffffffffff1673ffffffffffffffffffffffffffffffffffffffff168152602001908152602001600020549050818110156116bd576040517f08c379a00000000000000000000000000000000000000000000000000000000081526004016116b490613598565b60405180910390fd5b81810360008085815260200190815260200160002060008c73ffffffffffffffffffffffffffffffffffffffff1673ffffffffffffffffffffffffffffffffffffffff168152602001908152602001600020819055508160008085815260200190815260200160002060008b73ffffffffffffffffffffffffffffffffffffffff1673ffffffffffffffffffffffffffffffffffffffff168152602001908152602001600020600082825461177291906135b8565b925050819055505050508061178690613226565b90506115df565b508473ffffffffffffffffffffffffffffffffffffffff168673ffffffffffffffffffffffffffffffffffffffff168273ffffffffffffffffffffffffffffffffffffffff167f4a39dc06d4c0dbc64b70af90fd698a233a518aa5d07e595d983b8c0526c8f7fb878760405161180492919061360e565b60405180910390a461181a818787878787611df2565b611828818787878787611dfa565b505050505050565b600073ffffffffffffffffffffffffffffffffffffffff168473ffffffffffffffffffffffffffffffffffffffff1614156118a0576040517f08c379a0000000000000000000000000000000000000000000000000000000008152600401611897906136b7565b60405180910390fd5b60006118aa611506565b905060006118b785611fe1565b905060006118c485611fe1565b90506118d583600089858589611dea565b8460008088815260200190815260200160002060008973ffffffffffffffffffffffffffffffffffffffff1673ffffffffffffffffffffffffffffffffffffffff168152602001908152602001600020600082825461193491906135b8565b925050819055508673ffffffffffffffffffffffffffffffffffffffff16600073ffffffffffffffffffffffffffffffffffffffff168473ffffffffffffffffffffffffffffffffffffffff167fc3d58168c5ae7397731d063d5bbf3d657854427343f4c083240f7aacaa2d0f6289896040516119b29291906136d7565b60405180910390a46119c983600089858589611df2565b6119d88360008989898961205b565b50505050505050565b8173ffffffffffffffffffffffffffffffffffffffff168373ffffffffffffffffffffffffffffffffffffffff161415611a50576040517f08c379a0000000000000000000000000000000000000000000000000000000008152600401611a4790613772565b60405180910390fd5b80600160008573ffffffffffffffffffffffffffffffffffffffff1673ffffffffffffffffffffffffffffffffffffffff16815260200190815260200160002060008473ffffffffffffffffffffffffffffffffffffffff1673ffffffffffffffffffffffffffffffffffffffff16815260200190815260200160002060006101000a81548160ff0219169083151502179055508173ffffffffffffffffffffffffffffffffffffffff168373ffffffffffffffffffffffffffffffffffffffff167f17307eab39ab6107e8899845ad3d59bd9653f200f220920489ca2b5937696c3183604051611b4191906124ba565b60405180910390a3505050565b600073ffffffffffffffffffffffffffffffffffffffff168473ffffffffffffffffffffffffffffffffffffffff161415611bbe576040517f08c379a0000000000000000000000000000000000000000000000000000000008152600401611bb590613506565b60405180910390fd5b6000611bc8611506565b90506000611bd585611fe1565b90506000611be285611fe1565b9050611bf2838989858589611dea565b600080600088815260200190815260200160002060008a73ffffffffffffffffffffffffffffffffffffffff1673ffffffffffffffffffffffffffffffffffffffff16815260200190815260200160002054905085811015611c89576040517f08c379a0000000000000000000000000000000000000000000000000000000008152600401611c8090613598565b60405180910390fd5b85810360008089815260200190815260200160002060008b73ffffffffffffffffffffffffffffffffffffffff1673ffffffffffffffffffffffffffffffffffffffff168152602001908152602001600020819055508560008089815260200190815260200160002060008a73ffffffffffffffffffffffffffffffffffffffff1673ffffffffffffffffffffffffffffffffffffffff1681526020019081526020016000206000828254611d3e91906135b8565b925050819055508773ffffffffffffffffffffffffffffffffffffffff168973ffffffffffffffffffffffffffffffffffffffff168573ffffffffffffffffffffffffffffffffffffffff167fc3d58168c5ae7397731d063d5bbf3d657854427343f4c083240f7aacaa2d0f628a8a604051611dbb9291906136d7565b60405180910390a4611dd1848a8a86868a611df2565b611ddf848a8a8a8a8a61205b565b505050505050505050565b505050505050565b505050505050565b611e198473ffffffffffffffffffffffffffffffffffffffff16612242565b15611fd9578373ffffffffffffffffffffffffffffffffffffffff1663bc197c8187878686866040518663ffffffff1660e01b8152600401611e5f9594939291906137e7565b602060405180830381600087803b158015611e7957600080fd5b505af1925050508015611eaa57506040513d601f19601f82011682018060405250810190611ea79190613864565b60015b611f5057611eb661389e565b806308c379a01415611f135750611ecb6138c0565b80611ed65750611f15565b806040517f08c379a0000000000000000000000000000000000000000000000000000000008152600401611f0a919061256e565b60405180910390fd5b505b6040517f08c379a0000000000000000000000000000000000000000000000000000000008152600401611f47906139c8565b60405180910390fd5b63bc197c8160e01b7bffffffffffffffffffffffffffffffffffffffffffffffffffffffff1916817bffffffffffffffffffffffffffffffffffffffffffffffffffffffff191614611fd7576040517f08c379a0000000000000000000000000000000000000000000000000000000008152600401611fce90613a5a565b60405180910390fd5b505b505050505050565b60606000600167ffffffffffffffff81111561200057611fff6125c2565b5b60405190808252806020026020018201604052801561202e5781602001602082028036833780820191505090505b5090508281600081518110612046576120456131c8565b5b60200260200101818152505080915050919050565b61207a8473ffffffffffffffffffffffffffffffffffffffff16612242565b1561223a578373ffffffffffffffffffffffffffffffffffffffff1663f23a6e6187878686866040518663ffffffff1660e01b81526004016120c0959493929190613a7a565b602060405180830381600087803b1580156120da57600080fd5b505af192505050801561210b57506040513d601f19601f820116820180604052508101906121089190613864565b60015b6121b15761211761389e565b806308c379a01415612174575061212c6138c0565b806121375750612176565b806040517f08c379a000000000000000000000000000000000000000000000000000000000815260040161216b919061256e565b60405180910390fd5b505b6040517f08c379a00000000000000000000000000000000000000000000000000000000081526004016121a8906139c8565b60405180910390fd5b63f23a6e6160e01b7bffffffffffffffffffffffffffffffffffffffffffffffffffffffff1916817bffffffffffffffffffffffffffffffffffffffffffffffffffffffff191614612238576040517f08c379a000000000000000000000000000000000000000000000000000000000815260040161222f90613a5a565b60405180910390fd5b505b505050505050565b6000808273ffffffffffffffffffffffffffffffffffffffff163b119050919050565b82805461227190613072565b90600052602060002090601f01602090048101928261229357600085556122da565b82601f106122ac57805160ff19168380011785556122da565b828001600101855582156122da579182015b828111156122d95782518255916020019190600101906122be565b5b5090506122e791906122eb565b5090565b5b808211156123045760008160009055506001016122ec565b5090565b6000604051905090565b600080fd5b600080fd5b600073ffffffffffffffffffffffffffffffffffffffff82169050919050565b60006123478261231c565b9050919050565b6123578161233c565b811461236257600080fd5b50565b6000813590506123748161234e565b92915050565b6000819050919050565b61238d8161237a565b811461239857600080fd5b50565b6000813590506123aa81612384565b92915050565b600080604083850312156123c7576123c6612312565b5b60006123d585828601612365565b92505060206123e68582860161239b565b9150509250929050565b6123f98161237a565b82525050565b600060208201905061241460008301846123f0565b92915050565b60007fffffffff0000000000000000000000000000000000000000000000000000000082169050919050565b61244f8161241a565b811461245a57600080fd5b50565b60008135905061246c81612446565b92915050565b60006020828403121561248857612487612312565b5b60006124968482850161245d565b91505092915050565b60008115159050919050565b6124b48161249f565b82525050565b60006020820190506124cf60008301846124ab565b92915050565b600081519050919050565b600082825260208201905092915050565b60005b8381101561250f5780820151818401526020810190506124f4565b8381111561251e576000848401525b50505050565b6000601f19601f8301169050919050565b6000612540826124d5565b61254a81856124e0565b935061255a8185602086016124f1565b61256381612524565b840191505092915050565b600060208201905081810360008301526125888184612535565b905092915050565b6000602082840312156125a6576125a5612312565b5b60006125b48482850161239b565b91505092915050565b600080fd5b7f4e487b7100000000000000000000000000000000000000000000000000000000600052604160045260246000fd5b6125fa82612524565b810181811067ffffffffffffffff82111715612619576126186125c2565b5b80604052505050565b600061262c612308565b905061263882826125f1565b919050565b600067ffffffffffffffff821115612658576126576125c2565b5b602082029050602081019050919050565b600080fd5b600061268161267c8461263d565b612622565b905080838252602082019050602084028301858111156126a4576126a3612669565b5b835b818110156126cd57806126b9888261239b565b8452602084019350506020810190506126a6565b5050509392505050565b600082601f8301126126ec576126eb6125bd565b5b81356126fc84826020860161266e565b91505092915050565b600080fd5b600067ffffffffffffffff821115612725576127246125c2565b5b61272e82612524565b9050602081019050919050565b82818337600083830152505050565b600061275d6127588461270a565b612622565b90508281526020810184848401111561277957612778612705565b5b61278484828561273b565b509392505050565b600082601f8301126127a1576127a06125bd565b5b81356127b184826020860161274a565b91505092915050565b600080600080600060a086880312156127d6576127d5612312565b5b60006127e488828901612365565b95505060206127f588828901612365565b945050604086013567ffffffffffffffff81111561281657612815612317565b5b612822888289016126d7565b935050606086013567ffffffffffffffff81111561284357612842612317565b5b61284f888289016126d7565b925050608086013567ffffffffffffffff8111156128705761286f612317565b5b61287c8882890161278c565b9150509295509295909350565b6128928161233c565b82525050565b600060808201905081810360008301526128b28187612535565b905081810360208301526128c68186612535565b90506128d56040830185612889565b6128e260608301846123f0565b95945050505050565b600067ffffffffffffffff821115612906576129056125c2565b5b602082029050602081019050919050565b600061292a612925846128eb565b612622565b9050808382526020820190506020840283018581111561294d5761294c612669565b5b835b8181101561297657806129628882612365565b84526020840193505060208101905061294f565b5050509392505050565b600082601f830112612995576129946125bd565b5b81356129a5848260208601612917565b91505092915050565b600080604083850312156129c5576129c4612312565b5b600083013567ffffffffffffffff8111156129e3576129e2612317565b5b6129ef85828601612980565b925050602083013567ffffffffffffffff811115612a1057612a0f612317565b5b612a1c858286016126d7565b9150509250929050565b600081519050919050565b600082825260208201905092915050565b6000819050602082019050919050565b612a5b8161237a565b82525050565b6000612a6d8383612a52565b60208301905092915050565b6000602082019050919050565b6000612a9182612a26565b612a9b8185612a31565b9350612aa683612a42565b8060005b83811015612ad7578151612abe8882612a61565b9750612ac983612a79565b925050600181019050612aaa565b5085935050505092915050565b60006020820190508181036000830152612afe8184612a86565b905092915050565b6000602082019050612b1b6000830184612889565b92915050565b600081519050919050565b600082825260208201905092915050565b6000819050602082019050919050565b600082825260208201905092915050565b6000612b69826124d5565b612b738185612b4d565b9350612b838185602086016124f1565b612b8c81612524565b840191505092915050565b612ba08161233c565b82525050565b60006080830160008301518482036000860152612bc38282612b5e565b91505060208301518482036020860152612bdd8282612b5e565b9150506040830151612bf26040860182612b97565b506060830151612c056060860182612a52565b508091505092915050565b6000612c1c8383612ba6565b905092915050565b6000602082019050919050565b6000612c3c82612b21565b612c468185612b2c565b935083602082028501612c5885612b3d565b8060005b85811015612c945784840389528151612c758582612c10565b9450612c8083612c24565b925060208a01995050600181019050612c5c565b50829750879550505050505092915050565b60006020820190508181036000830152612cc08184612c31565b905092915050565b612cd18161249f565b8114612cdc57600080fd5b50565b600081359050612cee81612cc8565b92915050565b60008060408385031215612d0b57612d0a612312565b5b6000612d1985828601612365565b9250506020612d2a85828601612cdf565b9150509250929050565b60006060820190508181036000830152612d4e8186612535565b9050612d5d6020830185612889565b612d6a60408301846123f0565b949350505050565b600067ffffffffffffffff821115612d8d57612d8c6125c2565b5b612d9682612524565b9050602081019050919050565b6000612db6612db184612d72565b612622565b905082815260208101848484011115612dd257612dd1612705565b5b612ddd84828561273b565b509392505050565b600082601f830112612dfa57612df96125bd565b5b8135612e0a848260208601612da3565b91505092915050565b600080600060608486031215612e2c57612e2b612312565b5b600084013567ffffffffffffffff811115612e4a57612e49612317565b5b612e5686828701612de5565b935050602084013567ffffffffffffffff811115612e7757612e76612317565b5b612e8386828701612de5565b9250506040612e9486828701612365565b9150509250925092565b60008060408385031215612eb557612eb4612312565b5b6000612ec385828601612365565b9250506020612ed485828601612365565b9150509250929050565b600080600080600060a08688031215612efa57612ef9612312565b5b6000612f0888828901612365565b9550506020612f1988828901612365565b9450506040612f2a8882890161239b565b9350506060612f3b8882890161239b565b925050608086013567ffffffffffffffff811115612f5c57612f5b612317565b5b612f688882890161278c565b9150509295509295909350565b6000612f808261231c565b9050919050565b612f9081612f75565b82525050565b6000602082019050612fab6000830184612f87565b92915050565b7f455243313135353a2061646472657373207a65726f206973206e6f742061207660008201527f616c6964206f776e657200000000000000000000000000000000000000000000602082015250565b600061300d602a836124e0565b915061301882612fb1565b604082019050919050565b6000602082019050818103600083015261303c81613000565b9050919050565b7f4e487b7100000000000000000000000000000000000000000000000000000000600052602260045260246000fd5b6000600282049050600182168061308a57607f821691505b6020821081141561309e5761309d613043565b5b50919050565b7f455243313135353a2063616c6c6572206973206e6f7420746f6b656e206f776e60008201527f6572206e6f7220617070726f7665640000000000000000000000000000000000602082015250565b6000613100602f836124e0565b915061310b826130a4565b604082019050919050565b6000602082019050818103600083015261312f816130f3565b9050919050565b7f455243313135353a206163636f756e747320616e6420696473206c656e67746860008201527f206d69736d617463680000000000000000000000000000000000000000000000602082015250565b60006131926029836124e0565b915061319d82613136565b604082019050919050565b600060208201905081810360008301526131c181613185565b9050919050565b7f4e487b7100000000000000000000000000000000000000000000000000000000600052603260045260246000fd5b7f4e487b7100000000000000000000000000000000000000000000000000000000600052601160045260246000fd5b60006132318261237a565b91507fffffffffffffffffffffffffffffffffffffffffffffffffffffffffffffffff821415613264576132636131f7565b5b600182019050919050565b7f4e6f74206f776e65720000000000000000000000000000000000000000000000600082015250565b60006132a56009836124e0565b91506132b08261326f565b602082019050919050565b600060208201905081810360008301526132d481613298565b9050919050565b7f596f752063616e6e6f742066696e697368207468652063616d706169676e207960008201527f6574000000000000000000000000000000000000000000000000000000000000602082015250565b60006133376022836124e0565b9150613342826132db565b604082019050919050565b600060208201905081810360008301526133668161332a565b9050919050565b7f546869732063616d706169676e206973206e6f74206163746976650000000000600082015250565b60006133a3601b836124e0565b91506133ae8261336d565b602082019050919050565b600060208201905081810360008301526133d281613396565b9050919050565b60006040820190506133ee6000830185612889565b6133fb60208301846123f0565b9392505050565b7f455243313135353a2069647320616e6420616d6f756e7473206c656e6774682060008201527f6d69736d61746368000000000000000000000000000000000000000000000000602082015250565b600061345e6028836124e0565b915061346982613402565b604082019050919050565b6000602082019050818103600083015261348d81613451565b9050919050565b7f455243313135353a207472616e7366657220746f20746865207a65726f20616460008201527f6472657373000000000000000000000000000000000000000000000000000000602082015250565b60006134f06025836124e0565b91506134fb82613494565b604082019050919050565b6000602082019050818103600083015261351f816134e3565b9050919050565b7f455243313135353a20696e73756666696369656e742062616c616e636520666f60008201527f72207472616e7366657200000000000000000000000000000000000000000000602082015250565b6000613582602a836124e0565b915061358d82613526565b604082019050919050565b600060208201905081810360008301526135b181613575565b9050919050565b60006135c38261237a565b91506135ce8361237a565b9250827fffffffffffffffffffffffffffffffffffffffffffffffffffffffffffffffff03821115613603576136026131f7565b5b828201905092915050565b600060408201905081810360008301526136288185612a86565b9050818103602083015261363c8184612a86565b90509392505050565b7f455243313135353a206d696e7420746f20746865207a65726f2061646472657360008201527f7300000000000000000000000000000000000000000000000000000000000000602082015250565b60006136a16021836124e0565b91506136ac82613645565b604082019050919050565b600060208201905081810360008301526136d081613694565b9050919050565b60006040820190506136ec60008301856123f0565b6136f960208301846123f0565b9392505050565b7f455243313135353a2073657474696e6720617070726f76616c2073746174757360008201527f20666f722073656c660000000000000000000000000000000000000000000000602082015250565b600061375c6029836124e0565b915061376782613700565b604082019050919050565b6000602082019050818103600083015261378b8161374f565b9050919050565b600081519050919050565b600082825260208201905092915050565b60006137b982613792565b6137c3818561379d565b93506137d38185602086016124f1565b6137dc81612524565b840191505092915050565b600060a0820190506137fc6000830188612889565b6138096020830187612889565b818103604083015261381b8186612a86565b9050818103606083015261382f8185612a86565b9050818103608083015261384381846137ae565b90509695505050505050565b60008151905061385e81612446565b92915050565b60006020828403121561387a57613879612312565b5b60006138888482850161384f565b91505092915050565b60008160e01c9050919050565b600060033d11156138bd5760046000803e6138ba600051613891565b90505b90565b600060443d10156138d057613953565b6138d8612308565b60043d036004823e80513d602482011167ffffffffffffffff82111715613900575050613953565b808201805167ffffffffffffffff81111561391e5750505050613953565b80602083010160043d03850181111561393b575050505050613953565b61394a826020018501866125f1565b82955050505050505b90565b7f455243313135353a207472616e7366657220746f206e6f6e204552433131353560008201527f526563656976657220696d706c656d656e746572000000000000000000000000602082015250565b60006139b26034836124e0565b91506139bd82613956565b604082019050919050565b600060208201905081810360008301526139e1816139a5565b9050919050565b7f455243313135353a204552433131353552656365697665722072656a6563746560008201527f6420746f6b656e73000000000000000000000000000000000000000000000000602082015250565b6000613a446028836124e0565b9150613a4f826139e8565b604082019050919050565b60006020820190508181036000830152613a7381613a37565b9050919050565b600060a082019050613a8f6000830188612889565b613a9c6020830187612889565b613aa960408301866123f0565b613ab660608301856123f0565b8181036080830152613ac881846137ae565b9050969550505050505056fea26469706673582212203cee4bbf69bde0f523dd56e8656f9ffdf10c080230479b1e4a96fd1d22657d7064736f6c63430008090033",
  "linkReferences": {},
  "deployedLinkReferences": {}
}